S0110000584D494449365553422E7372656378
S315080102000000022069530108814601088946010850
S315080102109146010899460108A14601080000000017
S31508010220000000000000000000000000A9460108C7
S31508010230B746010800000000C5460108D346010873
S31508010240F5530108F5530108F5530108F55301085B
S31508010250F5530108F5530108F5530108F55301084B
S31508010260F5530108F5530108F5530108F55301083B
S31508010270F5530108F5530108F5530108F55301082B
S31508010280F5530108F5530108F5530108F55301081B
S31508010290F5530108F5530108F5530108F55301080B
S315080102A0F5530108F5530108F5530108F5530108FB
S315080102B0F5530108E5460108F5530108F553010808
S315080102C0F5530108F5530108F5530108F5530108DB
S315080102D0F5530108FD4601081D4701083D47010878
S315080102E0F5530108F5530108F5530108F5530108BB
S315080102F0F5530108F5530108F5530108F5530108AB
S31508010300F5530108F5530108F5530108F55301089A
S31508010310F5530108F5530108F5530108F55301088A
S31508010320F5530108F5530108F5530108F55301087A
S31508010330F5530108F5530108F5530108F55301086A
S31508010340F5530108F5530108F55301085D470108FE
S31508010350F5530108F5530108F553010871470108DA
S31508010360F5530108F5530108F5530108F55301083A
S31508010370F553010891470108F553010800000000EB
S30D08010380F5530108F5530108C4
S3150801038810B5054C237833B9044B13B10448AFF3B8
S3150801039800800123237010BDE4010020000000003D
S315080103A82068020808B5034B1BB103490348AFF394
S315080103B8008008BD00000000E80100202068020846
S315080103C853B94AB9002908BF00281CBF4FF0FF31A5
S315080103D84FF0FF3000F088B9ADF1080C6DE904CE8D
S315080103E800F006F8DDF804E0DDE9022304B07047F9
S315080103F82DE9F047089D8E4604468846002B4AD1C2
S315080104088A42174662D9B2FA82F64EB1C6F1200374
S3150801041801FA06F820FA03F3B74043EA0808B44094
S315080104284FEA174E1FFA87FCB8FBFEF1230C0EFBA1
S31508010438118843EA084301FB0CF29A4209D9FB18C9
S3150801044801F1FF3080F0EA809A4240F2E7800239EA
S315080104583B449A1AA3B2B2FBFEF00EFB102243EAFA
S31508010468024300FB0CFC9C4509D9FB1800F1FF3235
S3150801047880F0D6809C4540F2D3803B44023840EA56
S315080104880140A3EB0C0300211DB1F3400022C5E985
S315080104980032BDE8F0878B4205D90DB1C5E90001DF
S315080104A800210846F5E7B3FA83F1002946D17345D1
S315080104B802D3824200F20581841A6EEB03020120F7
S315080104C89046002DE5D0C5E90048E2E7002A00F084
S315080104D89080B2FA82F6002E40F0A4808A1A030C9C
S315080104E84FEA174E80B2BCB20121B2FBFEFC0EFBE5
S315080104F81C2243EA024304FB0CF29A4207D9FB1869
S315080105080CF1FF3802D29A4200F2E080C4469B1ADF
S31508010518B3FBFEF20EFB123340EA034302FB04F473
S315080105289C4207D9FB1802F1FF3002D29C4200F21D
S31508010538CA8002461B1B42EA0C40A5E7C1F1200600
S315080105488B4022FA06F71F430EFA01F420FA06F33E
S315080105582EFA06FE4FEA1749234300FA01F81FFA4D
S3150801056887FCBEFBF9F01C0C09FB10EE44EA0E44A5
S3150801057800FB0CFEA64502FA01F209D93C1900F15D
S31508010588FF3A80F09C80A64540F2998002383C449F
S31508010598A4EB0E041FFA83FEB4FBF9F309FB134413
S315080105A84EEA044403FB0CFCA44508D93C1903F19B
S315080105B8FF3E80F08280A4457FD9023B3C4443EA4A
S315080105C80040A4EB0C04A0FB02EC64457346E14623
S315080105D862D35FD05DB1B8EB030264EB090404FA90
S315080105E806F622FA01F31E43CC40C5E90064002148
S315080105F84FE7B1FBF2FC010C41EA0E4180B240EA31
S3150801060801423B4638463C46B846BE462026B1FB1B
S31508010618F7F1A2EB080241EA0C4166E7014618E739
S3150801062810462CE7C6F120022EFA02F3B740B1406C
S3150801063820FA02F24FEA174E0A43B3FBFEF8BCB298
S315080106480EFB1833110C41EA034108FB04F9B040C3
S3150801065889454FEA104380B23ED9791808F1FF3C1B
S3150801066801D289451FD8A1EB0901B1FBFEF909FB9E
S3150801067804F80EFB191192B242EA0142424529D2FF
S31508010688BA1809F1FF31C4D24245C2D2A9F1020109
S315080106983A44BEE7F0459DD2BEEB02036CEB070C64
S315080106A80138E14696E7A7EB09094944A8F1020C7E
S315080106B8B1FBFEF909FB04F8DBE773467FE7504609
S315080106C866E70846FDE63B44023A33E7ACF1020C15
S315080106D83B441CE749469CE7A1EB0901C446B1FB23
S315080106E8FEF909FB04F8C4E7704700BF80B400AFF8
S315080106F8BFF34F8F00BF064BDB6803F4E06204497A
S31508010708044B1343CB60BFF34F8F00BF00BFFDE710
S3150801071800ED00E00400FA0580B485B000AF034691
S31508010728FB710223FB60FB7903F0F003F02B0CD075
S31508010738FB7903F0F003C02B01D0D02B02D101239A
S31508010748FB6038E00223FB6035E0FB79F13B0E2BB1
S315080107588CBF01220022D2B2002A29D1012202FA2B
S3150801076803F346F6A0621A40002A14BF01220022A2
S31508010778D2B2002A15D141F218121A40002A14BF1A
S3150801078801220022D2B2002A0ED103F00503002B5A
S3150801079814BF01230023DBB2002B09D00123FB6018
S315080107A809E00023FB6006E04FF0FF33FB6002E037
S315080107B80223FB6000BFFB6818461437BD465DF87F
S315080107C8047B704780B400AF20231846BD465DF800
S315080107D8047B704780B483B000AF054B7B607B68A8
S315080107E81E225A6100BF0C37BD465DF8047B704767
S315080107F8301D002080B483B000AF0D4B7B607B6849
S3150801080893F81932022B03D17B681E225A6108E034
S315080108187B685B69002B04D07B685B695A1E7B6819
S315080108285A6100BF0C37BD465DF8047B704700BFA7
S31508010838301D002080B485B000AF78600023FB60C6
S3150801084802E0FB680133FB607B685A1C7A601B78F7
S31508010858F72BF6D1FB680133FB60FB68184614379A
S31508010868BD465DF8047B704780B485B000AF7860F3
S315080108780023FB6002E0FB680133FB607B685A1CB6
S315080108887A601B78F72BF6D1FB68013B18461437B3
S31508010898BD465DF8047B704780B584B000AF7860C3
S315080108A87868FFF7E1FFF860FB68043BFB60FB68C3
S315080108B80133FB60FB68033BFB60FB68184610378E
S315080108C8BD4680BD80B485B000AF78607B681B786B
S315080108D85BB21B015AB27B6801331B785BB21343BF
S315080108E85BB2FB737B6802331B785BB21B015AB296
S315080108F87B6803331B785BB213435BB2BB73BB7B61
S315080109081BB21B021AB2FB7B1BB213431BB29BB267
S3150801091818461437BD465DF8047B704780B485B020
S3150801092800AF78600023FB600EE0FB687A68134421
S315080109381A780A49FB680B441B789A4201D00023A6
S3150801094806E0FB680133FB60FB68032BEDD901233D
S3150801095818461437BD465DF8047B7047286A0208AD
S3150801096880B483B000AF78607B6804331B78184677
S315080109780C37BD465DF8047B704780B483B000AF79
S3150801098878607B6805331B7818460C37BD465DF8D1
S31508010998047B704780B483B000AF78607B68063300
S315080109A81B7818460C37BD465DF8047B704780B43A
S315080109B883B000AF78607B68DB7918460C37BD468B
S315080109C85DF8047B704780B485B000AF786007236B
S315080109D8FB60FB685A1CFA601A467B6813441B7845
S315080109E803F00F03BB60BB681B01BB60FB685A1C9D
S315080109F8FA601A467B6813441B7803F00F03BA6832
S31508010A081343BB60BB681B01BB60FB685A1CFA60D1
S31508010A181A467B6813441B7803F00F03BA68134315
S31508010A28BB60BB681B01BB60FB685A1CFA601A46A7
S31508010A387B6813441B7803F00F03BA681343BB603A
S31508010A48BB689BB218461437BD465DF8047B7047E8
S31508010A5880B483B000AF78607B6807331B78184683
S31508010A680C37BD465DF8047B704780B582B000AF88
S31508010A7802F0B0FF78607B681B680B20984700BFB7
S31508010A880837BD4680BD80B582B000AF02F0A2FF27
S31508010A9878607B681B680A20984700BF0837BD46F7
S31508010AA880BD000080B582B000AF78603960084A19
S31508010AB87B68DB021A443B68104619464FF4006303
S31508010AC81A4615F051FE00BF0837BD4680BD00BF5E
S31508010AD80000001080B586B000AF02F07BFFF86011
S31508010AE8FFF770FEB860194B7B60194B3B61FFF73E
S31508010AF8BCFF00237B6110E0FB689B6838697A694B
S31508010B08D202144911444FF4006298473B6903F528
S31508010B1800633B617B6901337B617A69BB689A42E9
S31508010B28EADB7B6893F818321A467B680949D202C8
S31508010B380A4403F5077311464FF40062184615F07F
S31508010B4813FE00BF1837BD4680BD00BF301D002003
S31508010B5800000E080000001080B582B000AF02F050
S31508010B6839FF7860FFF78FFF7B689B680422034982
S31508010B780348984700BF0837BD4680BD502900205D
S31508010B8800000C0880B500AFFFF7A4FF00BF80BDC1
S31508010B9890B587B000AF00237B61A4E000233B61D1
S31508010BA834E056493A697B69B22000FB02F2DB0256
S31508010BB813440B44524A18461146B2231A4615F0ED
S31508010BC8D3FD4E493A697B69B22000FB02F2DB0282
S31508010BD813440B4403F53273494A18461146B2239E
S31508010BE81A4615F0C1FD45497B69DA013B69134483
S31508010BF859331B011944434A3B691B0113440C46E3
S31508010C080FCB84E80F003B6901333B613B69032B32
S31508010C18C7DD3D4BBB6000237B600CE0374A7B6927
S31508010C28DB021A447B68134403F5BA6320221A7057
S31508010C387B6801337B607B680F2BEFDD0023FB6044
S31508010C4814E0BB685A1CBA6019782C4A7B69DB021E
S31508010C581A44FB68134403F5BA630A461A70BB6853
S31508010C681B78002B06D0FB680133FB60FB680F2B4A
S31508010C78E7DD00E000BF7B690133244A82FB0312E2
S31508010C889210DB17D31ADBB2FA680132FA603033ED
S31508010C98D9B21A4A7B69DB021A44FB68134403F57D
S31508010CA8BA630A461A707B695A1C184B83FB0213E6
S31508010CB89910D317C91A0B469B000B445B00D11A26
S31508010CC8CBB2FA680132FA603033D9B20B4A7B697A
S31508010CD8DB021A44FB68134403F5BA630A461A7019
S31508010CE87B6901337B617B691F2B7FF757AFFFF759
S31508010CF8F1FE00BF1C37BD4690BD00BF00000010BD
S31508010D0834690208E8690208386802086766666687
S31508010D1880B500AF074B03221A70064B7F225A701B
S31508010D28044B7F229A70034B5522DA70FFF714FF9A
S31508010D3800BF80BD5029002080B586B000AF4C4B56
S31508010D48BB60BB681B68002B26D100237B610EE0BC
S31508010D58484A7B6952F82300474A7B6932F81330B7
S31508010D680122194605F0F2F97B6901337B617B6932
S31508010D78032BEDDDBB685B683E4A52F82300BB6866
S31508010D885B683D4A32F813300022194605F0DEF948
S31508010D98BB6801221A6067E0384B7B60384B1B69D0
S31508010DA8DB431B0ADAB2BB685B6802F03F02D1B2C1
S31508010DB8BA6813440A461A72BB685B685A1CBB6848
S31508010DC85A60BB685B685A4203F0030302F00302E0
S31508010DD858BF5342BA685360BB6800221A6010218B
S31508010DE8284805F09BF90346012B0CD17B6893F833
S31508010DF81932022B38D07B68022283F819220A2075
S31508010E0801F098F930E00023FB6000233B610CE010
S31508010E18BA683B69134408331B78002B02D0FB6870
S31508010E280133FB603B6901333B613B69032BEFDD0A
S31508010E38FB68002B0CD17B6893F81932012B13D068
S31508010E487B68012283F819220A2001F073F90BE05D
S31508010E587B6893F81932002B06D07B68002283F841
S31508010E6819220A2001F066F900BF1837BD4680BD68
S31508010E78241D0020D8680208F0680208301D0020E1
S31508010E88001002400000024080B483B000AF7860C9
S31508010E98054A7B68134408331B7818460C37BD4640
S31508010EA85DF8047B704700BF241D002080B584B017
S31508010EB800AF786003F0A4FEF860FB68DB6B7A681C
S31508010EC8D2B2104698470346002B06D1FB689B6B9E
S31508010ED87A68D2B20A211046984700BF1037BD462C
S31508010EE880BD80B582B000AF03F08AFE786008231A
S31508010EF83B607B68DB6B3A68D2B210469847034673
S31508010F08002B06D17B689B6B3A68D2B20A21104638
S31508010F18984700BF0837BD4680BD80B584B000AF85
S31508010F28786003F06DFEF860FB68DB6B7A68D2B20D
S31508010F380432D2B2104698470346002B08D1FB68FB
S31508010F489B6B7A68D2B20432D2B20A211046984704
S31508010F5800BF1037BD4680BD80B582B000AF03F02B
S31508010F684FFE786009233B607B68DB6B3A68D2B22F
S31508010F78104698470346002B06D17B689B6B3A684F
S31508010F88D2B20A211046984700BF0837BD4680BD28
S31508010F9880B588B000AF03F033FE3861424BFB6079
S31508010FA80523BB6008237B600023BB6100237B61A3
S31508010FB80023FB6114E03B691B6CFA69D2B210463F
S31508010FC8984703461A46BB68934206DC0122FB6921
S31508010FD802FA03F3BA691343BB61FB690133FB617F
S31508010FE8FB69032BE7DD0023FB6116E03B691B6CF4
S31508010FF8FA69D2B20432D2B21046984703461A465B
S31508011008BB68934206DC0122FB6902FA03F37A6993
S3150801101813437B61FB690133FB61FB69032BE5DD3F
S31508011028FB681B78002B20D03B691B6C7A68D2B207
S315080110381046984703461A46BB68934203DCBB69C0
S3150801104843F04003BB613B691B6C7A68D2B2013233
S31508011058D2B21046984703461A46BB6893420CDC37
S315080110687B6943F040037B6107E0BB6943F04003B2
S31508011078BB617B6943F040037B61BB69DB431B04A6
S3150801108803F47F02BB691A43FB68DA607B69DB43B1
S315080110981B0403F47F027B691A43FB681A6100BFC4
S315080110A82037BD4680BD00BF301D002080B485B0FD
S315080110B800AF78600023FB6002E0FB680133FB6040
S315080110C87B685A1C7A601B78F72BF6D1FB680133C3
S315080110D8FB60FB6818461437BD465DF8047B704704
S315080110E880B588B000AFF860B9607A60FB70FA68B5
S315080110F813465B0113441B01984A1344BB61984A7A
S31508011108FB6852F823307B6100BF7B691B6803F0D3
S315080111188003002BF9D0934B93F81932012B40F031
S315080111283581FB78002B40F0E580BB681B785BB2FC
S31508011138002B5FDABB681B7803F0F003F02B13D09A
S31508011148BB69012283F80E22BB681A78BB6983F842
S315080111580D22BB681B781846FFF7DEFA0346DAB292
S31508011168BB6983F80C2283E0BB681B78F02B09D18D
S31508011178BB69012283F80E22BB681A78BB6983F812
S315080111880D2275E0BB681B78F72B04D1BB690022D1
S3150801119883F80E226CE0BB681B781846FFF7BCFA81
S315080111A80346002B09D1BB681B78FE2B60D1BB69A6
S315080111B893F80E32002B5BD0F6E0BB681B7818460D
S315080111C8FFF7AAFA0346B3F1FF3F51D0BB690122DB
S315080111D883F80E22BB681A78BB6983F80D22BB68A7
S315080111E81B781846FFF798FA0346DAB2BB6983F8FB
S315080111F80C223DE0BB6993F80C32013BDAB2BB69B4
S3150801120883F80C22BB6993F80E3283F00103DBB22B
S31508011218002B14D0BB695B68591CBA695160BA6955
S3150801122892F80D12BA6913440A461A72BB695B68C1
S31508011238DAB2BB695A60BB69012283F80E22BB6917
S3150801124893F80D32F02B13D0BB6993F80C32002BA7
S315080112580ED1BB69002283F80E22BB6993F80D32B9
S315080112681846FFF759FA0346DAB2BB6983F80C221E
S31508011278BB695B68591CBA695160BA681178BA6959
S3150801128813440A461A72BB695B68DAB2BB695A60C3
S31508011298BB6993F80E3283F00103DBB2002B7AD0CF
S315080112A8BB69D3F80831002B75D00023FB6116E01A
S315080112B8BB695B68591CBA695160B969FA690A4414
S315080112C802F586721178BA6913440A461A72BB6915
S315080112D85B68DAB2BB695A60FB690133FB61BB69B2
S315080112E8D3F80831FA699A42E2DBBB690022C3F8E6
S315080112F8082150E0BB6993F80E32002B28D00FE07D
S31508011308BA68531CBB60BB69D3F80831581CB9695C
S31508011318C1F808011178BA6913440A4683F80C21F9
S315080113287B685A1E7A60002BEAD134E0BA68531CE6
S31508011338BB60BB695B68581CB96948601178BA69AA
S3150801134813440A461A72BB695B68DAB2BB695A6002
S315080113587B685A1E7A60002BE8D11CE0D40C002061
S31508011368FC680208301D0020BA68531CBB60BB69BB
S315080113785B68581CB96948601178BA6913440A4602
S315080113881A72BB695B68DAB2BB695A607B685A1E0E
S315080113987A60002BE8D17B69DB6843F080027B69B8
S315080113A8DA60F868FFF7B9FD2037BD4680BD00BF8A
S315080113B880B58EB000AFF860B9607A60FB70794B7A
S315080113C8FB61FB691B78002B00F0E880FB69183381
S315080113D87B6303F015FCB861BB681B78F02B40F0FA
S315080113E89580B868FFF762FE78617B696E4A82FB69
S315080113F80312DB17D31A3B637A696B4B83FB0231FA
S31508011408D317C91A0B465B000B44D31AFB623B6B0D
S315080114189B003B62FB6A002B05D13B6B013B3B6397
S315080114280323FB6202E03B6A04333B620023BB6287
S315080114381FE0FB685BB21B015BB243F0040359B2B8
S315080114487B6B5A1C7A63CAB21A7000237B620AE05C
S31508011458BA68531CBB607B6B591C796312781A707E
S315080114687B6A01337B627B6A022BF1DDBB6A013336
S31508011478BB62BA6A3B6B9A42DBDBFB685BB21B0150
S315080114885AB2FB6ADBB20433DBB25BB2134359B215
S315080114987B6B5A1C7A63CAB21A700023BB620AE0CC
S315080114A8BA68531CBB607B6B591C796312781A702E
S315080114B8BB6A0133BB62BA6AFB6A9A42F0DBBB694B
S315080114C85B69012098470FE0BB699B699847034602
S315080114D8002B09D0FB6900221A7001224FF400512A
S315080114E8324804F033FE05E031480DF0E7F90346C2
S315080114F8002BE9D1FB6918333A6A92B219462C4886
S315080115080DF0EAF9FB6905225A6042E0FB685BB20D
S315080115181B015AB2BB681B781B09DBB25BB21343C2
S3150801152859B27B6B5A1C7A63CAB21A7007E0BA6851
S31508011538531CBB607B6B591C796312781A707B68DC
S315080115485A1E7A60002BF2D1BB695B69012098475C
S315080115580FE0BB699B6998470346002B09D0FB69CD
S3150801156800221A7001224FF40051104804F0EEFDCA
S3150801157805E00F480DF0A2F90346002BE9D1FB69EE
S315080115881833042219460A480DF0A6F9FB690522FB
S315080115985A60FB78002B01D0FFF7DEFC00BF38370D
S315080115A8BD4680BD301D002056555555000C0240D4
S315080115B80031002080B485B000AF78607B681B686D
S315080115C8FB607B6804331B6823F07F4323F470238D
S315080115D8BB60FB680A4A934203D0FB68094A9342EF
S315080115E806D1BB6841F21202934201D1012300E0F8
S315080115F8002318461437BD465DF8047B704700BFBB
S31508011608F0411045F041104280B487B000AF7860C8
S3150801161839607B681B7803F00F037B617B681B784D
S3150801162803F0F003F02B0CD13B681B881A467B693B
S3150801163842FA03F303F00103002B40F0EF8201237A
S31508011648EDE27B681B7803F0F003E02B00F0CF820C
S31508011658E02B00F3E382D02B00F0BD82D02B00F3F8
S31508011668DD82C02B00F0AB82C02B00F3D782B02BEA
S3150801167833D0B02B00F3D282A02B21D0A02B00F3B4
S31508011688CD82802B02D0902B0DD0C7E23B689B8870
S315080116981A467B6942FA03F303F00103002B40F06B
S315080116A8B2820123BBE23B68DB881A467B6942FAA8
S315080116B803F303F00103002B40F0A7820123AEE2EE
S315080116C83B681B891A467B6942FA03F303F001034F
S315080116D8002B40F09C820123A1E27B6801331B7829
S315080116E8772B00F2E1813B685B891A467B6942FAE6
S315080116F803F303F00103002B01D101238FE27B6871
S315080117085B78FB743B688233FB60FB7C5D2B00F2DC
S31508011718C98101A252F823F05D190108991801082F
S31508011728AD1A0108AD1A0108AD1A0108051A01080A
S31508011738AD1A0108B5180108AD1A0108AD1A01084C
S31508011748ED180108D1180108AD1A0108AD1A0108E2
S31508011758AD1A0108AD1A0108AD1A0108AD1A010832
S31508011768AD1A0108AD1A0108AD1A0108AD1A010822
S31508011778AD1A0108AD1A0108AD1A0108AD1A010812
S31508011788AD1A0108AD1A0108AD1A0108AD1A010802
S31508011798AD1A0108AD1A01085D190108AD1A010843
S315080117A8AD1A0108AD1A0108AD1A0108AD1A0108E2
S315080117B8AD1A0108AD1A0108AD1A0108AD1A0108D2
S315080117C8AD1A0108AD1A0108AD1A0108AD1A0108C2
S315080117D8AD1A0108AD1A0108AD1A0108AD1A0108B2
S315080117E8AD1A0108AD1A0108AD1A0108AD1A0108A2
S315080117F8AD1A0108AD1A0108AD1A0108AD1A010892
S31508011808AD1A0108AD1A0108AD1A0108AD1A010881
S31508011818AD1A0108AD1A010809190108AD1A010816
S315080118282519010841190108AD1A0108AD1A010857
S31508011838AD1A010895190108591A0108211A01084A
S31508011848791901083D1A0108B1190108CD190108C4
S31508011858E9190108AD1A0108AD1A0108AD1A0108F6
S31508011868AD1A0108AD1A0108AD1A0108AD1A010821
S31508011878AD1A0108AD1A0108AD1A0108AD1A010811
S31508011888AD1A0108911A0108AD1A0108751A010855
S31508011898FB681B881A467B6942FA03F303F00103BE
S315080118A8002B0CBF01230023DBB2B8E1FB685B8878
S315080118B81A467B6942FA03F303F00103002B0CBFAE
S315080118C801230023DBB2AAE1FB689B881A467B69D8
S315080118D842FA03F303F00103002B0CBF012300238B
S315080118E8DBB29CE1FB68DB881A467B6942FA03F39B
S315080118F803F00103002B0CBF01230023DBB28EE1A1
S31508011908FB681B891A467B6942FA03F303F001034C
S31508011918002B0CBF01230023DBB280E1FB685B893E
S315080119281A467B6942FA03F303F00103002B0CBF3D
S3150801193801230023DBB272E1FB689B891A467B699E
S3150801194842FA03F303F00103002B0CBF012300231A
S31508011958DBB264E1FB68DB891A467B6942FA03F361
S3150801196803F00103002B0CBF01230023DBB256E168
S31508011978FB681B8A1A467B6942FA03F303F00103DB
S31508011988002B0CBF01230023DBB248E1FB685B8A05
S315080119981A467B6942FA03F303F00103002B0CBFCD
S315080119A801230023DBB23AE1FB689B8A1A467B6965
S315080119B842FA03F303F00103002B0CBF01230023AA
S315080119C8DBB22CE1FB68DB8A1A467B6942FA03F328
S315080119D803F00103002B0CBF01230023DBB21EE130
S315080119E8FB681B8B1A467B6942FA03F303F001036A
S315080119F8002B0CBF01230023DBB210E1FB685B8BCC
S31508011A081A467B6942FA03F303F00103002B0CBF5C
S31508011A1801230023DBB202E1FB689B8B1A467B692B
S31508011A2842FA03F303F00103002B0CBF0123002339
S31508011A38DBB2F4E0FB68DB8B1A467B6942FA03F3EF
S31508011A4803F00103002B0CBF01230023DBB2E6E0F8
S31508011A58FB681B8C1A467B6942FA03F303F00103F8
S31508011A68002B0CBF01230023DBB2D8E0FB685B8C93
S31508011A781A467B6942FA03F303F00103002B0CBFEC
S31508011A8801230023DBB2CAE0FB689B8C1A467B69F3
S31508011A9842FA03F303F00103002B0CBF01230023C9
S31508011AA8DBB2BCE00023BAE07B6801331B78783BDC
S31508011AB8072B73D801A252F823F000BFE51A0108CB
S31508011AC8FD1A0108151B01082D1B0108451B0108EC
S31508011AD85D1B0108751B01088D1B01083B685B8A9C
S31508011AE81A467B6942FA03F303F00103002B57D11F
S31508011AF8012394E03B689B8A1A467B6942FA03F3F9
S31508011B0803F00103002B4DD1012388E03B68DB8AEA
S31508011B181A467B6942FA03F303F00103002B43D102
S31508011B2801237CE03B681B8B1A467B6942FA03F35F
S31508011B3803F00103002B39D1012370E03B685B8B65
S31508011B481A467B6942FA03F303F00103002B2FD1E6
S31508011B58012364E03B689B8B1A467B6942FA03F3C7
S31508011B6803F00103002B25D1012358E03B68DB8BE1
S31508011B781A467B6942FA03F303F00103002B1BD1CA
S31508011B8801234CE03B681B8C1A467B6942FA03F32E
S31508011B9803F00103002B11D1012340E000BF0EE039
S31508011BA800BF0CE000BF0AE000BF08E000BF06E07E
S31508011BB800BF04E000BF02E000BF00E000BF3B68C9
S31508011BC89B891A467B6942FA03F303F00103002B42
S31508011BD81FD1012323E03B68DB891A467B6942FA50
S31508011BE803F303F00103002B15D1012317E03B6822
S31508011BF81B8A1A467B6942FA03F303F00103002B91
S31508011C080BD101230BE000BF08E000BF06E000BFC7
S31508011C1804E000BF02E000BF00E000BF0023184649
S31508011C281C37BD465DF8047B704700BF80B584B094
S31508011C3800AF0346FB71354BFB600023BB60BB68ED
S31508011C485A1CBA60F021FA6813440A4683F81C2A12
S31508011C58BB685A1CBA605521FA6813440A4683F8C0
S31508011C681C2ABB685A1CBA605421FA6813440A46E6
S31508011C7883F81C2ABB685A1CBA605321FA681344AC
S31508011C880A4683F81C2ABB685A1CBA60FA681344C0
S31508011C98FA7983F81C2ABB685A1CBA60FA6813448D
S31508011CA8072283F81C2ABB685A1CBA60FA681344C7
S31508011CB8042283F81C2ABB685A1CBA60FA6892F887
S31508011CC81812FA6813440A4683F81C2AFEF77AFD9D
S31508011CD80146BB685A1CBA60C9B2FA6813440A466F
S31508011CE883F81C2ABB685A1CBA60FA681344F72297
S31508011CF883F81C2AFB6803F61C210123BA68042009
S31508011D08FFF756FB00BF1037BD4680BD301D0020C2
S31508011D1890B587B000AF78607868FEF721FE03466C
S31508011D28FB75114B3B610723FB60FB7D062B07D12E
S31508011D38FB6804333A691344F72283F81C2A00E03E
S31508011D4800BF3B6903F61C243B6903F61C231846A6
S31508011D58FEF770FD0246012321460420FFF728FBFA
S31508011D6800BF1C37BD4690BD301D002080B582B026
S31508011D7800AF00237B6016E000233B600DE03A685C
S31508011D8813465B0013440C4A991800230322786802
S31508011D98FFF7A6F93B6801333B603B680F2BEEDD7D
S31508011DA87B6801337B607B68032BE5DD00BF00BFD9
S31508011DB80837BD4680BD00BF2C6A020880B588B0C1
S31508011DC800AF78603960474B3B610023BB61BB694B
S31508011DD85A1CBA61F0213A6913440A4683F81C2A3F
S31508011DE8BB695A1CBA6155213A6913440A4683F8EC
S31508011DF81C2ABB695A1CBA6154213A6913440A4612
S31508011E0883F81C2ABB695A1CBA6153213A691344D7
S31508011E180A4683F81C2ABB695A1CBA613A691344EB
S31508011E28002283F81C2ABB695A1CBA613A69134409
S31508011E38092283F81C2ABB695A1CBA613A68D1B2C5
S31508011E483A6913440A4683F81C2ABB695A1CBA61BB
S31508011E587A68D1B23A6913440A4683F81C2A7B6818
S31508011E68DB0203F5BA63204A1344FB611023FB60BE
S31508011E7800237B611DE0FB691A78BB69591CB961A6
S31508011E881209D1B23A6913440A4683F81C2AFB692E
S31508011E985A1CFA611A78BB69591CB96102F00F0212
S31508011EA8D1B23A6913440A4683F81C2A7B69013375
S31508011EB87B617A69FB689A42DDDBBB695A1CBA61A0
S31508011EC83A691344F72283F81C2A3B6903F61C214D
S31508011ED80123BA690420FFF76BFA00BF2037BD460C
S31508011EE880BD00BF301D00200000001080B588B0F5
S31508011EF800AF03463960FB718D4BFB600023BB615C
S31508011F08BB695A1CBA61F021FA6813440A4683F870
S31508011F181C2ABB695A1CBA615521FA6813440A4630
S31508011F2883F81C2ABB695A1CBA615421FA681344F6
S31508011F380A4683F81C2ABB695A1CBA615321FA68EE
S31508011F4813440A4683F81C2ABB695A1CBA61FA68FB
S31508011F581344002283F81C2ABB695A1CBA61FA6819
S31508011F681344FA7983F81C2ABB695A1CBA613A6878
S31508011F78D1B2FA6813440A4683F81C2AFB790E2B50
S31508011F8800F29C8001A252F823F000BF6D200108D7
S31508011F98D11F010839200108052001081F20010859
S31508011FA8EB1F010853200108C5200108B7200108BD
S31508011FB8C5200108C5200108C5200108C520010852
S31508011FC8832001089D2001083B68B22202FB03F31E
S31508011FD803F50673FA6813440433FB6122233B614C
S31508011FE86DE03B68B22202FB03F303F59C63FA68CA
S31508011FF813440433FB6122233B6160E03B68B22248
S3150801200802FB03F303F50E73FA6813440633FB61FF
S3150801201820233B6153E03B68B22202FB03F303F535
S31508012028A063FA6813440633FB6120233B6146E043
S315080120383B68B22202FB03F303F51673FA681344E5
S315080120480633FB6140233B6139E03B68B22202FB58
S3150801205803F303F5A463FA6813440633FB614023C3
S315080120683B612CE03B681B0103F5F563FA681344E9
S315080120780433FB6110233B6121E03B68B22202FB72
S3150801208803F303F52673FA6813440633FB61302311
S315080120983B6114E03B68B22202FB03F303F5AC6328
S315080120A8FA6813440633FB6130233B6107E0FB6892
S315080120B803F2EC73FB6110233B6100E000BF0023C8
S315080120C87B611DE0FB691A78BB69591CB96112095C
S315080120D8D1B2FA6813440A4683F81C2AFB695A1CC2
S315080120E8FA611A78BB69591CB96102F00F02D1B2B3
S315080120F8FA6813440A4683F81C2A7B6901337B610B
S315080121087A693B699A42DDDBBB695A1CBA61FA6886
S315080121181344F72283F81C2AFB6803F61C210123BA
S31508012128BA690420FFF744F900BF2037BD4680BDC8
S31508012138301D002080B584B000AF7860304BFB6055
S315080121480023BB60BB685A1CBA60F021FA681344BD
S315080121580A4683F81C2ABB685A1CBA605521FA68CC
S3150801216813440A4683F81C2ABB685A1CBA605421C8
S31508012178FA6813440A4683F81C2ABB685A1CBA60CB
S315080121885321FA6813440A4683F81C2ABB685A1C61
S31508012198BA607A68D1B2FA6813440A4683F81C2ADF
S315080121A8BB685A1CBA60FA681344112283F81C2AB8
S315080121B8BB685A1CBA60FA681344042283F81C2AB5
S315080121C8BB685A1CBA60FA6892F81912FA68134475
S315080121D80A4683F81C2ABB685A1CBA60FA6813446B
S315080121E8F72283F81C2AFB6803F61C210123BA681F
S315080121F80420FFF7DDF800BF1037BD4680BD00BFD4
S31508012208301D002080B584B000AF384B3B600023F1
S31508012218FB60374BBB60FB685A1CFA60F0213A68C9
S3150801222813440A4683F81C2AFB685A1CFA60552186
S315080122383A6813440A4683F81C2AFB685A1CFA604A
S3150801224854213A6813440A4683F81C2AFB685A1C1F
S31508012258FA6053213A6813440A4683F81C2AFB682C
S315080122685A1CFA603A681344002283F81C2AFB6848
S315080122785A1CFA603A6813440A2283F81C2AFB682E
S315080122885A1CFA603A681344042283F81C2A002364
S315080122987B6012E0BA68531CBB60FB68591CF9607D
S315080122A811783A6813440A4683F81C2ABB681B78CE
S315080122B8002B06D07B6801337B607B680C2BE9DD34
S315080122C800E000BFFB685A1CFA603A681344F72213
S315080122D883F81C2A3B6803F61C210123FA680420A3
S315080122E8FFF766F800BF1037BD4680BD301D0020D0
S315080122F80000010880B584B000AF374B3B60002366
S31508012308BB60BB685A1CBA60F0213A6813440A468E
S3150801231883F81C2ABB685A1CBA6055213A681344C3
S315080123280A4683F81C2ABB685A1CBA6054213A68BB
S3150801233813440A4683F81C2ABB685A1CBA605321F7
S315080123483A6813440A4683F81C2ABB685A1CBA60B9
S315080123583A681344002283F81C2ABB685A1CBA60D7
S315080123683A6813440F2283F81C2ABB685A1CBA60B8
S315080123783A681344042283F81C2A184BFB60002385
S315080123887B6011E0FB685A1CFA601A78BB68591C0D
S31508012398B96002F07F02D1B23A6813440A4683F853
S315080123A81C2A7B6801337B607B68032BEAD9BB68E7
S315080123B85A1CBA603A681344F72283F81C2A3B6800
S315080123C803F61C210123BA680420FEF7F1FF00BFB2
S315080123D81037BD4680BD00BF301D0020502900209A
S315080123E880B586B000AF7860584BBB6000233B6167
S315080123F83B695A1C3A61F021BA6813440A4683F8BC
S315080124081C2A3B695A1C3A615521BA6813440A467B
S3150801241883F81C2A3B695A1C3A615421BA68134441
S315080124280A4683F81C2A3B695A1C3A615321BA6839
S3150801243813440A4683F81C2A3B695A1C3A61BA6846
S315080124481344052283F81C2A3B695A1C3A61BA685F
S3150801245813440C2283F81C2A3B695A1C3A61BA6848
S315080124681344042283F81C2A7B6819133B695A1CEE
S315080124783A61C9B2BA6813440A4683F81C2A7B68C2
S315080124881B12DAB23B69591C396102F00F02D1B243
S31508012498BA6813440A4683F81C2A7B681B11DAB200
S315080124A83B69591C396102F00F02D1B2BA68134463
S315080124B80A4683F81C2A7B68DAB23B69591C3961D2
S315080124C802F00F02D1B2BA6813440A4683F81C2AE5
S315080124D87B689B011A461E4B13447B610023FB60EC
S315080124E81DE07B691A783B69591C39611209D1B211
S315080124F8BA6813440A4683F81C2A7B695A1C7A6106
S315080125081A783B69591C396102F00F02D1B2BA68C7
S3150801251813440A4683F81C2AFB680133FB60FB68E7
S315080125283F2BDEDD3B695A1C3A61BA681344F72228
S3150801253883F81C2ABB6803F61C2101233A6904207F
S31508012548FEF736FF00BF1837BD4680BD301D00208F
S315080125580000001080B588B000AF7860244B3B6155
S315080125684023FB610723FB60FB68043303F6182342
S315080125783A6913440433BB617B689B011A461D4BB0
S3150801258813447B611AE0BB695A1CBA611B7803F0CC
S315080125980F03FB72FB7A1B01FB72BB695A1CBA61F2
S315080125A81B7803F00F035AB297F90B3013435BB242
S315080125B8FB727B695A1C7A61FA7A1A70FB695A1E88
S315080125C8FA61002BDFD13B6993F818321A463B6941
S315080125D80849D2020A4403F5077311464FF4006203
S315080125E8184614F0C1F800BF2037BD4680BD00BFA4
S315080125F8301D00200000001090B589B000AF0346D1
S315080126083960FB71574B3B613B6903F61C23184636
S31508012618FEF742F9F8610723FB603B6903F61C22BA
S31508012628FB6813447B61FB790E2B00F2828001A2B9
S3150801263852F823F0A5260108B7260108E32601085A
S31508012648792601088F260108CD260108F9260108E9
S315080126583B2701083B2701083B2701083B270108B7
S315080126683B2701083B2701080F27010825270108E9
S315080126783B68B22202FB03F303F50E733A69134466
S315080126880633BB6156E03B68B22202FB03F303F546
S31508012698A0633A6913440633BB614BE03B681B01E7
S315080126A803F5F5633A6913440433BB6142E03B68B1
S315080126B8B22202FB03F303F506733A69134404339A
S315080126C8BB6137E03B68B22202FB03F303F59C635F
S315080126D83A6913440433BB612CE03B68B22202FB16
S315080126E803F303F516733A6913440633BB6121E00C
S315080126F83B68B22202FB03F303F5A4633A69134460
S315080127080633BB6116E03B68B22202FB03F303F505
S3150801271826733A6913440633BB610BE03B68B22258
S3150801272802FB03F303F5AC633A6913440633BB6149
S3150801273800E000BF0DE0BC69A31CBB617869FEF720
S31508012748C1F8034623807B6904337B61FB69043B33
S31508012758FB61FB69002BEED100BF00BF2437BD46DC
S3150801276890BD00BF301D002080B586B000AF134B61
S31508012778BB60BB6803F61C231846FEF78DF878611B
S3150801278807237B60BB6803F61C227B681344FB603E
S315080127980B4B3B6107E0FA68531CFB603B69591C04
S315080127A8396112781A707B695A1E7A61002BF2D13F
S315080127B800BF00BF1837BD4680BD00BF301D0020C9
S315080127C85029002080B586B000AF1B4BBB60BB689B
S315080127D803F61C231846FEF75FF8786107237B6022
S315080127E8BB6803F61C227B681344FB60BB6803F2CB
S315080127F8EC733B617B695B107B6113E0FB685A1CD0
S31508012808FA601B78FB70FB781B01FB70FB685A1C86
S31508012818FA601A78FB781343FB703B695A1C3A61CC
S31508012828FA781A707B695A1E7A61002BE6D100BFBD
S3150801283800BF1837BD4680BD301D002080B58CB055
S3150801284800AF78600B46FB70A84B3B627B681B7828
S31508012858F02B03D13B6A0022C3F81C2C0023FB6228
S3150801286812E0FB6A7A681A443B6AD3F81C3C581C7E
S31508012878396AC1F81C0C11783A6A13440A4683F86E
S315080128881C2AFB6A0133FB62FB78FA6A9A42E8DB7F
S31508012898FB78013B7A6813441B78F72B40F04A8189
S315080128A83B6A03F61C231846FEF738F80346002B3D
S315080128B800F040813B6A03F61C231846FEF75DF8CB
S315080128C80346FB773B6A03F61C231846FEF748F8C6
S315080128D80346BB773B6A03F61C231846FEF75AF8E4
S315080128E8B861BB7F002B30D1FB7F072B03D10020B2
S315080128F8FFF79CF91EE1FB7F0F2B02D1FFF7FAFCC4
S3150801290818E1FB7F112B04D1BB7F1846FFF712FC90
S3150801291810E1FB7F0A2B02D1FFF774FC0AE1FB7F62
S31508012928092B0CD13B6A03F61C231846FEF73FF818
S315080129380346FB60B969F868FFF740FAFAE0FB7FD6
S31508012948B9691846FFF7D2FAF4E0BB7F012B35D1EE
S31508012958FB7F072B1AD13B6A03F61C231846FEF799
S3150801296826F803463B613B69DAB23B6A83F81822C3
S315080129783B6A5F493A69D2020A4403F50773114665
S315080129884FF40062184613F0EFFE10E0FB7F0F2B99
S3150801299802D1FFF7E9FE0AE0FB7F082B02D1FFF710
S315080129A811FF04E0FB7FB9691846FFF725FE3B6A64
S315080129B803F61C231846FFF7ABF9BBE0BB7F022BCE
S315080129C811D1FB7F0B2B02D1FEF784F804E0FB7FBC
S315080129D80F2B01D1FEF7C0F83B6A03F61C231846EC
S315080129E8FFF796F9A6E0BB7F032B39D1FB7F0B2BA3
S315080129F828D1404B7B620023BB6211E07B6A03F551
S31508012A0800627A623A49BA6AD2020A4410461946F3
S31508012A184FF400631A4613F0A7FEBB6A0133BB627B
S31508012A28BB6A1F2BEADD3B6A93F818322F4A3049ED
S31508012A38DB02194402F507734FF40062184613F0CE
S31508012A4893FE06E0FB7F0F2B03D12B4A2B4B10680D
S31508012A5818603B6A03F61C231846FFF759F969E01B
S31508012A68BB7F052B0AD13B6A03F61C231846FDF7DB
S31508012A78AAFF03461846FFF7B3FC5BE0BB7F062BA4
S31508012A8810D13B6A03F61C231846FDF79CFF03463B
S31508012A981846FFF75FFD3B6A03F61C231846FFF73E
S31508012AA837F947E0BB7F042B2AD13B6A03F61C2377
S31508012AB81846FDF7CDFF03467B610D4A7B69DB02A4
S31508012AC81A443B6A104603F507734FF40062194620
S31508012AD813F04AFE7B69DAB23B6A83F818223B6A25
S31508012AE803F61C231846FFF713F923E0301D0020C7
S31508012AF80000001000000E0800000C0850290020EC
S31508012B08BB7F082B11D1FB7F0B2B02D1FEF740F8AF
S31508012B1804E0FB7F0F2B01D1FEF7FAF83B6A03F6AF
S31508012B281C231846FFF7F4F804E0BB7F092B01D1EB
S31508012B38FDF7DCFD00BF3037BD4680BD80B598B0CE
S31508012B4800AFF860B9607A60794BFB63F868FEF7FD
S31508012B589BF9034687F85F3000237B65754BBB6392
S31508012B68FB68B22202FB03F303F50673FA6B1344F7
S31508012B7804337B630023BB650DE0BB685A1CBA6046
S31508012B881978BA6BBB6D134403F51A630A461A70AA
S31508012B98BB6D0133BB65BA6D7B689A42EDDBBB6BCE
S31508012BA893F8A03903F00F033B63634B1B78002B9B
S31508012BB800F0C680BB6B93F8A03903F0F003B02B7D
S31508012BC871D1BB6B93F8A139002B16D15A4B1B78D7
S31508012BD803F00103002B66D0BB6B93F8A229564B69
S31508012BE89B789A4204D1FB6B012283F81A2227E3C0
S31508012BF8FB6B002283F81A2255E0BB6B93F8A139BF
S31508012C08202B16D14C4B1B7803F00103002B4AD015
S31508012C18BB6B93F8A229484B5B789A4204D1FB6BA4
S31508012C28012283F81B220BE3FB6B002283F81B2284
S31508012C3839E0BB6B93F8A1293F4BDB789A4232D12D
S31508012C483D4B1B7803F00203002B2CD0BB6B93F882
S31508012C58A23987F82F30FDF7B5FD024697F82F30C8
S31508012C689A4220DDFB6B93F8183297F82F209A427F
S31508012C7800F0D782FB6B97F82F2083F8182297F86C
S31508012C882F20FB6B2D49D2020A4403F50773114617
S31508012C984FF40062184613F067FD0A20FEF7C6FFCF
S31508012CA8FFF764F8BDE2BB6B93F8A03903F0F003AC
S31508012CB8C02B45D1FB6B93F81A32002B40D0FB6B1E
S31508012CC893F81B32002B3BD01B4B1B7803F00103EF
S31508012CD8002B35D0BB6B93F8A13987F82E30FDF751
S31508012CE871FD024697F82E309A4229DDFB6B93F857
S31508012CF8183297F82E209A4200F09582FB6B97F8BE
S31508012D082E2083F8182297F82E20FB6B0B49D2023E
S31508012D180A4403F5077311464FF40062184613F07F
S31508012D2823FD0A20FEF782FFFFF720F87BE200BFA2
S31508012D38301D002000020020502900200000001044
S31508012D48BB6B93F8A039FE2B07D0BB6B03F51A6149
S31508012D5801237A68F868FEF72BFBFB6B93F819329F
S31508012D68012B00F06282FB6B93F81932022B40F0B3
S31508012D78C180BB6B03F51A63796B1846FEF744FCE9
S31508012D880346002B40F05382BB6B03F51A631846BA
S31508012D98FEF710FC0346002B06D07B6B5B8803F015
S31508012DA80103002B00F04582BB6B93F8A03903F0A9
S31508012DB8F003802B06D0BB6B93F8A03903F0F00318
S31508012DC8902B44D1BB6B93F8A13987F82D307A6BD0
S31508012DD83B6B10339B0013449B7887F82C307A6B2E
S31508012DE83B6B10339B001344DB7887F82B3097F835
S31508012DF82D2097F82C309A42C0F01D8297F82D207D
S31508012E0897F82B309A4200F218827A6B3B6B10338B
S31508012E189B0013449B883B8597F82D309AB23B8DC6
S31508012E28194649000B449B009BB213449BB2FB8489
S31508012E38B7F92630002BC0F20282B7F926307F2B64
S31508012E4800F3FD81FB8CDAB2BB6B83F8A129BB6B56
S31508012E5893F8A03903F0F003F02B4BD000233B6518
S31508012E6845E07A6B3B6B10335B0013445B881A4663
S31508012E783B6D42FA03F303F00103002B34D0BB6B15
S31508012E8893F8A0395BB223F00F035AB23B6D5BB2D4
S31508012E9813435BB2D8B2B96B7A6D13465B00134418
S31508012EA80B4403F52A6302461A700123FB6414E0EE
S31508012EB8BA6BFB6C134403F51A631878B96B7A6D08
S31508012EC813465B001344CA18FB6C134403F52A63BB
S31508012ED802461A70FB6C0133FB64FA6C7B689A42EA
S31508012EE8E6DB7B6D01337B653B6D01333B653B6DEA
S31508012EF80F2BB6DDFB6B93F81932002B23D1002370
S31508012F08BB651CE097F85F3003F00103002B0ED070
S31508012F18BB6B03F51A6100237A68B86DFEF7E0F80A
S31508012F28BB6B93F8A039FE2B01D0FDF753FC97F834
S31508012F385F305B0887F85F30BB6D0133BB65BB6DD6
S31508012F48032BDFDD7CE1FB681B0103F5F563FA6BEF
S31508012F58134404333B62FDF73DFC0023BB655BE183
S31508012F68BB6DB22202FB03F303F59C63FA6B1344A8
S31508012F780433FB61BB6B93F8A03903F0F003F02B1C
S31508012F8800F011810023BB6407E1B96BBA6C1346DB
S31508012F985B0013440B4403F52A631B7803F00F03FC
S31508012FA8BB6100237B64F1E0012387F843300023E2
S31508012FB887F84230FA697B6C10339B0013449B8867
S31508012FC8FB823B6ABA6D33F822301A46BB6942FA64
S31508012FD803F303F00103002B00F0D580FA69BB69F6
S31508012FE810335B0013445B881A467B6C42FA03F379
S31508012FF803F00103002B00F0C680B96BBA6C1346BF
S315080130085B0013440B4403F52A631B7803F0F003AA
S31508013018802B0CD0B96BBA6C13465B0013440B446E
S3150801302803F52A631B7803F0F003902B40D1B96B9B
S31508013038BA6C13465B0013440B4403F6A1231B78A9
S315080130487B75FA697B6C10339B0013449B783B7537
S31508013058FA697B6C10339B001344DB78FB740123F4
S3150801306887F842307A7D3B7D9A4203D2002387F856
S3150801307843301DE07A7DFB7C9A4203D9002387F801
S31508013088433015E07B7D9AB2FB8A194649000B4401
S315080130989B009BB213449BB23B82B7F91030002BB5
S315080130A803DBB7F910307F2B02DD002387F843309D
S315080130B8BA6C13465B00134403F52A63BA6B1344C7
S315080130C8F9691846FEF7A0FA0346002B02D0002331
S315080130D887F8433097F84330002B54D0B96BBA6C4C
S315080130E813465B0013440B4403F52A631B7823F044
S315080130F80F03DAB2BB6B83F8D02ABB6B93F8D03AC5
S315080131085AB27B6C5BB213435BB2DAB2BB6B83F818
S31508013118D02A97F84230002B15D0B96BBA6C1346EA
S315080131285B0013440B4403F6A1231A78FB8ADBB226
S31508013138194649000B449B00DBB21344DAB2BB6B50
S3150801314883F8D12A0BE0B96BBA6C13465B001344B2
S315080131580B4403F6A1231A78BB6B83F8D12AB96BFA
S31508013168BA6C13465B0013440B4403F6A2231A7878
S31508013178BB6B83F8D22ABB6B03F52D6100237A68EA
S31508013188B86DFDF7ADFF7B6C01337B647B6C0F2B48
S315080131987FF70AAFBB6C0133BB64BA6C7B6D9A4285
S315080131A8FFF6F3AE35E0BB6B03F51A631846FEF76F
S315080131B801FA0346002B11D03A6ABB6D9B001344EA
S315080131C85B8803F00203002B23D0BB6B03F51A6156
S315080131D800237A68B86DFDF783FF1AE03A6ABB6D72
S315080131E89B0013445B8803F00103002B11D0BB6BCA
S315080131F803F51A63F9691846FEF706FA0346002B1A
S3150801320807D1BB6B03F51A6100237A68B86DFDF718
S3150801321867FFBB6D0133BB65BB6D032B7FF7A0AE9B
S315080132280EE000BF0CE000BF0AE000BF08E000BFDF
S3150801323806E000BF04E000BF02E000BF00E000BFEF
S315080132486037BD4680BD00BF80B582B000AF0D4B63
S315080132587B607B681B78002B0FD07B685B68002B2B
S3150801326806D10023022208490020FEF7A1F804E046
S315080132787B685B685A1E7B685A6000BF0837BD467B
S3150801328880BD00BF301D00203069020880B582B0B4
S3150801329800AF094B7B6009480BF010FB0346002B6E
S315080132A803D17B6801221A7002E07B6800221A7032
S315080132B800BF0837BD4680BD301D002000310020FB
S315080132C880B483B000AF78607B68202283F84120F8
S315080132D800BF0C37BD465DF8047B704780B487B0DC
S315080132E800AF7860294A7B6852F823307B617B698D
S315080132F81B6803F02003002B16D07B695B68FB74F7
S315080133087A681346DB0113449B00214A1344FB6080
S31508013318FB681B785A1CD1B2FA6811701A46FB6801
S315080133281344FA7C83F804217B691B6803F080033C
S31508013338002B25D07A6813465B0113441B01154AED
S315080133481344BB60BB681A68BB685B689A4210D0AD
S31508013358BB681B68591CBA681160BA6813441B7A9A
S315080133681A467B695A60BB681B68DAB2BB681A6079
S3150801337806E07B69DA684FF67F7313407A69D3608A
S3150801338800BF1C37BD465DF8047B7047FC68020818
S3150801339814150020D40C002080B483B000AF344B38
S315080133A87B60344B1B6903F00403002B1AD07B6836
S315080133B85B69002B0CD07B681B78002B04D02E4B3D
S315080133C84FF47F029A6106E02B4B2C4A9A6102E078
S315080133D8294BFF229A61274B1B69264A83F0040366
S315080133E813613FE0234B1B6903F00203002B39D015
S315080133F87B685B69002B13D07B689B68002B07D118
S315080134081F4B204A9A617B68DA681B4B9A6118E058
S315080134181B4B1D4A9A617B681A69174B9A6110E01A
S315080134287B689B68002B06D1154B174A9A61124B84
S31508013438164A9A6105E0124B124A9A610E4BFF2207
S315080134489A617B689B685A1C7B689A607B689B684B
S3150801345803F00F027B689A60064B1B69054A83F0DD
S315080134680203136100BF0C37BD465DF8047B70473C
S31508013478301D002000040040001002404000BF0033
S31508013488000C02400100020002000100BF004000D2
S3150801349880B584B000AF694BBB600023FB60C4E00C
S315080134A8FA681346DB0113449B00654A13447B609B
S315080134B8B1E07B685B781A467B68134493F8043154
S315080134C8FB70BB6893F81932012B0AD1F91C002342
S315080134D80122F868FDF704FEFB78FE2B01D0FDF7FB
S315080134E879F9FB785BB2002B5FDAFB7803F0F00316
S315080134F8F02B0ED0FA787B681A71FB781846FDF717
S315080135080BF90346DAB27B689A707B680122DA708E
S315080135187BE0FB78F02B06D1FA787B681A717B6811
S315080135280122DA7071E0FB78F72B16D17B68DB7814
S315080135385A1CD1B27A68D1701946FA787B680B4455
S315080135481A717B68191D7B68DB781A46F868FFF7D4
S31508013558F5FAF868FDF7AAFC57E0FB781846FDF76F
S31508013568DBF80346002B09D1FB1C01221946F8682A
S31508013578FFF7E4FAF868FDF799FC46E0FB78184680
S31508013588FDF7CAF80346B3F1FF3F3ED0FA787B68E0
S315080135981A71FB781846FDF7BFF80346DAB27B6855
S315080135A89A707B680122DA702FE07B689B78013B69
S315080135B8DAB27B689A707B68DB785A1CD1B27A686A
S315080135C8D1701946FA787B680B441A717B681B799E
S315080135D8F02B1AD07B689B78002B16D17B68191DAE
S315080135E87B68DB781A46F868FFF7A8FAF868FDF7E2
S315080135F85DFC7B681B791846FDF78EF80346DAB237
S315080136087B689A707B680122DA707B685B7801337C
S31508013618DAB27B685A707B681A787B685B789A4253
S315080136287FF447AFFB680133FB60FB68032B7FF721
S3150801363837AF00BF00BF1037BD4680BD301D00201B
S315080136481415002090B587B000AF78600B46FB705B
S31508013658604B7B617B6905225A60FDF7BBF8FDF76C
S3150801366840FCAEE07B681B7803F00F033B617B687F
S315080136781B781B09DBB2FB60FB68032B6FDC3B6914
S315080136880F2B5BD801A252F823F000BFBD370108FA
S31508013698BD370108D5360108E5360108F5360108AA
S315080136A8053701081537010825370108453701087F
S315080136B845370108453701084537010845370108DF
S315080136C84537010845370108353701087B68591C0C
S315080136D801230222F868FDF703FD6CE07B68591C93
S315080136E801230322F868FDF7FBFC64E07B68591C93
S315080136F801230322F868FDF7F3FC5CE07B68591C93
S3150801370801230122F868FDF7EBFC54E07B68591C94
S3150801371801230222F868FDF7E3FC4CE07B68591C93
S3150801372801230322F868FDF7DBFC44E07B68591C92
S3150801373801230122F868FDF7D3FC3CE07B685C1C91
S315080137483B69DBB21B01DBB21846FCF7E5FF03460A
S315080137585A1C01232146F868FDF7C2FC2BE03B6990
S31508013768043B032B32D801A252F823F08537010806
S3150801377893370108A1370108AF3701087B68013378
S3150801378803211846FFF75AF815E07B68013301212A
S315080137981846FFF753F80EE07B68013302211846ED
S315080137A8FFF74CF807E07B68013303211846FFF752
S315080137B845F800E000BFFB78043BFB707B680433DF
S315080137C87B60FB78002B7FF44DAF00E000BF1C3708
S315080137D8BD4690BD301D002090B587B002AF01F0F7
S315080137E80FFA78602B4BBB600023FB600DE02A4A71
S315080137F8FB6852F823303B603B68DB6843F02002DC
S315080138083B68DA60FB680133FB60FB68032BEEDD76
S31508013818224BDB68214A43F00603D3607B68DC69DF
S315080138281F4B00930123022201210020A0477B6830
S31508013838DC691C4B00930123022201210120A047C0
S315080138480023FB6011E0BB6803F50062BA601649FC
S31508013858FA68D2020A44104619464FF400631A4612
S3150801386812F082FFFB680133FB60FB681F2BEADD58
S315080138780E4B0D4A03F5077311464FF400621846B5
S3150801388812F072FF0A4A0B4B1068186000BF14370A
S31508013898BD4690BD00000E08FC68020800040040F9
S315080138A851320108FD07010800000010301D0020EB
S315080138B800000C085029002080B400AF024B1846B6
S315080138C8BD465DF8047B70475C6A020880B588B016
S315080138D800AF78600023FB610023BB607B683B610E
S315080138E801237B610223BB6101F0FAFF07F11C0280
S315080138F807F108031146184602F054F902F012F8BE
S3150801390800BF2037BD4680BDB0B582B000AF78602C
S315080139180B46FB7001F0E4FFFB7800221C461546AE
S3150801392822462B467968002001F088FF01F0FAFF44
S3150801393800BF0837BD46B0BDB0B584B000AFF86062
S31508013948B9607A6001F0CCFF0FE0F9684B1CFB609F
S31508013958BB685A1CBA601B78DBB200221C4615469E
S3150801396822462B46002001F069FF7B685A1E7A60B9
S31508013978002BEAD101F0D6FF00BF1037BD46B0BD0E
S31508013988B0B582B000AF7860396001F0A9FF0FE0E1
S3150801399879684B1C7B603B685A1C3A601B78DBB21A
S315080139A800221C46154622462B46002001F046FFF2
S315080139B83B681B78002BEBD14FF000024FF0000350
S315080139C87968002001F03AFF01F0ACFF00BF08371B
S315080139D8BD46B0BD80B400AF024B1846BD465DF87A
S315080139E8047B7047806A020880B483B000AF0B4B2A
S315080139F87B600B4B5B680A4A0A49A1FB0313DB0880
S31508013A0853607B6801221A717B6800221A6000BF1D
S31508013A180C37BD465DF8047B704700BF5429002062
S31508013A2810E000E0CDCCCCCC80B400AF00BFBD46D9
S31508013A385DF8047B7047000080B483B000AF1C4B67
S31508013A487B607B681B7983F00103DBB2002B08D006
S31508013A58184B1B781A46184B1B681344164A1360E9
S31508013A681FE07B681B685A1C7B681A607B681968A3
S31508013A78124B83FB01239A10CB17D21A13469B00C4
S31508013A8813445B00CA1A7B681A607B681B68002B9B
S31508013A9807D1084B1B781A46074B1B681344064A75
S31508013AA8136000BF0C37BD465DF8047B704700BF3D
S31508013AB854290020080000207C30002067666666C5
S31508013AC880B582B000AF174B7B60174B1B78022B6A
S31508013AD811D17B681B7883F00103DBB2002B1CD05C
S31508013AE87B6801221A707B685B68002B15D07B6896
S31508013AF85B68984711E00C4B1B78032B0DD17B6843
S31508013B081B78002B09D07B6800221A707B689B6892
S31508013B18002B02D07B689B68984700BF0837BD46CB
S31508013B2880BD00BF5C290020AC3E002080B400AFF0
S31508013B3800BFBD465DF8047B7047000080B400AF3E
S31508013B48034B1B781846BD465DF8047B704700BFD2
S31508013B585C29002080B483B000AF7860044A7B688A
S31508013B68536000BF0C37BD465DF8047B704700BF3C
S31508013B785C29002080B483B000AF7860044A7B686A
S31508013B88936000BF0C37BD465DF8047B704700BFDC
S31508013B985C29002080B400AF024B1846BD465DF883
S31508013BA8047B7047906A020880B400AFBFF34F8F51
S31508013BB800BF064BDB6803F4E0620449044B134370
S31508013BC8CB60BFF34F8F00BF00BFFDE700ED00E0F4
S31508013BD80400FA0580B582B000AF254B7B60012247
S31508013BE84FF48041234802F0B1FA0121224802F034
S31508013BF895FA0346012B01D1FFF7D6FF1F4B1B6820
S31508013C085B6898471D4B1B685B697A6802F5006211
S31508013C1811461B48984738603B68002B15D0174B47
S31508013C281B689B697A6802F500604FF480324FF089
S31508013C3880519847134B1B681B6A984701224FF412
S31508013C4800410C4802F082FA0EE00C4B1B68DB694E
S31508013C584FF480324FF080510B48984701224FF4B0
S31508013C680041044802F072FA00BF0837BD4680BD14
S31508013C7800020020000C024000000240DC2A002055
S31508013C8844680208D42A00204C68020880B500AFA7
S31508013C9800224FF48041054802F058FA00224FF4F1
S31508013CA80041024802F052FA00BF80BD000C0240EA
S31508013CB880B500AF01F09CFB00F09AF800F03CFAD9
S31508013CC800F092F900F0BAF900F0E2F911F006FDF0
S31508013CD800F008FA00F0F6F80AF0E4FB12F038F9F1
S31508013CE800F08EFF0346374A1360364B1B681B687C
S31508013CF898470021344806F009FB0121324806F0A5
S31508013D0805FBFFF7D9FD0346304A13602F4B1B689D
S31508013D181B689847FFF75EFE03462D4A13602D4B2D
S31508013D281B78FF2B07D1294B1B685B699847274BDB
S31508013D381B689B699847FFF72DFF0346264A1360B8
S31508013D48254B1B68DB6825489847234B1B681B6965
S31508013D582348984700220121224802F0F7F900F082
S31508013D6845FF0346204A13601F4B1B681B68984783
S31508013D78144B1B685B6898470346002B12D0114BF6
S31508013D881B68DB68984703461A464FF4805117485B
S31508013D9802F0DCF90D4B1B685B6898470E4B1B68EC
S31508013DA89B689847094B1B689B689847074B1B688C
S31508013DB8DB689847054B1B681B69984712F0EEF8AC
S31508013DC8D6E700BFD02A002068290020D42A002077
S31508013DD8E02A002000000E08D82A0020DD3B010849
S31508013DE8953C010800080240DC2A0020000C024024
S31508013DF880B594B000AF07F1200330220021184698
S31508013E0812F06EFC07F10C0300221A605A609A60D8
S31508013E18DA601A610023BB60284B1B6C274A43F0FA
S31508013E2880531364254B1B6C03F08053BB60BB6836
S31508013E3800237B60224B1B68214A43F480431360A5
S31508013E481F4B1B6803F480437B607B6801233B6235
S31508013E584FF4A0237B620223BB634FF48003FB6301
S31508013E6808233B644FF4A8737B640223BB640723C6
S31508013E78FB6407F12003184605F008FD0346002BE5
S31508013E8801D000F059FA0F23FB6002233B61002396
S31508013E987B614FF4A053BB614FF48053FB6107F173
S31508013EA80C030521184605F069FF0346002B01D0C6
S31508013EB800F042FA00BF5037BD4680BD00380240BF
S31508013EC80070004080B58EB000AF07F128030022C4
S31508013ED81A605A609A60DA6007F1200300221A60AC
S31508013EE85A603B1D00221A605A609A60DA601A61A4
S31508013EF85A619A613A4B3B4A1A60394B53225A60BE
S31508013F08374B00229A60364B40F2F312DA60344B8B
S31508013F1800221A61324B80229A61314806F04EF91D
S31508013F280346002B01D000F007FA4FF48053BB6211
S31508013F3807F1280319462A4806F04AFC0346002BC6
S31508013F4801D000F0F9F9264806F087F90346002B4F
S31508013F5801D000F0F1F900233B6200237B6207F1E7
S31508013F68200319461E4807F043F80346002B01D0DB
S31508013F7800F0E2F900237B600A23BB600023FB609B
S31508013F8800237B613B1D00221946154806F0C4FB30
S31508013F980346002B01D000F0CFF9114B1B689A692B
S31508013FA80F4B1B6842F008029A614FF4C873BB604D
S31508013FB83B1D042219460A4806F0AEFB0346002BA8
S31508013FC801D000F0B9F9064B1B689A69044B1B68BE
S31508013FD842F400629A6100BF3837BD4680BD00BF0A
S31508013FE8682900200004004080B500AF114B124A29
S31508013FF81A60104B47F612225A600E4B00229A6035
S315080140080C4B4FF40052DA600A4B00221A61094B2D
S315080140180C225A61074B00229A61064B0022DA6183
S31508014028044807F075F80346002B01D000F084F917
S3150801403800BF80BDB02900200010014080B500AF3F
S31508014048114B124A1A60104B47F612225A600E4B48
S3150801405800229A600C4B4FF40052DA600A4B002290
S315080140681A61094B0C225A61074B00229A61064BC1
S315080140780022DA61044807F04BF80346002B01D001
S3150801408800F05AF900BF80BDF82900200044004015
S3150801409880B500AF114B124A1A60104B47F6122227
S315080140A85A600E4B00229A600C4B4FF40052DA60A4
S315080140B80A4B00221A61094B0C225A61074B002246
S315080140C89A61064B0022DA61044807F021F803468B
S315080140D8002B01D000F030F900BF80BD402A00202E
S315080140E80048004080B500AF114B124A1A60104BC0
S315080140F847F612225A600E4B00229A600C4B4FF46F
S315080141080052DA600A4B00221A61094B0C225A61DD
S31508014118074B00229A61064B0022DA61044806F029
S31508014128F7FF0346002B01D000F006F900BF80BD52
S31508014138882A00200014014080B58CB000AF07F129
S315080141481C0300221A605A609A60DA601A61002311
S31508014158BB61734B1B6B724A43F010031363704BB5
S315080141681B6B03F01003BB61BB6900237B616C4BB6
S315080141781B6B6B4A43F004031363694B1B6B03F010
S3150801418804037B617B6900233B61654B1B6B644AAE
S3150801419843F080031363624B1B6B03F080033B6197
S315080141A83B690023FB605E4B1B6B5D4A43F00103C9
S315080141B813635B4B1B6B03F00103FB60FB6800236E
S315080141C8BB60574B1B6B564A43F002031363544BA8
S315080141D81B6B03F00203BB60BB6800237B60504B73
S315080141E81B6B4F4A43F0080313634D4B1B6B03F0D4
S315080141F808037B607B680122FF214A4801F0A6FF74
S31508014208012240F20131484801F0A0FF012243F298
S315080142180301464801F09AFF00224FF20301444878
S3150801422801F094FFFF23FB6101233B6200237B62B4
S315080142380023BB6207F11C0319463A4801F0D2FD6F
S3150801424840F20133FB6101233B6200237B620023B1
S31508014258BB6207F11C031946334801F0C3FD012364
S31508014268FB614FF490133B6200237B6207F11C0341
S315080142781946304801F0B6FD1023FB6100233B625D
S3150801428800237B6207F11C0319462A4801F0AAFD97
S3150801429843F20303FB6101233B6200237B6200238C
S315080142A8BB6207F11C031946204801F09BFD04234C
S315080142B8FB6100233B6200237B6207F11C03194655
S315080142C81A4801F08FFD4FF47C53FB6100233B62CA
S315080142D800237B6207F11C031946124801F082FD87
S315080142E84FF20303FB6101233B6200237B62002330
S315080142F8BB6207F11C0319460D4801F073FD20231B
S31508014308FB6100233B6200237B6207F11C03194604
S31508014318074801F067FD00BF3037BD4680BD00BFBD
S31508014328003802400010024000080240000402401A
S31508014338000C02400000024080B400AF72B600BF0C
S3150801434800BFFDE780B582B000AF00237B60104B44
S315080143585B6C0F4A43F4804353640D4B5B6C03F45F
S3150801436880437B607B6800233B60094B1B6C084ACA
S3150801437843F080531364064B1B6C03F080533B6070
S315080143883B68062001F086F900BF0837BD4680BD9F
S315080143980038024080B584B000AF78607B681B6836
S315080143A80E4A934215D10023FB600D4B1B6C0C4A30
S315080143B843F0020313640A4B1B6C03F00203FB6008
S315080143C8FB68002200211D2001F06FF91D2001F06C
S315080143D888F900BF1037BD4680BD00BF00040040FC
S315080143E80038024080B590B000AF786007F12C0319
S315080143F800221A605A609A60DA601A617B681B683B
S31508014408954A934244D10023BB62944B5B6C934A09
S3150801441843F010035364914B5B6C03F01003BB62C2
S31508014428BB6A00237B628D4B1B6B8C4A43F00203E4
S3150801443813638A4B1B6B03F002037B627B6A402377
S31508014448FB6202233B6300237B630323BB630723C6
S31508014458FB6307F12C031946814801F0C3FC802345
S31508014468FB6202233B6301237B630323BB630723A5
S31508014478FB6307F12C031946794801F0B3FC0022BE
S315080144880021252001F011F9252001F02AF9DEE09D
S315080144987B681B68734A934244D100233B626F4B7E
S315080144A81B6C6E4A43F4003313646C4B1B6C03F4A0
S315080144B800333B623B6A0023FB61684B1B6B674A07
S315080144C843F001031363654B1B6B03F00103FB619F
S315080144D8FB690423FB6202233B6300237B630323F3
S315080144E8BB630723FB6307F12C0319465E4801F0F2
S315080144F879FC0823FB6202233B6301237B630323BD
S31508014508BB630723FB6307F12C031946564801F0D9
S3150801451869FC00220021262001F0C7F8262001F0AF
S31508014528E0F894E07B681B68504A934246D1002319
S31508014538BB614A4B1B6C494A43F480231364474BB6
S315080145481B6C03F48023BB61BB6900237B61434B66
S315080145581B6B424A43F002031363404B1B6B03F080
S3150801456802037B617B694FF48063FB6202233B6329
S3150801457800237B630323BB630723FB6307F12C0330
S315080145881946374801F02EFC4FF40063FB620223F3
S315080145983B6301237B630323BB630723FB6307F1A0
S315080145A82C0319462E4801F01DFC0022002127205C
S315080145B801F07BF8272001F094F848E07B681B682E
S315080145C82B4A934243D100233B61244B5B6C234A14
S315080145D843F020035364214B5B6C03F020033B61D2
S315080145E83B690023FB601D4B1B6B1C4A43F0040304
S315080145F813631A4B1B6B03F00403FB60FB68402328
S31508014608FB6202233B6300237B630323BB63082303
S31508014618FB6307F12C031946164801F0E3FB8023CF
S31508014628FB6202233B6301237B630323BB630823E2
S31508014638FB6307F12C0319460E4801F0D3FB002248
S315080146480021472001F031F8472001F04AF800BF58
S315080146584037BD4680BD00BF001001400038024002
S31508014668000402400044004000000240004800409F
S31508014678001401400008024080B400AF00BFFDE7FE
S3150801468880B400AF00BFFDE780B400AF00BFFDE707
S3150801469880B400AF00BFFDE780B400AF00BFFDE7F7
S315080146A880B400AF00BFBD465DF8047B704780B48F
S315080146B800AF00BFBD465DF8047B704780B400AF04
S315080146C800BFBD465DF8047B704780B500AF00F0B2
S315080146D8B5FAFFF7B1F900BF80BD000080B500AF94
S315080146E8FEF75AFE024805F027FF00BF80BD00BF46
S315080146F86829002080B500AF044B5B681846FEF7A9
S31508014708EDFD034806F054FD00BF80BD1469020893
S31508014718B029002080B500AF044B9B681846FEF700
S31508014728DDFD034806F044FD00BF80BD1469020893
S31508014738F829002080B500AF044BDB681846FEF758
S31508014748CDFD034806F034FD00BF80BD1469020893
S31508014758402A002080B500AF024801F0F1FF00BFEA
S3150801476880BD00BFB03E002080B500AF044B9B69F1
S315080147781846FEF7B3FD034806F01AFD00BF80BDCB
S3150801478814690208882A002080B500AF024803F098
S315080147986EFF00BF80BD00BFDC35002080B586B03E
S315080147A800AF7860144A154BD31A7B617B693B6164
S315080147B8134B1B68002B02D1114B124A1A60104B76
S315080147C81A687B6813443A699A4207D211F0A0FF1E
S315080147D803460C221A604FF0FF3309E0084B1B68A1
S315080147E8FB60074B1A687B681344054A1360FB6824
S315080147F818461837BD4680BD00000220000400008F
S31508014808E42A0020D843002080B400AF074BD3F828
S315080148188830064A43F47003C2F88830034B044AC1
S315080148289A6000BFBD465DF8047B704700ED00E05D
S315080148380002010880B483B000AF786039600BE0E4
S315080148487B685A1C7A601A783B68591C39601B7848
S315080148589A4201D000230AE07B681B78002BEFD126
S315080148683B681B78002B01D1012300E00023184679
S315080148780C37BD465DF8047B704780B485B000AF38
S31508014888786039600023FB733B681B785F2B01D17D
S3150801489800232BE03B681B782E2B18D1002325E033
S315080148A87B681A783B681B789A4208D10123FB73FF
S315080148B83B6801333B607B6801337B6007E0FB7B20
S315080148C8002B01D0002311E03B6801333B607B686C
S315080148D81B78002B03D03B681B78002BE0D17B683B
S315080148E81B78002B01D1012300E000231846143751
S315080148F8BD465DF8047B704780B485B000AF786023
S3150801490839600023FB600123BB6002E07B68013341
S315080149187B607B681B782E2BF8D112E07B68013BFC
S315080149287B607B681B7803F00F03BA6802FB03F305
S31508014938FA681344FB60BA6813469B0013445B0084
S31508014948BB603B685A1E3A60002BE7D1FB681846DC
S315080149581437BD465DF8047B704780B483B000AF51
S315080149687860396002E07B6801337B607B681B7875
S315080149782E2BF8D107E07A68531C7B603B68591CD3
S31508014988396012781A707B681B78002BF3D13B685B
S3150801499800221A7000BF0C37BD465DF8047B7047C4
S315080149A880B586B000AF7860396000237B61244BF7
S315080149B8FB60FB6803F58C62FB6803F2A44319469E
S315080149C8104610F096FDFB6803F58C62FB6803F246
S315080149D88C431946104610F0E7FDFB6803F2954328
S315080149E819467868FFF749FF0346002B1DD00023AF
S315080149F83B6114E0FA683B69134403F29543187856
S31508014A0839687A6913465B0013449B001344CA182C
S31508014A183B69134402461A703B6901333B613B699A
S31508014A280C2BE7DD7B6901337B61FB6893F89534C9
S31508014A38002BC8D17B6918461837BD4680BD00BF0B
S31508014A48E82A002080B586B000AFF860B9607A60B8
S31508014A580E4B7B617B6903F50D730122F9681846CC
S31508014A6810F06AF87B6903F50D707A6807F1100387
S31508014A78B96810F0ECF97B6903F50D73184610F05F
S31508014A8818FD00BF1837BD4680BD00BFE82A0020BB
S31508014A9880B588B000AFF860B9607A600F4BFB61E2
S31508014AA8FB6903F50D730A22F968184610F044F8EC
S31508014AB8FB6903F50D707A6807F11403B96810F0F4
S31508014AC805FB0346FB76FB6903F50D73184610F0DB
S31508014AD8F0FC00BF2037BD4680BD00BFE82A00208C
S31508014AE880B483B000AF786039600BE07B685A1CE4
S31508014AF87A601A783B68591C39601B789A4201D042
S31508014B08002304E07B681B78002BEFD101231846A4
S31508014B180C37BD465DF8047B7047000080B582B046
S31508014B2800AF094B7B6078687B6803F2A4430022CF
S31508014B3819460FF0BDFF0346002B01D0FFF7FCFB12
S31508014B4800BF0837BD4680BDE82A002080B584B075
S31508014B5800AF7860154BFB60FB6803F58C62FB6850
S31508014B6803F2A4431946104610F0C3FCFB6803F583
S31508014B788C62FB6803F28C431946104610F014FD43
S31508014B88FB6803F2954319467868FFF753FE03460F
S31508014B98002B01D0012305E0FB6893F89534002B17
S31508014BA8E4D1002318461037BD4680BDE82A0020FF
S31508014BB880B483B000AF0C4B7B607B68302283F8E6
S31508014BC8A4247B683A2283F8A5247B682F2283F8D4
S31508014BD8A6247B68002283F8A72400BF0C37BD46A4
S31508014BE85DF8047B704700BFE82A002080B400AF4F
S31508014BF8024B1846BD465DF8047B7047BC6A020835
S31508014C0880B400AF024B1846BD465DF8047B704771
S31508014C18E06A020880B582B000AF074B7B607B6803
S31508014C2808225A727B6803229A72FEF7DDFE00BFD4
S31508014C380837BD4680BD00BFB42F002080B584B0B3
S31508014C4800AF324B7B600A23FB737B682433BB6056
S31508014C58FEF7EAFE7B68DB88002B05D07B68DB88D4
S31508014C68013B9AB27B68DA807B689B88002B12D055
S31508014C787B689B88013B9AB27B689A800BE0BB6884
S31508014C881B68002B04D0BB681B685A1EBB681A60D0
S31508014C98BB681033BB60FB7B5A1EFA73002BEED137
S31508014CA87B681B780133DAB27B681A707B681B78D4
S31508014CB8174AA2FB03125209642101FB02F29B1A45
S31508014CC8DAB27B681A707B681A78124BA3FB02134F
S31508014CD8D9080B469B000B445B00D31ADBB2002BA1
S31508014CE806D17B68D3F8C4305A1C7B68C3F8C4203C
S31508014CF87B681B78002B05D17B685B8801339AB2E0
S31508014D087B685A8000BF1037BD4680BDB42F002086
S31508014D181F85EB51CDCCCCCC80B586B000AF494BBD
S31508014D28BB60BB685B88FB710A23FB75BB682433C8
S31508014D383B6123E03B695B7B002B1CD03B691B6805
S31508014D48002B18D13B699B68002B0CD03B691B7B50
S31508014D5883F00103DBB2002B02D03B6900225A73A8
S31508014D683B699B6898473B691B7B002B03D03B69CA
S31508014D785A683B691A603B6910333B61FB7D5A1EC9
S31508014D88FA75002BD6D1FB79002B56D0BB680022C1
S31508014D985A800E23FB750023FB7312E0FB7BBA6866
S31508014DA81344DB7A002B09D0FB7BBA681A44D27AFA
S31508014DB8013AD1B2BA6813440A46DA72FB7B01335F
S31508014DC8FB73FB7D5A1EFA75002BE7D1BB685B7A24
S31508014DD8013BDAB2BB685A72BB685B7A002B0FD102
S31508014DE8BB681B7A0133DAB2BB681A72BB681B7ACD
S31508014DF803F00F03DAB2BB681A72BB6808225A7243
S31508014E080523FB750023FB7312E0FB7BBA68134481
S31508014E189B7F002B09D0FB7BBA681A44927F013A1B
S31508014E28D1B2BA6813440A469A77FB7B0133FB73F6
S31508014E38FB7D5A1EFA75002BE7D1FB7918461837F8
S31508014E48BD4680BDB42F002080B485B000AF0346A7
S31508014E58FB800B4BFB60FB881A46920013445B00E8
S31508014E689AB2FB68DA8000BFFB68DB88002BFBD1A6
S31508014E7800BF00BF1437BD465DF8047B704700BF05
S31508014E88B42F002080B483B000AF0346FB80FB88AB
S31508014E981A46920013445B009AB2044B9A8000BFE3
S31508014EA80C37BD465DF8047B704700BFB42F002058
S31508014EB880B400AF054B9B88002B01D1012300E084
S31508014EC800231846BD465DF8047B7047B42F0020B9
S31508014ED880B483B000AF0923FB710A23BB710F4B5A
S31508014EE83B60FB793A681B01134431331B7883F01D
S31508014EF80103DBB2002B01D0FB7909E0FB79013B01
S31508014F08FB71BB79013BBB71BB79002BE9D17F23C7
S31508014F1818460C37BD465DF8047B7047B42F002048
S31508014F2880B485B000AF396011461A460346FB714D
S31508014F380B46BB7113467B71FB7902331B01234A66
S31508014F4813440433FB603B68002B01D03B6800E03F
S31508014F5801233B60BB79032B06D0032B18DC012BF5
S31508014F680FD0022B06D013E03B68194A02FB03F35C
S31508014F783B6011E03B6842F2107202FB03F33B60A7
S31508014F880AE03A6813469B0013445B003B6003E05A
S31508014F983B6801333B6000BF3B6801333B60FB68F4
S31508014FA87A791A73FB683A685A60FB683A681A602C
S31508014FB8FB68BA699A60FB6801225A730123184685
S31508014FC81437BD465DF8047B704700BFB42F00202F
S31508014FD8C027090080B588B002AFF8607B600B4628
S31508014FE8FB721346BB72FFF773FF0346FB75FB7D1E
S31508014FF87F2B01D1FF2311E0B97AFA7AF87D7B680C
S3150801500800930B46F968FFF78BFF034683F0010304
S31508015018DBB2002B01D0FF2300E0FB7D18461837C9
S31508015028BD4680BD80B586B002AF03463960FB71BF
S315080150381346BB71FB7902331B01094A134404332E
S31508015048FB60FB68197BFB689B68BA79F87900935A
S315080150580B463968FFF764FF00BF1037BD4680BDA8
S31508015068B42F002080B485B000AF0346FB71FB79E5
S31508015078104A02331B01134404331B68FB60FB798E
S3150801508802331B010B4A13440433BB60FB68002B2C
S3150801509809D1BB681B7B83F00103DBB2002B02D065
S315080150A8BB6800225A73FB6818461437BD465DF873
S315080150B8047B7047B42F002080B485B000AF03463F
S315080150C8FB71FB7902331B01094A13440433FB605C
S315080150D8FB6800221A73FB6800229A60FB680022A3
S315080150E85A7300BF1437BD465DF8047B704700BF85
S315080150F8B42F002080B485B000AF0346FB71FB7955
S31508015108114A02331B01134404331B68FB60FB79FC
S3150801511802331B010C4A13440433BB60FB68002B9A
S3150801512809D1BB681B7B83F00103DBB2002B02D0D4
S31508015138BB6800225A73BB685B7B18461437BD46A1
S315080151485DF8047B704700BFB42F002080B485B092
S3150801515800AF0346FB71FB79154A02331B01134459
S3150801516804331B68FB60FB7902331B01104A13449D
S315080151780433BB60FB68002B09D1BB681B7B83F032
S315080151880103DBB2002B02D0BB6800225A73BB6845
S315080151985B7B83F00103DBB2002B01D0012300E01E
S315080151A8002318461437BD465DF8047B704700BFCF
S315080151B8B42F002080B483B000AF0346FB71044ABC
S315080151C8FB79937200BF0C37BD465DF8047B7047BF
S315080151D8B42F002080B483B000AF094B7B607B688D
S315080151E89B7A18467B681B7A1946064A03011344B3
S315080151F80B441B7818460C37BD465DF8047B704787
S31508015208B42F0020346B020880B483B000AF03467C
S315080152180A46FB711346BB71FB79084A1344DB7AC4
S31508015228002B04D1FB79054A1344BA79DA7200BF0F
S315080152380C37BD465DF8047B704700BFB42F0020C4
S3150801524880B483B000AF0346FB71FB79064A134461
S31508015258DB7A002B01D1002300E0012318460C371D
S31508015268BD465DF8047B7047B42F002080B483B02F
S3150801527800AF0346FB71FB79044A1344DB7A1846E7
S315080152880C37BD465DF8047B704700BFB42F002074
S3150801529880B483B000AF03460A46FB711346BB7157
S315080152A8FB79054A1344BA795A7600BF0C37BD46C5
S315080152B85DF8047B704700BFB42F002080B483B023
S315080152C800AF03460A46FB711346BB71FB79054ACB
S315080152D81344BA799A7700BF0C37BD465DF8047B43
S315080152E8704700BFB42F002080B485B000AF0346CD
S315080152F8FB71134BFB60FB79FA6813445B7E002B41
S3150801530801D1002315E0FB79FA6813445B7E012B6A
S3150801531809D1FB79FA6813449B7F002B01D1012334
S3150801532807E0002305E0FB681B7A1A46054B134478
S315080153381B7C18461437BD465DF8047B704700BFC9
S31508015348B42F0020346B020880B400AF034BD3F89E
S31508015358C4301846BD465DF8047B7047B42F002053
S31508015368DFF85CD0FFF750FA16481749174A0023A1
S3150801537802E0D458C4500433C4188C42F9D31448EB
S315080153881449154A002302E0D458C4500433C418F2
S315080153988C42F9D3114A124C002301E013600432F6
S315080153A8A242FBD30F4A104C002301E013600432D2
S315080153B8A242FBD311F0B2F9FEF77AFC7047000056
S315080153C80000022000000020E4010020186C0208F1
S315080153D80000001000000010FC6D0208E40100201E
S315080153E8D84300200000001000000110FEE7000065
S315080153F880B500AF0E4B1B680D4A43F40073136062
S315080154080B4B1B680A4A43F480631360084B1B68F5
S31508015418074A43F480731360032000F03BF9002020
S3150801542800F008F8FEF78EFF0023184680BD00BF76
S31508015438003C024080B582B000AF7860124B1A680A
S31508015448124B1B7819464FF47A73B3FBF1F3B2FB87
S31508015458F3F3184600F053F90346002B01D001234C
S315080154680EE07B680F2B0AD8002279684FF0FF30C7
S3150801547800F01BF9064A7B681360002300E0012344
S3150801548818460837BD4680BD0000002008000020E0
S315080154980400002080B400AF034B1B681846BD46BC
S315080154A85DF8047B704700BF7C30002080B584B066
S315080154B800AF7860FFF7EEFFB8607B68FB60FB68B2
S315080154C8B3F1FF3F05D00A4B1B781A46FB6813440C
S315080154D8FB6000BFFFF7DEFF0246BB68D31AFA680E
S315080154E89A42F7D800BF00BF1037BD4680BD00BF36
S315080154F80800002080B485B000AF78607B6803F0A7
S315080155080703FB600C4BDB68BB60BA684FF6FF0301
S315080155181340BB60FB681A02BB68134343F0BF63B9
S3150801552843F40033BB60044ABB68D36000BF143731
S31508015538BD465DF8047B704700ED00E080B400AF16
S31508015548044BDB681B0A03F007031846BD465DF8DA
S31508015558047B704700ED00E080B483B000AF0346D2
S31508015568FB7197F90730002B0BDBFB7903F01F0258
S31508015578074997F907305B09012000FA02F241F851
S31508015588232000BF0C37BD465DF8047B704700BF72
S3150801559800E100E080B483B000AF03463960FB71CF
S315080155A897F90730002B0ADB3B68DAB20C4997F9F9
S315080155B807301201D2B20B4483F800230AE03B688C
S315080155C8DAB20849FB7903F00F03043B1201D2B298
S315080155D80B441A7600BF0C37BD465DF8047B704745
S315080155E800E100E000ED00E080B489B000AFF860A2
S315080155F8B9607A60FB6803F00703FB61FB69C3F1CD
S315080156080703042B28BF0423BB61FB690433062B54
S3150801561802D9FB69033B00E000237B614FF0FF32A7
S31508015628BB6902FA03F3DA43BB681A407B699A40F5
S315080156384FF0FF317B6901FA03F3D9437B680B40C5
S31508015648134318462437BD465DF8047B70470000A6
S3150801565880B582B000AF78607B68013BB3F1807F83
S3150801566801D301230FE00A4A7B68013B53600F21E6
S315080156784FF0FF30FFF78EFF054B00229A60044B67
S3150801568807221A60002318460837BD4680BD00BFA1
S3150801569810E000E080B582B000AF78607868FFF75F
S315080156A829FF00BF0837BD4680BD80B586B000AF63
S315080156B80346B9607A60FB7300237B61FFF73EFFF7
S315080156C878617A68B9687869FFF78EFF024697F9AB
S315080156D80F3011461846FFF75DFF00BF1837BD465C
S315080156E880BD80B582B000AF0346FB7197F90730D4
S315080156F81846FFF731FF00BF0837BD4680BD80B59C
