S0110000584D494449365553422E7372656378
S3150801020000000220F55101080D45010815450108B0
S315080102101D450108254501082D4501080000000076
S31508010220000000000000000000000000354501083C
S315080102304345010800000000514501085F450108D2
S31508010240815201088152010881520108815201082F
S31508010250815201088152010881520108815201081F
S31508010260815201088152010881520108815201080F
S3150801027081520108815201088152010881520108FF
S3150801028081520108815201088152010881520108EF
S3150801029081520108815201088152010881520108DF
S315080102A081520108815201088152010881520108CF
S315080102B081520108714501088152010881520108DC
S315080102C081520108815201088152010881520108AF
S315080102D08152010889450108A9450108C94501084E
S315080102E0815201088152010881520108815201088F
S315080102F0815201088152010881520108815201087F
S31508010300815201088152010881520108815201086E
S31508010310815201088152010881520108815201085E
S31508010320815201088152010881520108815201084E
S31508010330815201088152010881520108815201083E
S31508010340815201088152010881520108E9450108D3
S31508010350815201088152010881520108FD450108AF
S31508010360815201088152010881520108815201080E
S31508010370815201081D46010881520108000000004A
S30D080103808152010881520108AE
S3150801038810B5054C237833B9044B13B10448AFF3B8
S3150801039800800123237010BDE4010020000000003D
S315080103A8AC66020808B5034B1BB103490348AFF30A
S315080103B8008008BD00000000E8010020AC660208BC
S315080103C853B94AB9002908BF00281CBF4FF0FF31A5
S315080103D84FF0FF3000F088B9ADF1080C6DE904CE8D
S315080103E800F006F8DDF804E0DDE9022304B07047F9
S315080103F82DE9F047089D8E4604468846002B4AD1C2
S315080104088A42174662D9B2FA82F64EB1C6F1200374
S3150801041801FA06F820FA03F3B74043EA0808B44094
S315080104284FEA174E1FFA87FCB8FBFEF1230C0EFBA1
S31508010438118843EA084301FB0CF29A4209D9FB18C9
S3150801044801F1FF3080F0EA809A4240F2E7800239EA
S315080104583B449A1AA3B2B2FBFEF00EFB102243EAFA
S31508010468024300FB0CFC9C4509D9FB1800F1FF3235
S3150801047880F0D6809C4540F2D3803B44023840EA56
S315080104880140A3EB0C0300211DB1F3400022C5E985
S315080104980032BDE8F0878B4205D90DB1C5E90001DF
S315080104A800210846F5E7B3FA83F1002946D17345D1
S315080104B802D3824200F20581841A6EEB03020120F7
S315080104C89046002DE5D0C5E90048E2E7002A00F084
S315080104D89080B2FA82F6002E40F0A4808A1A030C9C
S315080104E84FEA174E80B2BCB20121B2FBFEFC0EFBE5
S315080104F81C2243EA024304FB0CF29A4207D9FB1869
S315080105080CF1FF3802D29A4200F2E080C4469B1ADF
S31508010518B3FBFEF20EFB123340EA034302FB04F473
S315080105289C4207D9FB1802F1FF3002D29C4200F21D
S31508010538CA8002461B1B42EA0C40A5E7C1F1200600
S315080105488B4022FA06F71F430EFA01F420FA06F33E
S315080105582EFA06FE4FEA1749234300FA01F81FFA4D
S3150801056887FCBEFBF9F01C0C09FB10EE44EA0E44A5
S3150801057800FB0CFEA64502FA01F209D93C1900F15D
S31508010588FF3A80F09C80A64540F2998002383C449F
S31508010598A4EB0E041FFA83FEB4FBF9F309FB134413
S315080105A84EEA044403FB0CFCA44508D93C1903F19B
S315080105B8FF3E80F08280A4457FD9023B3C4443EA4A
S315080105C80040A4EB0C04A0FB02EC64457346E14623
S315080105D862D35FD05DB1B8EB030264EB090404FA90
S315080105E806F622FA01F31E43CC40C5E90064002148
S315080105F84FE7B1FBF2FC010C41EA0E4180B240EA31
S3150801060801423B4638463C46B846BE462026B1FB1B
S31508010618F7F1A2EB080241EA0C4166E7014618E739
S3150801062810462CE7C6F120022EFA02F3B740B1406C
S3150801063820FA02F24FEA174E0A43B3FBFEF8BCB298
S315080106480EFB1833110C41EA034108FB04F9B040C3
S3150801065889454FEA104380B23ED9791808F1FF3C1B
S3150801066801D289451FD8A1EB0901B1FBFEF909FB9E
S3150801067804F80EFB191192B242EA0142424529D2FF
S31508010688BA1809F1FF31C4D24245C2D2A9F1020109
S315080106983A44BEE7F0459DD2BEEB02036CEB070C64
S315080106A80138E14696E7A7EB09094944A8F1020C7E
S315080106B8B1FBFEF909FB04F8DBE773467FE7504609
S315080106C866E70846FDE63B44023A33E7ACF1020C15
S315080106D83B441CE749469CE7A1EB0901C446B1FB23
S315080106E8FEF909FB04F8C4E7704700BF80B400AFF8
S315080106F8BFF34F8F00BF064BDB6803F4E06204497A
S31508010708044B1343CB60BFF34F8F00BF00BFFDE710
S3150801071800ED00E00400FA0580B485B000AF034691
S31508010728FB710223FB60FB7903F0F003F02B0CD075
S31508010738FB7903F0F003C02B01D0D02B02D101239A
S31508010748FB6038E00223FB6035E0FB79F13B0E2BB1
S315080107588CBF01220022D2B2002A29D1012202FA2B
S3150801076803F346F6A0621A40002A14BF01220022A2
S31508010778D2B2002A15D141F218121A40002A14BF1A
S3150801078801220022D2B2002A0ED103F00503002B5A
S3150801079814BF01230023DBB2002B09D00123FB6018
S315080107A809E00023FB6006E04FF0FF33FB6002E037
S315080107B80223FB6000BFFB6818461437BD465DF87F
S315080107C8047B704780B400AF20231846BD465DF800
S315080107D8047B704780B483B000AF054B7B607B68A8
S315080107E81E225A6100BF0C37BD465DF8047B704767
S315080107F8101B002080B483B000AF0D4B7B607B686B
S3150801080893F81932022B03D17B681E225A6108E034
S315080108187B685B69002B04D07B685B695A1E7B6819
S315080108285A6100BF0C37BD465DF8047B704700BFA7
S31508010838101B002080B485B000AF78600023FB60E8
S3150801084802E0FB680133FB607B685A1C7A601B78F7
S31508010858F72BF6D1FB680133FB60FB68184614379A
S31508010868BD465DF8047B704780B485B000AF7860F3
S315080108780023FB6002E0FB680133FB607B685A1CB6
S315080108887A601B78F72BF6D1FB68013B18461437B3
S31508010898BD465DF8047B704780B584B000AF7860C3
S315080108A87868FFF7E1FFF860FB68043BFB60FB68C3
S315080108B80133FB60FB68033BFB60FB68184610378E
S315080108C8BD4680BD80B485B000AF78607B681B786B
S315080108D85BB21B015AB27B6801331B785BB21343BF
S315080108E85BB2FB737B6802331B785BB21B015AB296
S315080108F87B6803331B785BB213435BB2BB73BB7B61
S315080109081BB21B021AB2FB7B1BB213431BB29BB267
S3150801091818461437BD465DF8047B704780B485B020
S3150801092800AF78600023FB600EE0FB687A68134421
S315080109381A780A49FB680B441B789A4201D00023A6
S3150801094806E0FB680133FB60FB68032BEDD901233D
S3150801095818461437BD465DF8047B7047B468020823
S3150801096880B483B000AF78607B6804331B78184677
S315080109780C37BD465DF8047B704780B483B000AF79
S3150801098878607B6805331B7818460C37BD465DF8D1
S31508010998047B704780B483B000AF78607B68063300
S315080109A81B7818460C37BD465DF8047B704780B43A
S315080109B883B000AF78607B68DB7918460C37BD468B
S315080109C85DF8047B704780B485B000AF786007236B
S315080109D8FB60FB685A1CFA601A467B6813441B7845
S315080109E803F00F03BB60BB681B01BB60FB685A1C9D
S315080109F8FA601A467B6813441B7803F00F03BA6832
S31508010A081343BB60BB681B01BB60FB685A1CFA60D1
S31508010A181A467B6813441B7803F00F03BA68134315
S31508010A28BB60BB681B01BB60FB685A1CFA601A46A7
S31508010A387B6813441B7803F00F03BA681343BB603A
S31508010A48BB689BB218461437BD465DF8047B7047E8
S31508010A5880B483B000AF78607B6807331B78184683
S31508010A680C37BD465DF8047B704780B582B000AF88
S31508010A7802F0F6FE78607B681B680B20984700BF72
S31508010A880837BD4680BD80B582B000AF02F0E8FEE2
S31508010A9878607B681B680A20984700BF0837BD46F7
S31508010AA880BD000080B582B000AF78603960094A18
S31508010AB87B684FF4BC6101FB03F31A443B68104693
S31508010AC819464FF4BC631A4615F094FD00BF08375A
S31508010AD8BD4680BD0000001080B586B000AF02F0A3
S31508010AE8BFFEF860FFF76EFEB8601C4B7B601C4BB7
S31508010AF83B61FFF7BAFF00237B6113E0FB689B683C
S31508010B0838697A694FF4BC6101FB02F21549114447
S31508010B184FF4BC6298473B6903F5BC633B617B6943
S31508010B2801337B617A69BB689A42E7DB7B6893F88C
S31508010B38183218467B680B494FF4BC6200FB02F26F
S31508010B480A4403F5077311464FF4BC62184615F0B3
S31508010B5851FD00BF1837BD4680BD00BF101B0020D8
S31508010B6800000E080000001080B582B000AF02F040
S31508010B7877FE7860FFF787FF7B689B68042203493D
S31508010B880348984700BF0837BD4680BD1025002091
S31508010B9800000C0880B500AFFFF79EFF00BF80BDB7
S31508010BA890B587B000AF00237B61B8E000233B61AD
S31508010BB83CE060493A697B69B22000FB02F24FF4CE
S31508010BC8BC6000FB03F313440B445B4A1846114601
S31508010BD8B2231A4615F00EFD56493A697B69B220C1
S31508010BE800FB02F24FF4BC6000FB03F313440B4409
S31508010BF803F53273504A18461146B2231A4615F0B8
S31508010C08F9FC4C497B695E2203FB02F23B691344F2
S31508010C1859331B011944494A3B691B0113440C46BC
S31508010C280FCB84E80F003B6901333B613B69032B12
S31508010C38BFDD434BBB6000237B600FE03D4A7B6900
S31508010C484FF4BC6101FB03F31A447B68134403F5AB
S31508010C58BA6320221A707B6801337B607B680F2B85
S31508010C68ECDD0023FB6017E0BB685A1CBA601878EC
S31508010C78304A7B694FF4BC6101FB03F31A44FB68EC
S31508010C88134403F5BA6302461A70BB681B78002B2E
S31508010C9806D0FB680133FB60FB680F2BE4DD00E037
S31508010CA800BF7B690133274A82FB03129210DB17BF
S31508010CB8D31ADBB2FA680132FA603033D8B21D4A60
S31508010CC87B694FF4BC6101FB03F31A44FB681344BF
S31508010CD803F5BA6302461A707B695A1C194B83FBDA
S31508010CE802139910D317C91A0B469B000B445B00CC
S31508010CF8D11ACBB2FA680132FA603033D8B20D4A42
S31508010D087B694FF4BC6101FB03F31A44FB6813447E
S31508010D1803F5BA6302461A707B6901337B617B69FD
S31508010D281F2B7FF743AFFFF7D7FE00BF1C37BD461A
S31508010D3890BD00BF00000010C06702087468020869
S31508010D48C46602086766666680B500AF074B032264
S31508010D581A70064B7F225A70044B7F229A70034BEE
S31508010D685522DA70FFF700FF00BF80BD1025002065
S31508010D7880B586B000AF4C4BBB60BB681B68002BBF
S31508010D8826D100237B610EE0484A7B6952F8230085
S31508010D98474A7B6932F813300122194605F01CF9CE
S31508010DA87B6901337B617B69032BEDDDBB685B6876
S31508010DB83E4A52F82300BB685B683D4A32F813304D
S31508010DC80022194605F008F9BB6801221A6067E08E
S31508010DD8384B7B60384B1B69DB431B0ADAB2BB68A5
S31508010DE85B6802F03F02D1B2BA6813440A461A721E
S31508010DF8BB685B685A1CBB685A60BB685B685A4221
S31508010E0803F0030302F0030258BF5342BA6853605A
S31508010E18BB6800221A601021284805F0C5F8034660
S31508010E28012B0CD17B6893F81932022B38D07B68D1
S31508010E38022283F819220A2001F0D4F830E00023A7
S31508010E48FB6000233B610CE0BA683B69134408332D
S31508010E581B78002B02D0FB680133FB603B69013321
S31508010E683B613B69032BEFDDFB68002B0CD17B68E3
S31508010E7893F81932012B13D07B68012283F81922BA
S31508010E880A2001F0AFF80BE07B6893F81932002BBA
S31508010E9806D07B68002283F819220A2001F0A2F8F5
S31508010EA800BF1837BD4680BD041B002064670208C9
S31508010EB87C670208101B002000100240000002404F
S31508010EC880B483B000AF7860054A7B681344083359
S31508010ED81B7818460C37BD465DF8047B704700BF7A
S31508010EE8041B002080B584B000AF786003F0CEFDFE
S31508010EF8F860FB68DB6B7A68D2B2104698470346F6
S31508010F08002B06D1FB689B6B7A68D2B20A21104678
S31508010F18984700BF1037BD4680BD80B582B000AF7F
S31508010F2803F0B4FD786008233B607B68DB6B3A689D
S31508010F38D2B2104698470346002B06D17B689B6BAD
S31508010F483A68D2B20A211046984700BF0837BD4603
S31508010F5880BD80B584B000AF786003F097FDF8606E
S31508010F68FB68DB6B7A68D2B20432D2B2104698476C
S31508010F780346002B08D1FB689B6B7A68D2B2043208
S31508010F88D2B20A211046984700BF1037BD4680BD20
S31508010F9880B582B000AF03F079FD786009233B601C
S31508010FA87B68DB6B3A68D2B2104698470346002B32
S31508010FB806D17B689B6B3A68D2B20A2110469847D4
S31508010FC800BF0837BD4680BD80B588B000AF03F0BD
S31508010FD85DFD3861424BFB600523BB6008237B60D6
S31508010FE80023BB6100237B610023FB6114E03B6995
S31508010FF81B6CFA69D2B21046984703461A46BB686B
S31508011008934206DC0122FB6902FA03F3BA69134320
S31508011018BB61FB690133FB61FB69032BE7DD002330
S31508011028FB6116E03B691B6CFA69D2B20432D2B28B
S315080110381046984703461A46BB68934206DC0122BE
S31508011048FB6902FA03F37A6913437B61FB69013386
S31508011058FB61FB69032BE5DDFB681B78002B20D0B8
S315080110683B691B6C7A68D2B21046984703461A46FA
S31508011078BB68934203DCBB6943F04003BB613B6928
S315080110881B6C7A68D2B20132D2B210469847034627
S315080110981A46BB6893420CDC7B6943F040037B61C3
S315080110A807E0BB6943F04003BB617B6943F0400332
S315080110B87B61BB69DB431B0403F47F02BB691A43E3
S315080110C8FB68DA607B69DB431B0403F47F027B69EF
S315080110D81A43FB681A6100BF2037BD4680BD00BFA9
S315080110E8101B002080B485B000AF78600023FB6030
S315080110F802E0FB680133FB607B685A1C7A601B783F
S31508011108F72BF6D1FB680133FB60FB6818461437E1
S31508011118BD465DF8047B704780B588B000AFF860B6
S31508011128B9607A60FB70FA6813465B0113441B01C0
S31508011138984A1344BB61984AFB6852F823307B6185
S3150801114800BF7B691B6803F08003002BF9D0934B1A
S3150801115893F81932012B40F03581FB78002B40F0C2
S31508011168E580BB681B785BB2002B5FDABB681B7826
S3150801117803F0F003F02B13D0BB69012283F80E2282
S31508011188BB681A78BB6983F80D22BB681B781846B1
S31508011198FFF7C2FA0346DAB2BB6983F80C2283E081
S315080111A8BB681B78F02B09D1BB69012283F80E228B
S315080111B8BB681A78BB6983F80D2275E0BB681B788A
S315080111C8F72B04D1BB69002283F80E226CE0BB68B1
S315080111D81B781846FFF7A0FA0346002B09D1BB6806
S315080111E81B78FE2B60D1BB6993F80E32002B5BD0B6
S315080111F8F6E0BB681B781846FFF78EFA0346B3F183
S31508011208FF3F51D0BB69012283F80E22BB681A78C1
S31508011218BB6983F80D22BB681B781846FFF77CFA69
S315080112280346DAB2BB6983F80C223DE0BB6993F839
S315080112380C32013BDAB2BB6983F80C22BB6993F815
S315080112480E3283F00103DBB2002B14D0BB695B684D
S31508011258591CBA695160BA6992F80D12BA691344E8
S315080112680A461A72BB695B68DAB2BB695A60BB6916
S31508011278012283F80E22BB6993F80D32F02B13D09D
S31508011288BB6993F80C32002B0ED1BB69002283F88F
S315080112980E22BB6993F80D321846FFF73DFA034645
S315080112A8DAB2BB6983F80C22BB695B68591CBA694F
S315080112B85160BA681178BA6913440A461A72BB6941
S315080112C85B68DAB2BB695A60BB6993F80E3283F078
S315080112D80103DBB2002B7AD0BB69D3F80831002B9E
S315080112E875D00023FB6116E0BB695B68591CBA69AE
S315080112F85160B969FA690A4402F586721178BA69B8
S3150801130813440A461A72BB695B68DAB2BB695A6042
S31508011318FB690133FB61BB69D3F80831FA699A425B
S31508011328E2DBBB690022C3F8082150E0BB6993F8E0
S315080113380E32002B28D00FE0BA68531CBB60BB6974
S31508011348D3F80831581CB969C1F808011178BA697E
S3150801135813440A4683F80C217B685A1E7A60002BC7
S31508011368EAD134E0BA68531CBB60BB695B68581C90
S31508011378B96948601178BA6913440A461A72BB6989
S315080113885B68DAB2BB695A607B685A1E7A60002BB9
S31508011398E8D11CE0B40A002088670208101B00205F
S315080113A8BA68531CBB60BB695B68581CB969486055
S315080113B81178BA6913440A461A72BB695B68DAB2C4
S315080113C8BB695A607B685A1E7A60002BE8D17B692B
S315080113D8DB6843F080027B69DA60F868FFF7B9FDD4
S315080113E82037BD4680BD00BF80B58EB000AFF86016
S315080113F8B9607A60FB70794BFB61FB691B78002B36
S3150801140800F0E880FB6918337B6303F03FFBB8619A
S31508011418BB681B78F02B40F09580B868FFF762FE29
S3150801142878617B696E4A82FB0312DB17D31A3B6321
S315080114387A696B4B83FB0231D317C91A0B465B00D2
S315080114480B44D31AFB623B6B9B003B62FB6A002B7E
S3150801145805D13B6B013B3B630323FB6202E03B6A15
S3150801146804333B620023BB621FE0FB685BB21B01C6
S315080114785BB243F0040359B27B6B5A1C7A63CAB24E
S315080114881A7000237B620AE0BA68531CBB607B6B3F
S31508011498591C796312781A707B6A01337B627B6AF5
S315080114A8022BF1DDBB6A0133BB62BA6A3B6B9A420E
S315080114B8DBDBFB685BB21B015AB2FB6ADBB204339E
S315080114C8DBB25BB2134359B27B6B5A1C7A63CAB255
S315080114D81A700023BB620AE0BA68531CBB607B6BAF
S315080114E8591C796312781A70BB6A0133BB62BA6AE6
S315080114F8FB6A9A42F0DBBB695B69012098470FE0F2
S31508011508BB699B6998470346002B09D0FB690022EA
S315080115181A7001224FF40051324804F05DFD05E0C6
S3150801152831480DF011F90346002BE9D1FB69183347
S315080115383A6A92B219462C480DF014F9FB69052244
S315080115485A6042E0FB685BB21B015AB2BB681B785A
S315080115581B09DBB25BB2134359B27B6B5A1C7A631C
S31508011568CAB21A7007E0BA68531CBB607B6B591C70
S31508011578796312781A707B685A1E7A60002BF2D141
S31508011588BB695B69012098470FE0BB699B69984766
S315080115980346002B09D0FB6900221A7001224FF471
S315080115A80051104804F018FD05E00F480DF0CCF875
S315080115B80346002BE9D1FB691833042219460A4860
S315080115C80DF0D0F8FB6905225A60FB78002B01D08B
S315080115D8FFF7DEFC00BF3837BD4680BD101B00206B
S315080115E856555555000C0240C02C002080B485B0CC
S315080115F800AF78607B681B68FB607B6804331B68EF
S3150801160823F07F4323F47023BB60FB680A4A93429D
S3150801161803D0FB68094A934206D1BB6841F2120214
S31508011628934201D1012300E0002318461437BD4629
S315080116385DF8047B704700BFF0411045F041104240
S3150801164880B487B000AF786039607B681B7803F08F
S315080116580F037B617B681B7803F0F003F02B0CD131
S315080116683B681B881A467B6942FA03F303F00103B0
S31508011678002B40F0EF820123EDE27B681B7803F02B
S31508011688F003E02B00F0CF82E02B00F3E382D02BA6
S3150801169800F0BD82D02B00F3DD82C02B00F0AB82AF
S315080116A8C02B00F3D782B02B33D0B02B00F3D282EC
S315080116B8A02B21D0A02B00F3CD82802B02D0902B12
S315080116C80DD0C7E23B689B881A467B6942FA03F341
S315080116D803F00103002B40F0B2820123BBE23B6809
S315080116E8DB881A467B6942FA03F303F00103002BE8
S315080116F840F0A7820123AEE23B681B891A467B693B
S3150801170842FA03F303F00103002B40F09C820123FC
S31508011718A1E27B6801331B78772B00F2E1813B68EC
S315080117285B891A467B6942FA03F303F00103002B26
S3150801173801D101238FE27B685B78FB743B688233AE
S31508011748FB60FB7C5D2B00F2C98101A252F823F0EC
S3150801175895190108D1180108E51A0108E51A0108B9
S31508011768E51A01083D1A0108E51A0108ED180108E4
S31508011778E51A0108E51A01082519010809190108D0
S31508011788E51A0108E51A0108E51A0108E51A010822
S31508011798E51A0108E51A0108E51A0108E51A010812
S315080117A8E51A0108E51A0108E51A0108E51A010802
S315080117B8E51A0108E51A0108E51A0108E51A0108F2
S315080117C8E51A0108E51A0108E51A0108E51A0108E2
S315080117D895190108E51A0108E51A0108E51A010823
S315080117E8E51A0108E51A0108E51A0108E51A0108C2
S315080117F8E51A0108E51A0108E51A0108E51A0108B2
S31508011808E51A0108E51A0108E51A0108E51A0108A1
S31508011818E51A0108E51A0108E51A0108E51A010891
S31508011828E51A0108E51A0108E51A0108E51A010881
S31508011838E51A0108E51A0108E51A0108E51A010871
S31508011848E51A0108E51A0108E51A0108E51A010861
S3150801185841190108E51A01085D19010879190108EC
S31508011868E51A0108E51A0108E51A0108CD1901085A
S31508011878911A0108591A0108B1190108751A0108B6
S31508011888E9190108051A0108211A0108E51A0108C2
S31508011898E51A0108E51A0108E51A0108E51A010811
S315080118A8E51A0108E51A0108E51A0108E51A010801
S315080118B8E51A0108E51A0108E51A0108C91A01080D
S315080118C8E51A0108AD1A0108FB681B881A467B69DF
S315080118D842FA03F303F00103002B0CBF012300238B
S315080118E8DBB2B8E1FB685B881A467B6942FA03F3FF
S315080118F803F00103002B0CBF01230023DBB2AAE185
S31508011908FB689B881A467B6942FA03F303F00103CD
S31508011918002B0CBF01230023DBB29CE1FB68DB88A3
S315080119281A467B6942FA03F303F00103002B0CBF3D
S3150801193801230023DBB28EE1FB681B891A467B6902
S3150801194842FA03F303F00103002B0CBF012300231A
S31508011958DBB280E1FB685B891A467B6942FA03F3C5
S3150801196803F00103002B0CBF01230023DBB272E14C
S31508011978FB689B891A467B6942FA03F303F001035C
S31508011988002B0CBF01230023DBB264E1FB68DB896A
S315080119981A467B6942FA03F303F00103002B0CBFCD
S315080119A801230023DBB256E1FB681B8A1A467B69C9
S315080119B842FA03F303F00103002B0CBF01230023AA
S315080119C8DBB248E1FB685B8A1A467B6942FA03F38C
S315080119D803F00103002B0CBF01230023DBB23AE114
S315080119E8FB689B8A1A467B6942FA03F303F00103EB
S315080119F8002B0CBF01230023DBB22CE1FB68DB8A31
S31508011A081A467B6942FA03F303F00103002B0CBF5C
S31508011A1801230023DBB21EE1FB681B8B1A467B698F
S31508011A2842FA03F303F00103002B0CBF0123002339
S31508011A38DBB210E1FB685B8B1A467B6942FA03F352
S31508011A4803F00103002B0CBF01230023DBB202E1DB
S31508011A58FB689B8B1A467B6942FA03F303F0010379
S31508011A68002B0CBF01230023DBB2F4E0FB68DB8BF8
S31508011A781A467B6942FA03F303F00103002B0CBFEC
S31508011A8801230023DBB2E6E0FB681B8C1A467B6957
S31508011A9842FA03F303F00103002B0CBF01230023C9
S31508011AA8DBB2D8E0FB685B8C1A467B6942FA03F31A
S31508011AB803F00103002B0CBF01230023DBB2CAE0A4
S31508011AC8FB689B8C1A467B6942FA03F303F0010308
S31508011AD8002B0CBF01230023DBB2BCE00023BAE0CC
S31508011AE87B6801331B78783B072B73D801A252F818
S31508011AF823F000BF1D1B0108351B01084D1B0108F2
S31508011B08651B01087D1B0108951B0108AD1B01080A
S31508011B18C51B01083B685B8A1A467B6942FA03F3C7
S31508011B2803F00103002B57D1012394E03B689B8AF4
S31508011B381A467B6942FA03F303F00103002B4DD1D8
S31508011B48012388E03B68DB8A1A467B6942FA03F374
S31508011B5803F00103002B43D101237CE03B681B8B6F
S31508011B681A467B6942FA03F303F00103002B39D1BC
S31508011B78012370E03B685B8B1A467B6942FA03F3DB
S31508011B8803F00103002B2FD1012364E03B689B8BEB
S31508011B981A467B6942FA03F303F00103002B25D1A0
S31508011BA8012358E03B68DB8B1A467B6942FA03F343
S31508011BB803F00103002B1BD101234CE03B681B8C66
S31508011BC81A467B6942FA03F303F00103002B11D184
S31508011BD8012340E000BF0EE000BF0CE000BF0AE0A9
S31508011BE800BF08E000BF06E000BF04E000BF02E04E
S31508011BF800BF00E000BF3B689B891A467B6942FA29
S31508011C0803F303F00103002B1FD1012323E03B68EB
S31508011C18DB891A467B6942FA03F303F00103002BB1
S31508011C2815D1012317E03B681B8A1A467B6942FAD4
S31508011C3803F303F00103002B0BD101230BE000BFCB
S31508011C4808E000BF06E000BF04E000BF02E000BFED
S31508011C5800E000BF002318461C37BD465DF8047B23
S31508011C68704700BF80B582B000AF354B7B60002353
S31508011C783B603B685A1C3A60F0217A6813440A4665
S31508011C8883F8FC273B685A1C3A6055217A6813443D
S31508011C980A4683F8FC273B685A1C3A6054217A6835
S31508011CA813440A4683F8FC273B685A1C3A605321B1
S31508011CB87A6813440A4683F8FC273B685A1C3A6033
S31508011CC87A681344002283F8FC273B685A1C3A6051
S31508011CD87A681344072283F8FC273B685A1C3A603A
S31508011CE87A681344042283F8FC273B685A1C3A602D
S31508011CF87A6892F818127A6813440A4683F8FC2710
S31508011D08FEF760FD01463B685A1C3A60C9B27A6813
S31508011D1813440A4683F8FC273B685A1C3A607A68D2
S31508011D281344F72283F8FC277B6803F2FC71012325
S31508011D383A680420FFF758FB00BF0837BD4680BD3F
S31508011D48101B002090B587B000AF78607868FEF759
S31508011D5807FE0346FB75114B3B610723FB60FB7DB9
S31508011D68062B07D1FB6804333A691344F72283F82B
S31508011D78FC2700E000BF3B6903F2FC743B6903F2E8
S31508011D88FC731846FEF756FD024601232146042030
S31508011D98FFF72AFB00BF1C37BD4690BD101B002064
S31508011DA880B588B000AF03463960FB718C4BFB6080
S31508011DB80023BB61BB695A1CBA61F021FA6813444E
S31508011DC80A4683F8FC27BB695A1CBA615521FA6881
S31508011DD813440A4683F8FC27BB695A1CBA6154217D
S31508011DE8FA6813440A4683F8FC27BB695A1CBA6180
S31508011DF85321FA6813440A4683F8FC27BB695A1C17
S31508011E08BA61FA681344002283F8FC27BB695A1C8D
S31508011E18BA61FA681344FA7983F8FC27BB695A1C2C
S31508011E28BA613A68D1B2FA6813440A4683F8FC27B4
S31508011E38FB790D2B00F29A8001A252F823F000BF14
S31508011E481D1F0108811E0108E91E0108B51E0108A2
S31508011E58CF1E01089B1E0108031F0108751F0108EB
S31508011E68671F0108751F0108751F0108751F0108F5
S31508011E78331F01084D1F01083B68B22202FB03F311
S31508011E8803F50673FA6813440433FB6122233B619D
S31508011E986DE03B68B22202FB03F303F59C63FA681B
S31508011EA813440433FB6122233B6160E03B68B22299
S31508011EB802FB03F303F50E73FA6813440633FB6151
S31508011EC820233B6153E03B68B22202FB03F303F587
S31508011ED8A063FA6813440633FB6120233B6146E095
S31508011EE83B68B22202FB03F303F51673FA68134437
S31508011EF80633FB6140233B6139E03B68B22202FBAA
S31508011F0803F303F5A463FA6813440633FB61402314
S31508011F183B612CE03B681B0103F5F563FA6813443A
S31508011F280433FB6110233B6121E03B68B22202FBC3
S31508011F3803F303F52673FA6813440633FB61302362
S31508011F483B6114E03B68B22202FB03F303F5AC6379
S31508011F58FA6813440633FB6130233B6107E0FB68E3
S31508011F6803F2EC73FB6110233B6100E000BF002319
S31508011F787B611DE0FB691A78BB69591CB9611209AD
S31508011F88D1B2FA6813440A4683F8FC27FB695A1C36
S31508011F98FA611A78BB69591CB96102F00F02D1B204
S31508011FA8FA6813440A4683F8FC277B6901337B617F
S31508011FB87A693B699A42DDDBBB695A1CBA61FA68D8
S31508011FC81344F72283F8FC27FB6803F2FC71012303
S31508011FD8BA690420FFF708FA00BF2037BD4680BD55
S31508011FE8101B002080B584B000AF7860304BFB60C9
S31508011FF80023BB60BB685A1CBA60F021FA6813440F
S315080120080A4683F8FC27BB685A1CBA605521FA6840
S3150801201813440A4683F8FC27BB685A1CBA6054213C
S31508012028FA6813440A4683F8FC27BB685A1CBA603F
S315080120385321FA6813440A4683F8FC27BB685A1CD5
S31508012048BA607A68D1B2FA6813440A4683F8FC2753
S31508012058BB685A1CBA60FA681344102283F8FC272D
S31508012068BB685A1CBA60FA681344042283F8FC2729
S31508012078BB685A1CBA60FA6892F81912FA681344C6
S315080120880A4683F8FC27BB685A1CBA60FA681344DF
S31508012098F72283F8FC27FB6803F2FC710123BA6867
S315080120A80420FFF7A1F900BF1037BD4680BD00BF60
S315080120B8101B002080B584B000AF384B3B60002365
S315080120C8FB60374BBB60FB685A1CFA60F0213A681B
S315080120D813440A4683F8FC27FB685A1CFA605521FB
S315080120E83A6813440A4683F8FC27FB685A1CFA60BF
S315080120F854213A6813440A4683F8FC27FB685A1C94
S31508012108FA6053213A6813440A4683F8FC27FB68A0
S315080121185A1CFA603A681344002283F8FC27FB68BC
S315080121285A1CFA603A681344092283F8FC27FB68A3
S315080121385A1CFA603A681344042283F8FC270023D8
S315080121487B6012E0BA68531CBB60FB68591CF960CE
S3150801215811783A6813440A4683F8FC27BB681B7842
S31508012168002B06D07B6801337B607B680C2BE9DD85
S3150801217800E000BFFB685A1CFA603A681344F72264
S3150801218883F8FC273B6803F2FC710123FA680420EB
S31508012198FFF72AF900BF1037BD4680BD101B00207E
S315080121A80000010880B584B000AF374B3B600023B7
S315080121B8BB60BB685A1CBA60F0213A6813440A46E0
S315080121C883F8FC27BB685A1CBA6055213A68134438
S315080121D80A4683F8FC27BB685A1CBA6054213A6830
S315080121E813440A4683F8FC27BB685A1CBA6053216C
S315080121F83A6813440A4683F8FC27BB685A1CBA602E
S315080122083A681344002283F8FC27BB685A1CBA604B
S315080122183A6813440E2283F8FC27BB685A1CBA602D
S315080122283A681344042283F8FC27184BFB600023F9
S315080122387B6011E0FB685A1CFA601A78BB68591C5E
S31508012248B96002F07F02D1B23A6813440A4683F8A4
S31508012258FC277B6801337B607B68032BEAD9BB685B
S315080122685A1CBA603A681344F72283F8FC273B6874
S3150801227803F2FC710123BA680420FFF7B5F800BF19
S315080122881037BD4680BD00BF101B00201025002051
S3150801229880B586B000AF7860584BBB6000233B61B8
S315080122A83B695A1C3A61F021BA6813440A4683F80D
S315080122B8FC273B695A1C3A615521BA6813440A46F0
S315080122C883F8FC273B695A1C3A615421BA681344B6
S315080122D80A4683F8FC273B695A1C3A615321BA68AE
S315080122E813440A4683F8FC273B695A1C3A61BA68BB
S315080122F81344052283F8FC273B695A1C3A61BA68D4
S3150801230813440B2283F8FC273B695A1C3A61BA68BD
S315080123181344042283F8FC277B6819133B695A1C62
S315080123283A61C9B2BA6813440A4683F8FC277B6836
S315080123381B12DAB23B69591C396102F00F02D1B294
S31508012348BA6813440A4683F8FC277B681B11DAB274
S315080123583B69591C396102F00F02D1B2BA681344B4
S315080123680A4683F8FC277B68DAB23B69591C396146
S3150801237802F00F02D1B2BA6813440A4683F8FC2759
S315080123887B689B011A461E4B13447B610023FB603D
S315080123981DE07B691A783B69591C39611209D1B262
S315080123A8BA6813440A4683F8FC277B695A1C7A617A
S315080123B81A783B69591C396102F00F02D1B2BA6819
S315080123C813440A4683F8FC27FB680133FB60FB685C
S315080123D83F2BDEDD3B695A1C3A61BA681344F7227A
S315080123E883F8FC27BB6803F2FC7101233A690420C8
S315080123F8FEF7FAFF00BF1837BD4680BD101B00203F
S315080124080000001080B588B000AF7860254B3B61A5
S315080124184023FB610723FB60FB68043303F5FF636D
S315080124283A6913440433BB617B689B011A461E4B00
S3150801243813447B611AE0BB695A1CBA611B7803F01D
S315080124480F03FB72FB7A1B01FB72BB695A1CBA6143
S315080124581B7803F00F035AB297F90B3013435BB293
S31508012468FB727B695A1C7A61FA7A1A70FB695A1ED9
S31508012478FA61002BDFD13B6993F8183218463B6994
S3150801248809494FF4BC6200FB02F20A4403F50773D3
S3150801249811464FF4BC62184614F0ACF800BF203751
S315080124A8BD4680BD101B00200000001090B589B0FC
S315080124B800AF03463960FB71564B3B613B6903F232
S315080124C8FC731846FEF7E8F9F8610723FB603B69D0
S315080124D803F2FC72FB6813447B61FB790D2B00F24E
S315080124E8808001A252F823F05525010867250108BD
S315080124F893250108292501083F2501087D25010895
S31508012508A9250108EB250108EB250108EB25010892
S31508012518EB250108EB250108BF250108D525010882
S315080125283B68B22202FB03F303F50E733A691344B7
S315080125380633BB6156E03B68B22202FB03F303F597
S31508012548A0633A6913440633BB614BE03B681B0138
S3150801255803F5F5633A6913440433BB6142E03B6802
S31508012568B22202FB03F303F506733A6913440433EB
S31508012578BB6137E03B68B22202FB03F303F59C63B0
S315080125883A6913440433BB612CE03B68B22202FB67
S3150801259803F303F516733A6913440633BB6121E05D
S315080125A83B68B22202FB03F303F5A4633A691344B1
S315080125B80633BB6116E03B68B22202FB03F303F557
S315080125C826733A6913440633BB610BE03B68B222AA
S315080125D802FB03F303F5AC633A6913440633BB619B
S315080125E800E000BF0DE0BC69A31CBB617869FEF772
S315080125F869F9034623807B6904337B61FB69043BDC
S31508012608FB61FB69002BEED100BF00BF2437BD462D
S3150801261890BD00BF101B002080B586B000AF134BD4
S31508012628BB60BB6803F2FC731846FEF735F9786197
S3150801263807237B60BB6803F2FC727B681344FB6063
S315080126480B4B3B6107E0FA68531CFB603B69591C55
S31508012658396112781A707B695A1E7A61002BF2D190
S3150801266800BF00BF1837BD4680BD00BF101B00203C
S315080126781025002080B586B000AF1B4BBB60BB6830
S3150801268803F2FC731846FEF707F9786107237B609E
S31508012698BB6803F2FC727B681344FB60BB6803F2F0
S315080126A8EC733B617B695B107B6113E0FB685A1C21
S315080126B8FA601B78FB70FB781B01FB70FB685A1CD8
S315080126C8FA601A78FB781343FB703B695A1C3A611E
S315080126D8FA781A707B695A1E7A61002BE6D100BF0F
S315080126E800BF1837BD4680BD101B002080B58AB0CB
S315080126F800AF78600B46FB70AB4BBB617B681B78F8
S31508012708F02B03D1BB690022C3F8FC2900237B629D
S3150801271812E07B6A7A681A44BB69D3F8FC39581CF3
S31508012728B969C1F8FC091178BA6913440A4683F8E4
S31508012738FC277B6A01337B62FB787A6A9A42E8DB73
S31508012748FB78013B7A6813441B78F72B40F04781DD
S31508012758BB6903F2FC731846FEF7E0F80346002B3B
S3150801276800F03D81BB6903F2FC731846FEF705F9CB
S315080127780346FB75BB6903F2FC731846FEF7F0F8C6
S315080127880346BB75BB6903F2FC731846FEF702F9E3
S315080127983861BB7D002B1FD1FB7D072B02D1FFF7C3
S315080127A861FA1CE1FB7D0E2B02D1FFF7FBFC16E152
S315080127B8FB7D102B04D1BB7D1846FFF713FC0EE1F0
S315080127C8FB7D092B02D1FFF775FC08E1FB7D396909
S315080127D81846FFF7E5FA02E1BB7D012B38D1FB7DE7
S315080127E8072B1DD1BB6903F2FC731846FEF7DFF800
S315080127F80346BB60BB68DAB2BB6983F81822BB69B2
S315080128086A49BA684FF4BC6000FB02F20A4403F548
S31508012818077311464FF4BC62184613F0EBFE10E035
S31508012828FB7D0E2B02D1FFF7F7FE0AE0FB7D082B8D
S3150801283802D1FFF71FFF04E0FB7D39691846FFF748
S3150801284835FEBB6903F2FC731846FFF77BFAC6E047
S31508012858BB7D022B11D1FB7D0A2B02D1FEF73CF970
S3150801286804E0FB7D0E2B01D1FEF77EF9BB6903F265
S31508012878FC731846FFF766FAB1E0BB7D032B40D116
S31508012888FB7D0A2B2FD14A4BFB6100233B6214E0DF
S31508012898FB6903F5BC62FA6144493A6A4FF4BC60BC
S315080128A800FB02F20A44104619464FF4BC631A465D
S315080128B813F0A0FE3B6A01333B623B6A1F2BE7DD37
S315080128C8BB6993F818321846374A38494FF4BC6336
S315080128D800FB03F3194402F507734FF4BC62184663
S315080128E813F088FE06E0FB7D0E2B03D1314A324BE5
S315080128F810681860BB6903F2FC731846FFF722FAD9
S315080129086DE0BB7D052B0AD1BB6903F2FC7318463A
S31508012918FEF759F803461846FFF7BAFC5FE0BB7D90
S31508012928062B10D1BB6903F2FC731846FEF74BF860
S3150801293803461846FFF766FDBB6903F2FC7318469A
S31508012948FFF700FA4BE0BB7D042B23D1BB6903F2E1
S31508012958FC731846FEF77CF80346FB60134AFB68C6
S315080129684FF4BC6101FB03F31A44BB69104603F52E
S3150801297807734FF4BC62194613F03CFEFB68DAB2DA
S31508012988BB6983F81822BB6903F2FC731846FFF77B
S31508012998D9F924E0BB7D082B1CD1FB7D0A2B0DD167
S315080129A8FEF7FEF80FE000BF101B0020000000101C
S315080129B800000E0800000C0810250020FB7D0E2BD0
S315080129C801D1FEF7C1F9BB6903F2FC731846FFF793
S315080129D8B9F904E0BB7D092B01D1FDF787FE00BFD4
S315080129E82837BD4680BD00BF80B598B000AFF860EE
S315080129F8B9607A60714BFB63F868FEF761FA0346BA
S31508012A0887F85F3000237B656D4BBB63FB68B22291
S31508012A1802FB03F303F50673FA6B134404337B636A
S31508012A280023BB650DE0BB685A1CBA601978BA6BF6
S31508012A38BB6D134403F5F0630A461A70BB6D01337F
S31508012A48BB65BA6D7B689A42EDDBBB6B93F8803739
S31508012A5803F00F033B635B4B1B78002B00F0B68032
S31508012A68BB6B93F8803703F0F003B02B69D1BB6BC6
S31508012A7893F88137002B16D1524B1B7803F00103C3
S31508012A88002B5ED0BB6B93F882274E4B9B789A42F4
S31508012A9804D1FB6B012283F81A2213E3FB6B00228C
S31508012AA883F81A224DE0BB6B93F88137202B16D190
S31508012AB8444B1B7803F00103002B42D0BB6B93F8F8
S31508012AC88227404B5B789A4204D1FB6B012283F833
S31508012AD81B22F7E2FB6B002283F81B2231E0BB6B52
S31508012AE893F88127374BDB789A422AD1354B1B78DD
S31508012AF803F00203002B24D0BB6B93F8823787F8BF
S31508012B082F30FDF75FFE024697F82F309A4218DDF7
S31508012B18FB6B97F82F2083F8182297F82F20FB6B61
S31508012B2829494FF4BC6000FB02F20A4403F507730E
S31508012B3811464FF4BC62184613F05CFDFFF792F88C
S31508012B48C0E2BB6B93F8803703F0F003C02B3DD185
S31508012B58FB6B93F81A32002B38D0FB6B93F81B32B0
S31508012B68002B33D0174B1B7803F00103002B2DD00C
S31508012B78BB6B93F8813787F82E30FDF723FE02469B
S31508012B8897F82E309A4221DDFB6B97F82E2083F8A9
S31508012B98182297F82E20FB6B0B494FF4BC6000FBF3
S31508012BA802F20A4403F5077311464FF4BC62184644
S31508012BB813F020FDFFF756F884E200BF101B00202A
S31508012BC8000200201025002000000010BB6B93F8B6
S31508012BD88037FE2B07D0BB6B03F5F06101237A68B2
S31508012BE8F868FEF701FCFB6B93F81932012B00F024
S31508012BF85E82FB6B93F81932022B40F0C180BB6BDE
S31508012C0803F5F063796B1846FEF71AFD0346002BA0
S31508012C1840F04F82BB6B03F5F0631846FEF7E6FCF6
S31508012C280346002B06D07B6B5B8803F00103002B58
S31508012C3800F04182BB6B93F8803703F0F003802BD1
S31508012C4806D0BB6B93F8803703F0F003902B44D179
S31508012C58BB6B93F8813787F82D307A6B3B6B10334A
S31508012C689B0013449B7887F82C307A6B3B6B10339F
S31508012C789B001344DB7887F82B3097F82D2097F8B3
S31508012C882C309A42C0F0198297F82D2097F82B30E4
S31508012C989A4200F214827A6B3B6B10339B001344F9
S31508012CA89B883B8597F82D309AB23B8D1946490082
S31508012CB80B449B009BB213449BB2FB84B7F926309D
S31508012CC8002BC0F2FE81B7F926307F2B00F3F98174
S31508012CD8FB8CDAB2BB6B83F88127BB6B93F8803719
S31508012CE803F0F003F02B4BD000233B6545E07A6BE4
S31508012CF83B6B10335B0013445B881A463B6D42FAFB
S31508012D0803F303F00103002B34D0BB6B93F8803728
S31508012D185BB223F00F035AB23B6D5BB213435BB246
S31508012D28D8B2B96B7A6D13465B0013440B4403F5A5
S31508012D38086302461A700123FB6414E0BA6BFB6C3C
S31508012D48134403F5F0631878B96B7A6D13465B007B
S31508012D581344CA18FB6C134403F5086302461A7030
S31508012D68FB6C0133FB64FA6C7B689A42E6DB7B6D84
S31508012D7801337B653B6D01333B653B6D0F2BB6DD37
S31508012D88FB6B93F81932002B23D10023BB651CE092
S31508012D9897F85F3003F00103002B0ED0BB6B03F5E0
S31508012DA8F06100237A68B86DFEF7B6F9BB6B93F83C
S31508012DB88037FE2B01D0FDF70DFD97F85F305B08CC
S31508012DC887F85F30BB6D0133BB65BB6D032BDFDD50
S31508012DD878E1FB681B0103F5F563FA6B13440433C1
S31508012DE83B62FDF7F7FC0023BB655BE1BB6DB222CD
S31508012DF802FB03F303F59C63FA6B13440433FB6183
S31508012E08BB6B93F8803703F0F003F02B00F01181C0
S31508012E180023BB6407E1B96BBA6C13465B0013441C
S31508012E280B4403F508631B7803F00F03BB61002302
S31508012E387B64F1E0012387F84330002387F84230A1
S31508012E48FA697B6C10339B0013449B88FB823B6AA7
S31508012E58BA6D33F822301A46BB6942FA03F303F00E
S31508012E680103002B00F0D580FA69BB6910335B00B2
S31508012E7813445B881A467B6C42FA03F303F0010391
S31508012E88002B00F0C680B96BBA6C13465B00134475
S31508012E980B4403F508631B7803F0F003802B0CD069
S31508012EA8B96BBA6C13465B0013440B4403F5086304
S31508012EB81B7803F0F003902B40D1B96BBA6C134613
S31508012EC85B0013440B4403F681031B787B75FA6987
S31508012ED87B6C10339B0013449B783B75FA697B6CB2
S31508012EE810339B001344DB78FB74012387F84230BF
S31508012EF87A7D3B7D9A4203D2002387F843301DE049
S31508012F087A7DFB7C9A4203D9002387F8433015E07A
S31508012F187B7D9AB2FB8A194649000B449B009BB2F2
S31508012F2813449BB23B82B7F91030002B03DBB7F980
S31508012F3810307F2B02DD002387F84330BA6C13461D
S31508012F485B00134403F50863BA6B1344F969184619
S31508012F58FEF776FB0346002B02D0002387F8433099
S31508012F6897F84330002B54D0B96BBA6C13465B00FB
S31508012F7813440B4403F508631B7823F00F03DAB2ED
S31508012F88BB6B83F8B028BB6B93F8B0385AB27B6C25
S31508012F985BB213435BB2DAB2BB6B83F8B02897F816
S31508012FA84230002B15D0B96BBA6C13465B00134433
S31508012FB80B4403F681031A78FB8ADBB219464900E2
S31508012FC80B449B00DBB21344DAB2BB6B83F8B12816
S31508012FD80BE0B96BBA6C13465B0013440B4403F652
S31508012FE881031A78BB6B83F8B128B96BBA6C134697
S31508012FF85B0013440B4403F682031A78BB6B83F808
S31508013008B228BB6B03F50B6100237A68B86DFEF726
S3150801301883F87B6C01337B647B6C0F2B7FF70AAFD4
S31508013028BB6C0133BB64BA6C7B6D9A42FFF6F3AE8F
S3150801303835E0BB6B03F5F0631846FEF7D7FA034686
S31508013048002B11D03A6ABB6D9B0013445B8803F0C9
S315080130580203002B23D0BB6B03F5F06100237A68C2
S31508013068B86DFEF759F81AE03A6ABB6D9B00134426
S315080130785B8803F00103002B11D0BB6B03F5F063E2
S31508013088F9691846FEF7DCFA0346002B07D1BB6B2C
S3150801309803F5F06100237A68B86DFEF73DF8BB6D54
S315080130A80133BB65BB6D032B7FF7A0AE0AE000BFF2
S315080130B808E000BF06E000BF04E000BF02E000BF69
S315080130C800E000BF6037BD4680BD00BF80B582B04D
S315080130D800AF0D4B7B607B681B78002B0FD07B6894
S315080130E85B68002B06D10023022208490020FEF757
S315080130F87BF904E07B685B685A1E7B685A6000BFE7
S315080131080837BD4680BD00BF101B0020BC670208F2
S3150801311880B582B000AF094B7B6009480BF014FBF8
S315080131280346002B03D17B6801221A7002E07B68EB
S3150801313800221A7000BF0837BD4680BD101B002043
S31508013148C02C002080B483B000AF78607B68202249
S3150801315883F8412000BF0C37BD465DF8047B7047EC
S3150801316880B487B000AF7860294A7B6852F8233063
S315080131787B617B691B6803F02003002B16D07B69EA
S315080131885B68FB747A681346DB0113449B00214A82
S315080131981344FB60FB681B785A1CD1B2FA68117094
S315080131A81A46FB681344FA7C83F804217B691B6871
S315080131B803F08003002B25D07A6813465B01134474
S315080131C81B01154A1344BB60BB681A68BB685B6870
S315080131D89A4210D0BB681B68591CBA681160BA684C
S315080131E813441B7A1A467B695A60BB681B68DAB2AC
S315080131F8BB681A6006E07B69DA684FF67F73134085
S315080132087A69D36000BF1C37BD465DF8047B7047F1
S3150801321888670208F4120020B40A002080B483B033
S3150801322800AF344B7B60344B1B6903F00403002B56
S315080132381AD07B685B69002B0CD07B681B78002B3E
S3150801324804D02E4B4FF47F029A6106E02B4B2C4A89
S315080132589A6102E0294BFF229A61274B1B69264A84
S3150801326883F0040313613FE0234B1B6903F0020350
S31508013278002B39D07B685B69002B13D07B689B6868
S31508013288002B07D11F4B204A9A617B68DA681B4BCA
S315080132989A6118E01B4B1D4A9A617B681A69174B94
S315080132A89A6110E07B689B68002B06D1154B174A73
S315080132B89A61124B164A9A6105E0124B124A9A61AB
S315080132C80E4BFF229A617B689B685A1C7B689A6039
S315080132D87B689B6803F00F027B689A60064B1B693B
S315080132E8054A83F00203136100BF0C37BD465DF832
S315080132F8047B7047101B00200004004000100240A0
S315080133084000BF00000C0240010002000200010053
S31508013318BF00400080B584B000AF694BBB6000238D
S31508013328FB60C4E0FA681346DB0113449B00654A4F
S3150801333813447B60B1E07B685B781A467B68134463
S3150801334893F80431FB70BB6893F81932012B0AD13B
S31508013358F91C00230122F868FDF7DEFEFB78FE2B2F
S3150801336801D0FDF737FAFB785BB2002B5FDAFB78F9
S3150801337803F0F003F02B0ED0FA787B681A71FB7804
S315080133881846FDF7C9F90346DAB27B689A707B686D
S315080133980122DA707BE0FB78F02B06D1FA787B6894
S315080133A81A717B680122DA7071E0FB78F72B16D15E
S315080133B87B68DB785A1CD1B27A68D1701946FA78D3
S315080133C87B680B441A717B68191D7B68DB781A467A
S315080133D8F868FFF709FBF868FDF784FD57E0FB78FD
S315080133E81846FDF799F90346002B09D1FB1C01225A
S315080133F81946F868FFF7F8FAF868FDF773FD46E025
S31508013408FB781846FDF788F90346B3F1FF3F3ED026
S31508013418FA787B681A71FB781846FDF77DF9034631
S31508013428DAB27B689A707B680122DA702FE07B68CA
S315080134389B78013BDAB27B689A707B68DB785A1C01
S31508013448D1B27A68D1701946FA787B680B441A7131
S315080134587B681B79F02B1AD07B689B78002B16D1D1
S315080134687B68191D7B68DB781A46F868FFF7BCFA8A
S31508013478F868FDF737FD7B681B791846FDF74CF99F
S315080134880346DAB27B689A707B680122DA707B6830
S315080134985B780133DAB27B685A707B681A787B687D
S315080134A85B789A427FF447AFFB680133FB60FB6898
S315080134B8032B7FF737AF00BF00BF1037BD4680BD66
S315080134C8101B0020F412002090B587B000AF786071
S315080134D80B46FB70604B7B617B6905225A60FDF7D9
S315080134E879F9FDF71AFDAEE07B681B7803F00F033F
S315080134F83B617B681B781B09DBB2FB60FB68032B06
S315080135086FDC3B690F2B5BD801A252F823F000BF89
S315080135184136010841360108593501086935010856
S31508013528793501088935010899350108A935010848
S31508013538C9350108C9350108C9350108C935010858
S31508013548C9350108C9350108C9350108B935010858
S315080135587B68591C01230222F868FDF7DDFD6CE03A
S315080135687B68591C01230322F868FDF7D5FD64E039
S315080135787B68591C01230322F868FDF7CDFD5CE039
S315080135887B68591C01230122F868FDF7C5FD54E03B
S315080135987B68591C01230222F868FDF7BDFD4CE03A
S315080135A87B68591C01230322F868FDF7B5FD44E039
S315080135B87B68591C01230122F868FDF7ADFD3CE03B
S315080135C87B685C1C3B69DBB21B01DBB21846FDF75D
S315080135D8A3F803465A1C01232146F868FDF79CFD02
S315080135E82BE03B69043B032B32D801A252F823F09E
S315080135F80936010817360108253601083336010840
S315080136087B68013303211846FFF770F815E07B68D4
S31508013618013301211846FFF769F80EE07B68013383
S3150801362802211846FFF762F807E07B680133032190
S315080136381846FFF75BF800E000BFFB78043BFB7010
S315080136487B6804337B60FB78002B7FF44DAF00E081
S3150801365800BF1C37BD4690BD101B002090B587B02A
S3150801366802AF01F013FA78602D4BBB600023FB60AB
S315080136780DE02C4AFB6852F823303B603B68DB684F
S3150801368843F020023B68DA60FB680133FB60FB689C
S31508013698032BEEDD244BDB68234A43F00603D3608C
S315080136A87B68DC69214B0093012302220121002052
S315080136B8A0477B68DC691E4B00930123022201217E
S315080136C80120A0470023FB6014E0BB6803F5BC6230
S315080136D8BA601849FA684FF4BC6000FB02F20A445A
S315080136E8104619464FF4BC631A4612F083FFFB6865
S315080136F80133FB60FB681F2BE7DD0F4B0D4A03F50A
S31508013708077311464FF4BC62184612F073FF0B4A49
S315080137180B4B1068186000BF1437BD4690BD00BF33
S3150801372800000E088867020800040040D530010821
S31508013738FD07010800000010101B002000000C08F6
S315080137481025002080B400AF024B1846BD465DF827
S31508013758047B7047B868020880B588B000AF7860FE
S315080137680023FB610023BB607B683B6101237B6106
S315080137780223BB6101F0FAFF07F11C0207F10803EE
S315080137881146184602F054F902F012F800BF20371C
S31508013798BD4680BDB0B582B000AF78600B46FB70F8
S315080137A801F0E4FFFB7800221C46154622462B4603
S315080137B87968002001F088FF01F0FAFF00BF083791
S315080137C8BD46B0BDB0B584B000AFF860B9607A60DF
S315080137D801F0CCFF0FE0F9684B1CFB60BB685A1C6B
S315080137E8BA601B78DBB200221C46154622462B46D0
S315080137F8002001F069FF7B685A1E7A60002BEAD11E
S3150801380801F0D6FF00BF1037BD46B0BDB0B582B0CE
S3150801381800AF7860396001F0A9FF0FE079684B1CA1
S315080138287B603B685A1C3A601B78DBB200221C464F
S31508013838154622462B46002001F046FF3B681B78B1
S31508013848002BEBD14FF000024FF0000379680020F6
S3150801385801F03AFF01F0ACFF00BF0837BD46B0BD1D
S3150801386880B400AF024B1846BD465DF8047B704725
S31508013878DC68020880B483B000AF0B4B7B600B4B46
S315080138885B680A4A0A49A1FB0313DB0853607B688C
S3150801389801221A717B6800221A6000BF0C37BD46DF
S315080138A85DF8047B704700BF1425002010E000E08E
S315080138B8CDCCCCCC80B400AF00BFBD465DF8047B47
S315080138C87047000080B483B000AF1C4B7B607B68EF
S315080138D81B7983F00103DBB2002B08D0184B1B7840
S315080138E81A46184B1B681344164A13601FE07B686F
S315080138F81B685A1C7B681A607B681968124B83FB1C
S3150801390801239A10CB17D21A13469B0013445B005E
S31508013918CA1A7B681A607B681B68002B07D1084B93
S315080139281B781A46074B1B681344064A136000BFDF
S315080139380C37BD465DF8047B704700BF1425002087
S31508013948080000203C2C00206766666680B582B0B0
S3150801395800AF174B7B60174B1B78022B11D17B687D
S315080139681B7883F00103DBB2002B1CD07B6801228C
S315080139781A707B685B68002B15D07B685B6898476B
S3150801398811E00C4B1B78032B0DD17B681B78002B98
S3150801399809D07B6800221A707B689B68002B02D0C5
S315080139A87B689B68984700BF0837BD4680BD00BF3E
S315080139B81C2500206C3A002080B400AF00BFBD4624
S315080139C85DF8047B7047000080B400AF034B1B7891
S315080139D81846BD465DF8047B704700BF1C250020C4
S315080139E880B483B000AF7860044A7B68536000BF2F
S315080139F80C37BD465DF8047B704700BF1C250020BF
S31508013A0880B483B000AF7860044A7B68936000BFCE
S31508013A180C37BD465DF8047B704700BF1C2500209E
S31508013A2880B400AF024B1846BD465DF8047B704763
S31508013A38EC68020880B400AFBFF34F8F00BF064B8E
S31508013A48DB6803F4E0620449044B1343CB60BFF314
S31508013A584F8F00BF00BFFDE700ED00E00400FA053F
S31508013A6880B582B000AF254B7B6001224FF48041B7
S31508013A78234802F0B1FA0121224802F095FA0346D1
S31508013A88012B01D1FFF7D6FF1F4B1B685B689847C7
S31508013A981D4B1B685B697A6802F5BC6211461B48AF
S31508013AA8984738603B68002B15D0174B1B689B69EC
S31508013AB87A6802F5BC604FF480324FF08051984716
S31508013AC8134B1B681B6A984701224FF400410C489F
S31508013AD802F082FA0EE00C4B1B68DB694FF4803260
S31508013AE84FF080510B48984701224FF4004104488A
S31508013AF802F072FA00BF0837BD4680BD00020020F1
S31508013B08000C0240000002409C260020D0660208EC
S31508013B1894260020D866020880B500AF00224FF423
S31508013B288041054802F058FA00224FF4004102483C
S31508013B3802F052FA00BF80BD000C024080B500AF02
S31508013B4801F09CFB00F09AF800F03CFA00F092F9B3
S31508013B5800F0BAF900F0E2F911F006FD00F008FAEA
S31508013B6800F0F6F80AF0E4FB12F038F900F08EFFD7
S31508013B780346374A1360364B1B681B68984700216A
S31508013B88344806F009FB0121324806F005FBFFF720
S31508013B98D9FD0346304A13602F4B1B681B689847A3
S31508013BA8FFF75EFE03462D4A13602D4B1B78FF2B44
S31508013BB807D1294B1B685B699847274B1B689B6983
S31508013BC89847FFF72DFF0346264A1360254B1B68BE
S31508013BD8DB6825489847234B1B681B692348984780
S31508013BE800220121224802F0F7F900F045FF0346B1
S31508013BF8204A13601F4B1B681B689847144B1B68A0
S31508013C085B6898470346002B12D0114B1B68DB6883
S31508013C18984703461A464FF48051174802F0DCF9CB
S31508013C280D4B1B685B6898470E4B1B689B68984742
S31508013C38094B1B689B689847074B1B68DB689847BD
S31508013C48054B1B681B69984712F0EEF8D6E700BFC3
S31508013C58902600202825002094260020A02600204A
S31508013C6800000E0898260020693A0108213B010838
S31508013C78000802409C260020000C024080B594B03A
S31508013C8800AF07F1200330220021184612F06EFC16
S31508013C9807F10C0300221A605A609A60DA601A6101
S31508013CA80023BB60284B1B6C274A43F080531364D7
S31508013CB8254B1B6C03F08053BB60BB6800237B60F4
S31508013CC8224B1B68214A43F4804313601F4B1B6828
S31508013CD803F480437B607B6801233B624FF4A0238E
S31508013CE87B620223BB634FF48003FB6308233B64AF
S31508013CF84FF4A8737B640223BB640723FB6407F1AB
S31508013D082003184605F008FD0346002B01D000F0EC
S31508013D1859FA0F23FB6002233B6100237B614FF4A9
S31508013D28A053BB614FF48053FB6107F10C030521CE
S31508013D38184605F069FF0346002B01D000F042FA40
S31508013D4800BF5037BD4680BD0038024000700040AC
S31508013D5880B58EB000AF07F1280300221A605A60B1
S31508013D689A60DA6007F1200300221A605A603B1D3F
S31508013D7800221A605A609A60DA601A615A619A6171
S31508013D883A4B3B4A1A60394B53225A60374B002241
S31508013D989A60364B40F2F312DA60344B00221A6104
S31508013DA8324B80229A61314806F04EF90346002BB8
S31508013DB801D000F007FA4FF48053BB6207F12803D4
S31508013DC819462A4806F04AFC0346002B01D000F09A
S31508013DD8F9F9264806F087F90346002B01D000F0C1
S31508013DE8F1F900233B6200237B6207F12003194698
S31508013DF81E4807F043F80346002B01D000F0E2F904
S31508013E0800237B600A23BB600023FB6000237B61D8
S31508013E183B1D00221946154806F0C4FB0346002B2C
S31508013E2801D000F0CFF9114B1B689A690F4B1B6833
S31508013E3842F008029A614FF4C873BB603B1D04221D
S31508013E4819460A4806F0AEFB0346002B01D000F0D6
S31508013E58B9F9064B1B689A69044B1B6842F4006258
S31508013E689A6100BF3837BD4680BD00BF28250020A6
S31508013E780004004080B500AF114B124A1A60104B76
S31508013E8847F612225A600E4B00229A600C4B4FF4E1
S31508013E980052DA600A4B00221A61094B0C225A6150
S31508013EA8074B00229A61064B0022DA61044807F09B
S31508013EB875F80346002B01D000F084F900BF80BDD0
S31508013EC8702500200010014080B500AF114B124A39
S31508013ED81A60104B47F612225A600E4B00229A6056
S31508013EE80C4B4FF40052DA600A4B00221A61094B4F
S31508013EF80C225A61074B00229A61064B0022DA61A5
S31508013F08044807F04BF80346002B01D000F05AF98C
S31508013F1800BF80BDB82500200044004080B500AF29
S31508013F28114B124A1A60104B47F612225A600E4B69
S31508013F3800229A600C4B4FF40052DA600A4B0022B1
S31508013F481A61094B0C225A61074B00229A61064BE2
S31508013F580022DA61044807F021F80346002B01D04C
S31508013F6800F030F900BF80BD002600200048004057
S31508013F7880B500AF114B124A1A60104B47F6122248
S31508013F885A600E4B00229A600C4B4FF40052DA60C5
S31508013F980A4B00221A61094B0C225A61074B002267
S31508013FA89A61064B0022DA61044806F0F7FF0346D0
S31508013FB8002B01D000F006F900BF80BD4826002075
S31508013FC80014014080B58CB000AF07F11C0300222C
S31508013FD81A605A609A60DA601A610023BB61734BEA
S31508013FE81B6B724A43F010031363704B1B6B03F088
S31508013FF81003BB61BB6900237B616C4B1B6B6B4A66
S3150801400843F004031363694B1B6B03F004037B61D9
S315080140187B6900233B61654B1B6B644A43F080034C
S315080140281363624B1B6B03F080033B613B690023F7
S31508014038FB605E4B1B6B5D4A43F0010313635B4BE5
S315080140481B6B03F00103FB60FB680023BB60574B3E
S315080140581B6B564A43F002031363544B1B6B03F05D
S315080140680203BB60BB6800237B60504B1B6B4F4A3E
S3150801407843F0080313634D4B1B6B03F008037B607E
S315080140887B680122FF214A4801F0A6FF012240F276
S315080140980131484801F0A0FF012243F203014648CD
S315080140A801F09AFF00224FF20301444801F094FFF8
S315080140B8FF23FB6101233B6200237B620023BB626A
S315080140C807F11C0319463A4801F0D2FD40F20133BB
S315080140D8FB6101233B6200237B620023BB6207F174
S315080140E81C031946334801F0C3FD0123FB614FF44C
S315080140F890133B6200237B6207F11C03194630487B
S3150801410801F0B6FD1023FB6100233B6200237B62A5
S3150801411807F11C0319462A4801F0AAFD43F20303CD
S31508014128FB6101233B6200237B620023BB6207F123
S315080141381C031946204801F09BFD0423FB61002353
S315080141483B6200237B6207F11C0319461A4801F0F2
S315080141588FFD4FF47C53FB6100233B6200237B628E
S3150801416807F11C031946124801F082FD4FF20303B1
S31508014178FB6101233B6200237B620023BB6207F1D3
S315080141881C0319460D4801F073FD2023FB61002322
S315080141983B6200237B6207F11C031946074801F0B5
S315080141A867FD00BF3037BD4680BD00BF00380240F5
S315080141B8001002400008024000040240000C0240B8
S315080141C80000024080B400AF72B600BF00BFFDE729
S315080141D880B582B000AF00237B60104B5B6C0F4A39
S315080141E843F4804353640D4B5B6C03F480437B6053
S315080141F87B6800233B60094B1B6C084A43F08053D4
S315080142081364064B1B6C03F080533B603B6806201E
S3150801421801F086F900BF0837BD4680BD003802405F
S3150801422880B584B000AF78607B681B680E4A9342F4
S3150801423815D10023FB600D4B1B6C0C4A43F0020396
S3150801424813640A4B1B6C03F00203FB60FB6800222C
S3150801425800211D2001F06FF91D2001F088F900BF22
S315080142681037BD4680BD00BF000400400038024033
S3150801427880B590B000AF786007F12C0300221A6068
S315080142885A609A60DA601A617B681B68954A934294
S3150801429844D10023BB62944B5B6C934A43F01003E9
S315080142A85364914B5B6C03F01003BB62BB6A002332
S315080142B87B628D4B1B6B8C4A43F0020313638A4B53
S315080142C81B6B03F002037B627B6A4023FB620223B2
S315080142D83B6300237B630323BB630723FB6307F164
S315080142E82C031946814801F0C3FC8023FB6202238B
S315080142F83B6301237B630323BB630723FB6307F143
S315080143082C031946794801F0B3FC0022002125201F
S3150801431801F011F9252001F02AF9DEE07B681B680E
S31508014328734A934244D100233B626F4B1B6C6E4A16
S3150801433843F4003313646C4B1B6C03F400333B6280
S315080143483B6A0023FB61684B1B6B674A43F0010311
S315080143581363654B1B6B03F00103FB61FB690423BC
S31508014368FB6202233B6300237B630323BB630723A7
S31508014378FB6307F12C0319465E4801F079FC08230B
S31508014388FB6202233B6301237B630323BB63072386
S31508014398FB6307F12C031946564801F069FC00220C
S315080143A80021262001F0C7F8262001F0E0F894E05C
S315080143B87B681B68504A934246D10023BB614A4B26
S315080143C81B6C494A43F480231364474B1B6C03F45B
S315080143D88023BB61BB6900237B61434B1B6B424A44
S315080143E843F002031363404B1B6B03F002037B6123
S315080143F87B694FF48063FB6202233B6300237B637B
S315080144080323BB630723FB6307F12C0319463748C4
S3150801441801F02EFC4FF40063FB6202233B63012380
S315080144287B630323BB630723FB6307F12C03194645
S315080144382E4801F01DFC00220021272001F07BF8F7
S31508014448272001F094F848E07B681B682B4A9342B9
S3150801445843D100233B61244B5B6C234A43F0200379
S315080144685364214B5B6C03F020033B613B690023D2
S31508014478FB601D4B1B6B1C4A43F0040313631A4B61
S315080144881B6B03F00403FB60FB684023FB620223F2
S315080144983B6300237B630323BB630823FB6307F1A1
S315080144A82C031946164801F0E3FB8023FB62022315
S315080144B83B6301237B630323BB630823FB6307F180
S315080144C82C0319460E4801F0D3FB00220021472088
S315080144D801F031F8472001F04AF800BF4037BD46D8
S315080144E880BD00BF001001400038024000040240A8
S315080144F80044004000000240004800400014014002
S315080145080008024080B400AF00BFFDE780B400AFE1
S3150801451800BFFDE780B400AF00BFFDE780B400AF78
S3150801452800BFFDE780B400AF00BFFDE780B400AF68
S3150801453800BFBD465DF8047B704780B400AF00BF75
S31508014548BD465DF8047B704780B400AF00BFBD4621
S315080145585DF8047B704780B500AF00F0B5FAFFF740
S31508014568B1F900BF80BD000080B500AFFEF756FE61
S31508014578024805F027FF00BF80BD00BF2825002097
S3150801458880B500AF044B5B681846FEF7E9FD03489A
S3150801459806F054FD00BF80BDA067020870250020FB
S315080145A880B500AF044B9B681846FEF7D9FD03484A
S315080145B806F044FD00BF80BDA0670208B8250020A3
S315080145C880B500AF044BDB681846FEF7C9FD0348FA
S315080145D806F034FD00BF80BDA0670208002600204A
S315080145E880B500AF024801F0F1FF00BF80BD00BFEA
S315080145F8703A002080B500AF044B9B691846FEF750
S31508014608AFFD034806F01AFD00BF80BDA067020882
S315080146184826002080B500AF024803F06EFF00BFA8
S3150801462880BD00BF9C31002080B586B000AF786098
S31508014638144A154BD31A7B617B693B61134B1B687B
S31508014648002B02D1114B124A1A60104B1A687B6863
S3150801465813443A699A4207D211F0A0FF03460C227D
S315080146681A604FF0FF3309E0084B1B68FB60074BDC
S315080146781A687B681344054A1360FB681846183795
S31508014688BD4680BD0000022000040000A4260020C3
S31508014698983F002080B400AF074BD3F88830064A04
S315080146A843F47003C2F88830034B044A9A6000BF82
S315080146B8BD465DF8047B704700ED00E0000201087D
S315080146C880B483B000AF786039600BE07B685A1C08
S315080146D87A601A783B68591C39601B789A4201D066
S315080146E800230AE07B681B78002BEFD13B681B780F
S315080146F8002B01D1012300E0002318460C37BD46DB
S315080147085DF8047B704780B485B000AF786039607E
S315080147180023FB733B681B785F2B01D100232BE031
S315080147283B681B782E2B18D1002325E07B681A785D
S315080147383B681B789A4208D10123FB733B6801330E
S315080147483B607B6801337B6007E0FB7B002B01D06C
S31508014758002311E03B6801333B607B681B78002B1B
S3150801476803D03B681B78002BE0D17B681B78002BAC
S3150801477801D1012300E0002318461437BD465DF828
S31508014788047B704780B485B000AF78603960002330
S31508014798FB600123BB6002E07B6801337B607B68B1
S315080147A81B782E2BF8D112E07B68013B7B607B686E
S315080147B81B7803F00F03BA6802FB03F3FA6813447C
S315080147C8FB60BA6813469B0013445B00BB603B68F1
S315080147D85A1E3A60002BE7D1FB6818461437BD46BE
S315080147E85DF8047B704780B483B000AF78603960A0
S315080147F802E07B6801337B607B681B782E2BF8D136
S3150801480807E07A68531C7B603B68591C3960127843
S315080148181A707B681B78002BF3D13B6800221A7043
S3150801482800BF0C37BD465DF8047B704780B586B076
S3150801483800AF7860396000237B61244BFB60FB6815
S3150801484803F58C62FB6803F2A4431946104610F077
S3150801485896FDFB6803F58C62FB6803F28C431946DF
S31508014868104610F0E7FDFB6803F295431946786888
S31508014878FFF749FF0346002B1DD000233B6114E0CF
S31508014888FA683B69134403F29543187839687A69D3
S3150801489813465B0013449B001344CA183B69134427
S315080148A802461A703B6901333B613B690C2BE7DD0C
S315080148B87B6901337B61FB6893F89534002BC8D172
S315080148C87B6918461837BD4680BD00BFA826002053
S315080148D880B586B000AFF860B9607A600E4B7B6127
S315080148E87B6903F50D730122F968184610F06AF811
S315080148F87B6903F50D707A6807F11003B96810F03A
S31508014908ECF97B6903F50D73184610F018FD00BF1D
S315080149181837BD4680BD00BFA826002080B588B0D7
S3150801492800AFF860B9607A600F4BFB61FB6903F564
S315080149380D730A22F968184610F044F8FB6903F55D
S315080149480D707A6807F11403B96810F005FB034678
S31508014958FB76FB6903F50D73184610F0F0FC00BFEA
S315080149682037BD4680BD00BFA826002080B483B085
S3150801497800AF786039600BE07B685A1C7A601A7850
S315080149883B68591C39601B789A4201D0002304E018
S315080149987B681B78002BEFD1012318460C37BD46D7
S315080149A85DF8047B7047000080B582B000AF094BFB
S315080149B87B6078687B6803F2A443002219460FF0E6
S315080149C8BDFF0346002B01D0FFF7FCFB00BF0837E4
S315080149D8BD4680BDA826002080B584B000AF7860A2
S315080149E8154BFB60FB6803F58C62FB6803F2A4436D
S315080149F81946104610F0C3FCFB6803F58C62FB6880
S31508014A0803F28C431946104610F014FDFB6803F2AD
S31508014A18954319467868FFF753FE0346002B01D0DC
S31508014A28012305E0FB6893F89534002BE4D10023AC
S31508014A3818461037BD4680BDA826002080B483B025
S31508014A4800AF0C4B7B607B68302283F8A4247B6813
S31508014A583A2283F8A5247B682F2283F8A6247B6843
S31508014A68002283F8A72400BF0C37BD465DF8047BEE
S31508014A78704700BFA826002080B400AF024B18462D
S31508014A88BD465DF8047B70471869020880B400AF13
S31508014A98024B1846BD465DF8047B70473C69020817
S31508014AA880B582B000AF074B7B607B6808225A72D3
S31508014AB87B6803229A72FEF7DDFE00BF0837BD46FA
S31508014AC880BD00BF742B002080B584B000AF324B7F
S31508014AD87B600A23FB737B682433BB60FEF7EAFE17
S31508014AE87B68DB88002B05D07B68DB88013B9AB29B
S31508014AF87B68DA807B689B88002B12D07B689B8849
S31508014B08013B9AB27B689A800BE0BB681B68002B4D
S31508014B1804D0BB681B685A1EBB681A60BB68103389
S31508014B28BB60FB7B5A1EFA73002BEED17B681B7898
S31508014B380133DAB27B681A707B681B78174AA2FBBD
S31508014B4803125209642101FB02F29B1ADAB27B6845
S31508014B581A707B681A78124BA3FB0213D9080B46FD
S31508014B689B000B445B00D31ADBB2002B06D17B688A
S31508014B78D3F8C4305A1C7B68C3F8C4207B681B78F1
S31508014B88002B05D17B685B8801339AB27B685A800A
S31508014B9800BF1037BD4680BD742B00201F85EB5119
S31508014BA8CDCCCCCC80B586B000AF494BBB60BB68D1
S31508014BB85B88FB710A23FB75BB6824333B6123E0D9
S31508014BC83B695B7B002B1CD03B691B68002B18D102
S31508014BD83B699B68002B0CD03B691B7B83F001035F
S31508014BE8DBB2002B02D03B6900225A733B699B68EA
S31508014BF898473B691B7B002B03D03B695A683B697D
S31508014C081A603B6910333B61FB7D5A1EFA75002B06
S31508014C18D6D1FB79002B56D0BB6800225A800E23C1
S31508014C28FB750023FB7312E0FB7BBA681344DB7A36
S31508014C38002B09D0FB7BBA681A44D27A013AD1B259
S31508014C48BA6813440A46DA72FB7B0133FB73FB7DA8
S31508014C585A1EFA75002BE7D1BB685B7A013BDAB2B3
S31508014C68BB685A72BB685B7A002B0FD1BB681B7A83
S31508014C780133DAB2BB681A72BB681B7A03F00F03F1
S31508014C88DAB2BB681A72BB6808225A720523FB7521
S31508014C980023FB7312E0FB7BBA6813449B7F002B46
S31508014CA809D0FB7BBA681A44927F013AD1B2BA682D
S31508014CB813440A469A77FB7B0133FB73FB7D5A1E1D
S31508014CC8FA75002BE7D1FB7918461837BD4680BD1A
S31508014CD8742B002080B485B000AF0346FB800B4BCC
S31508014CE8FB60FB881A46920013445B009AB2FB687C
S31508014CF8DA8000BFFB68DB88002BFBD100BF00BF49
S31508014D081437BD465DF8047B704700BF742B002035
S31508014D1880B483B000AF0346FB80FB881A4692002D
S31508014D2813445B009AB2044B9A8000BF0C37BD4600
S31508014D385DF8047B704700BF742B002080B400AF70
S31508014D48054B9B88002B01D1012300E00023184657
S31508014D58BD465DF8047B7047742B002080B483B088
S31508014D6800AF0923FB710A23BB710F4B3B60FB7923
S31508014D783A681B01134431331B7883F00103DBB20C
S31508014D88002B01D0FB7909E0FB79013BFB71BB7963
S31508014D98013BBB71BB79002BE9D17F2318460C3738
S31508014DA8BD465DF8047B7047742B002080B485B036
S31508014DB800AF396011461A460346FB710B46BB71AB
S31508014DC813467B71FB7902331B01234A13440433C7
S31508014DD8FB603B68002B01D03B6800E001233B6080
S31508014DE8BB79032B06D0032B18DC012B0FD0022B1A
S31508014DF806D013E03B68194A02FB03F33B6011E04E
S31508014E083B6842F2107202FB03F33B600AE03A6818
S31508014E1813469B0013445B003B6003E03B68013380
S31508014E283B6000BF3B6801333B60FB687A791A73BC
S31508014E38FB683A685A60FB683A681A60FB68BA6997
S31508014E489A60FB6801225A73012318461437BD462E
S31508014E585DF8047B704700BF742B0020C027090042
S31508014E6880B588B002AFF8607B600B46FB721346C3
S31508014E78BB72FFF773FF0346FB75FB7D7F2B01D1D9
S31508014E88FF2311E0B97AFA7AF87D7B6800930B4615
S31508014E98F968FFF78BFF034683F00103DBB2002BA2
S31508014EA801D0FF2300E0FB7D18461837BD4680BDB3
S31508014EB880B586B002AF03463960FB711346BB71EC
S31508014EC8FB7902331B01094A13440433FB60FB6867
S31508014ED8197BFB689B68BA79F87900930B46396898
S31508014EE8FFF764FF00BF1037BD4680BD742B00204D
S31508014EF880B485B000AF0346FB71FB79104A0233CB
S31508014F081B01134404331B68FB60FB7902331B013D
S31508014F180B4A13440433BB60FB68002B09D1BB68F1
S31508014F281B7B83F00103DBB2002B02D0BB6800228E
S31508014F385A73FB6818461437BD465DF8047B7047F3
S31508014F48742B002080B485B000AF0346FB71FB794A
S31508014F5802331B01094A13440433FB60FB68002228
S31508014F681A73FB6800229A60FB6800225A7300BF0D
S31508014F781437BD465DF8047B704700BF742B0020C3
S31508014F8880B485B000AF0346FB71FB79114A023339
S31508014F981B01134404331B68FB60FB7902331B01AD
S31508014FA80C4A13440433BB60FB68002B09D1BB6860
S31508014FB81B7B83F00103DBB2002B02D0BB680022FE
S31508014FC85A73BB685B7B18461437BD465DF8047B84
S31508014FD8704700BF742B002080B485B000AF034624
S31508014FE8FB71FB79154A02331B01134404331B6809
S31508014FF8FB60FB7902331B01104A13440433BB6077
S31508015008FB68002B09D1BB681B7B83F00103DBB264
S31508015018002B02D0BB6800225A73BB685B7B83F0FE
S315080150280103DBB2002B01D0012300E00023184657
S315080150381437BD465DF8047B704700BF742B002002
S3150801504880B483B000AF0346FB71044AFB799372B7
S3150801505800BF0C37BD465DF8047B7047742B0020EA
S3150801506880B483B000AF094B7B607B689B7A18468E
S315080150787B681B7A1946064A030113440B441B78B5
S3150801508818460C37BD465DF8047B7047742B00201B
S315080150989069020880B483B000AF03460A46FB71DB
S315080150A81346BB71FB79084A1344DB7A002B04D1F2
S315080150B8FB79054A1344BA79DA7200BF0C37BD463B
S315080150C85DF8047B704700BF742B002080B483B059
S315080150D800AF0346FB71FB79064A1344DB7A002BBA
S315080150E801D1002300E0012318460C37BD465DF8B7
S315080150F8047B7047742B002080B483B000AF034645
S31508015108FB71FB79044A1344DB7A18460C37BD460A
S315080151185DF8047B704700BF742B002080B483B008
S3150801512800AF03460A46FB711346BB71FB79054A6C
S315080151381344BA795A7600BF0C37BD465DF8047B25
S31508015148704700BF742B002080B483B000AF0346B4
S315080151580A46FB711346BB71FB79054A1344BA79AA
S315080151689A7700BF0C37BD465DF8047B704700BFC8
S31508015178742B002080B485B000AF0346FB71134B2E
S31508015188FB60FB79FA6813445B7E002B01D1002387
S3150801519815E0FB79FA6813445B7E012B09D1FB7983
S315080151A8FA6813449B7F002B01D1012307E00023EA
S315080151B805E0FB681B7A1A46054B13441B7C1846FF
S315080151C81437BD465DF8047B704700BF742B002071
S315080151D89069020880B400AF034BD3F8C430184667
S315080151E8BD465DF8047B7047742B0020DFF85CD058
S315080151F8FFF750FA16481749174A002302E0D45808
S31508015208C4500433C4188C42F9D314481449154AAE
S31508015218002302E0D458C4500433C4188C42F9D385
S31508015228114A124C002301E013600432A242FBD34F
S315080152380F4A104C002301E013600432A242FBD343
S3150801524811F0B2F9FEF77AFC704700000000022057
S3150801525800000020E4010020746A0208000000101A
S3150801526800000010586C0208E4010020983F00204D
S315080152780000001000BC0010FEE7000080B500AF72
S315080152880E4B1B680D4A43F4007313600B4B1B68DE
S315080152980A4A43F480631360084B1B68074A43F4B8
S315080152A880731360032000F03BF9002000F008F82A
S315080152B8FEF78EFF0023184680BD00BF003C02405A
S315080152C880B582B000AF7860124B1A68124B1B780A
S315080152D819464FF47A73B3FBF1F3B2FBF3F31846A5
S315080152E800F053F90346002B01D001230EE07B6831
S315080152F80F2B0AD8002279684FF0FF3000F01BF906
S31508015308064A7B681360002300E00123184608371C
S31508015318BD4680BD000000200800002004000020CA
S3150801532880B400AF034B1B681846BD465DF8047B7D
S31508015338704700BF3C2C002080B584B000AF786068
S31508015348FFF7EEFFB8607B68FB60FB68B3F1FF3FC8
S3150801535805D00A4B1B781A46FB681344FB6000BF45
S31508015368FFF7DEFF0246BB68D31AFA689A42F7D8EE
S3150801537800BF00BF1037BD4680BD00BF080000202A
S3150801538880B485B000AF78607B6803F00703FB60DB
S315080153980C4BDB68BB60BA684FF6FF031340BB606A
S315080153A8FB681A02BB68134343F0BF6343F400332F
S315080153B8BB60044ABB68D36000BF1437BD465DF8B5
S315080153C8047B704700ED00E080B400AF044BDB684E
S315080153D81B0A03F007031846BD465DF8047B7047A8
S315080153E800ED00E080B483B000AF0346FB7197F97E
S315080153F80730002B0BDBFB7903F01F02074997F9E6
S3150801540807305B09012000FA02F241F8232000BFA0
S315080154180C37BD465DF8047B704700BF00E100E024
S3150801542880B483B000AF03463960FB7197F907303A
S31508015438002B0ADB3B68DAB20C4997F907301201E7
S31508015448D2B20B4483F800230AE03B68DAB208496A
S31508015458FB7903F00F03043B1201D2B20B441A7607
S3150801546800BF0C37BD465DF8047B704700E100E0D4
S3150801547800ED00E080B489B000AFF860B9607A60E1
S31508015488FB6803F00703FB61FB69C3F10703042BF8
S3150801549828BF0423BB61FB690433062B02D9FB69C0
S315080154A8033B00E000237B614FF0FF32BB6902FA38
S315080154B803F3DA43BB681A407B699A404FF0FF3118
S315080154C87B6901FA03F3D9437B680B4013431846F2
S315080154D82437BD465DF8047B7047000080B582B065
S315080154E800AF78607B68013BB3F1807F01D3012364
S315080154F80FE00A4A7B68013B53600F214FF0FF30E2
S31508015508FFF78EFF054B00229A60044B07221A60A3
S31508015518002318460837BD4680BD00BF10E000E0E5
S3150801552880B582B000AF78607868FFF729FF00BFB9
S315080155380837BD4680BD80B586B000AF0346B96059
S315080155487A60FB7300237B61FFF73EFF78617A680F
S31508015558B9687869FFF78EFF024697F90F30114641
S315080155681846FFF75DFF00BF1837BD4680BD80B5F1
S3150801557882B000AF0346FB7197F907301846FFF763
S3150801558831FF00BF0837BD4680BD80B582B000AF80
S3150801559878607868FFF7A2FF034618460837BD46BC
S315080155A880BD80B584B000AF78607B689B6DFB6071
S315080155B8FFF7B6FEB8607B6893F83530DBB2022B85
S315080155C808D07B6880225A657B68002283F83420D4
S315080155D8012352E07B681B681A687B681B6822F0FE
S315080155E816021A607B681B685A697B681B6822F071
S315080155F880025A617B681B6C002B03D17B689B6C04
S31508015608002B07D07B681B681A687B681B6822F021
S3150801561808021A607B681B681A687B681B6822F08F
S3150801562801021A6013E0FFF77BFE0246BB68D31A2C
S31508015638052B0CD97B6820225A657B68032283F8D7
S3150801564835207B68002283F83420032315E07B681C
S315080156581B681B6803F00103002BE4D17B68DB6D2B
S315080156683F229A40FB689A607B68012283F83520B5
S315080156787B68002283F83420002318461037BD4674
S3150801568880BD80B483B000AF78607B6893F8353005
S31508015698DBB2022B04D07B6880225A6501230CE011
S315080156A87B68052283F835207B681B681A687B683E
S315080156B81B6822F001021A60002318460C37BD46FA
S315080156C85DF8047B7047000080B586B000AFF860C6
S315080156D8B960C7E90023234B1B7E012B01D102239D
S315080156E83BE0204B01221A764CF2503000F070F854
S315080156F80346FB75FB7D002B2BD1FB68002B05D1D7
