S0110000584D494449365553422E7372656378
S3150801020000000220053A0108C92D0108D12D01086F
S31508010210D92D0108E12D0108E92D0108000000008A
S31508010220000000000000000000000000F12D010898
S31508010230FF2D0108000000000D2E01081B2E0108E4
S31508010240913A0108913A0108913A0108913A01084F
S31508010250913A0108913A0108913A0108913A01083F
S31508010260913A0108913A0108913A0108913A01082F
S31508010270913A0108913A0108913A0108913A01081F
S31508010280913A0108913A0108913A0108913A01080F
S31508010290913A0108913A0108913A0108913A0108FF
S315080102A0913A0108913A0108913A0108913A0108EF
S315080102B0913A01082D2E0108913A0108913A01084F
S315080102C0913A0108913A0108913A0108913A0108CF
S315080102D0913A0108452E0108652E0108852E010867
S315080102E0913A0108913A0108913A0108913A0108AF
S315080102F0913A0108913A0108913A0108913A01089F
S31508010300913A0108913A0108913A0108913A01088E
S31508010310913A0108913A0108913A0108913A01087E
S31508010320913A0108913A0108913A0108913A01086E
S31508010330913A0108913A0108913A0108913A01085E
S31508010340913A0108913A0108913A0108A52E010846
S31508010350913A0108913A0108913A0108B92E010822
S31508010360913A0108913A0108913A0108913A01082E
S31508010370913A0108D92E0108913A010800000000B6
S30D08010380913A0108913A0108BE
S3150801038810B5054C237833B9044B13B10448AFF3B8
S3150801039800800123237010BDC4010020000000005D
S315080103A87C49020808B5034B1BB103490348AFF357
S315080103B8008008BD00000000C80100207C49020829
S315080103C853B94AB9002908BF00281CBF4FF0FF31A5
S315080103D84FF0FF3000F088B9ADF1080C6DE904CE8D
S315080103E800F006F8DDF804E0DDE9022304B07047F9
S315080103F82DE9F047089D8E4604468846002B4AD1C2
S315080104088A42174662D9B2FA82F64EB1C6F1200374
S3150801041801FA06F820FA03F3B74043EA0808B44094
S315080104284FEA174E1FFA87FCB8FBFEF1230C0EFBA1
S31508010438118843EA084301FB0CF29A4209D9FB18C9
S3150801044801F1FF3080F0EA809A4240F2E7800239EA
S315080104583B449A1AA3B2B2FBFEF00EFB102243EAFA
S31508010468024300FB0CFC9C4509D9FB1800F1FF3235
S3150801047880F0D6809C4540F2D3803B44023840EA56
S315080104880140A3EB0C0300211DB1F3400022C5E985
S315080104980032BDE8F0878B4205D90DB1C5E90001DF
S315080104A800210846F5E7B3FA83F1002946D17345D1
S315080104B802D3824200F20581841A6EEB03020120F7
S315080104C89046002DE5D0C5E90048E2E7002A00F084
S315080104D89080B2FA82F6002E40F0A4808A1A030C9C
S315080104E84FEA174E80B2BCB20121B2FBFEFC0EFBE5
S315080104F81C2243EA024304FB0CF29A4207D9FB1869
S315080105080CF1FF3802D29A4200F2E080C4469B1ADF
S31508010518B3FBFEF20EFB123340EA034302FB04F473
S315080105289C4207D9FB1802F1FF3002D29C4200F21D
S31508010538CA8002461B1B42EA0C40A5E7C1F1200600
S315080105488B4022FA06F71F430EFA01F420FA06F33E
S315080105582EFA06FE4FEA1749234300FA01F81FFA4D
S3150801056887FCBEFBF9F01C0C09FB10EE44EA0E44A5
S3150801057800FB0CFEA64502FA01F209D93C1900F15D
S31508010588FF3A80F09C80A64540F2998002383C449F
S31508010598A4EB0E041FFA83FEB4FBF9F309FB134413
S315080105A84EEA044403FB0CFCA44508D93C1903F19B
S315080105B8FF3E80F08280A4457FD9023B3C4443EA4A
S315080105C80040A4EB0C04A0FB02EC64457346E14623
S315080105D862D35FD05DB1B8EB030264EB090404FA90
S315080105E806F622FA01F31E43CC40C5E90064002148
S315080105F84FE7B1FBF2FC010C41EA0E4180B240EA31
S3150801060801423B4638463C46B846BE462026B1FB1B
S31508010618F7F1A2EB080241EA0C4166E7014618E739
S3150801062810462CE7C6F120022EFA02F3B740B1406C
S3150801063820FA02F24FEA174E0A43B3FBFEF8BCB298
S315080106480EFB1833110C41EA034108FB04F9B040C3
S3150801065889454FEA104380B23ED9791808F1FF3C1B
S3150801066801D289451FD8A1EB0901B1FBFEF909FB9E
S3150801067804F80EFB191192B242EA0142424529D2FF
S31508010688BA1809F1FF31C4D24245C2D2A9F1020109
S315080106983A44BEE7F0459DD2BEEB02036CEB070C64
S315080106A80138E14696E7A7EB09094944A8F1020C7E
S315080106B8B1FBFEF909FB04F8DBE773467FE7504609
S315080106C866E70846FDE63B44023A33E7ACF1020C15
S315080106D83B441CE749469CE7A1EB0901C446B1FB23
S315080106E8FEF909FB04F8C4E7704700BF80B485B072
S315080106F800AF0346FB710223FB60FB7903F0F003A5
S31508010708F02B0CD0FB7903F0F003C02B01D0D02BCA
S3150801071802D10123FB6038E00223FB6035E0FB794F
S31508010728F13B0E2B8CBF01220022D2B2002A29D115
S31508010738012202FA03F346F6A0621A40002A14BFF8
S3150801074801220022D2B2002A15D141F218121A4002
S31508010758002A14BF01220022D2B2002A0ED103F0C0
S315080107680503002B14BF01230023DBB2002B09D094
S315080107780123FB6009E00023FB6006E04FF0FF3325
S31508010788FB6002E00223FB6000BFFB6818461437CA
S31508010798BD465DF8047B704780B483B000AF0F4B44
S315080107A83B6000237B600CE03B681B884FF6FF72B1
S315080107B893420AD03B6803F58A633B607B68013339
S315080107C87B607B681F2BEFDD00E000BF7B6818465E
S315080107D80C37BD465DF8047B704700BF00000E085C
S315080107E880B582B000AF01F07BFC78607B681B6836
S315080107F80B20984700BF0837BD4680BD80B584B031
S3150801080800AF7860396001F06BFCF8607B684FF4DB
S315080108188A6202FB03F303F1006303F56023BB60F5
S31508010828FB689B68B8684FF48A623968984700BFBD
S315080108381037BD4680BD000080B584B000AF01F011
S315080108484FFC78601C4BBB600423FB6008E07B689F
S315080108589B68B868822219499847BB688233BB6086
S31508010868FB685A1EFA60002BF1D10423FB6008E0E5
S315080108787B689B68B868822210499847BB688233A7
S31508010888BB60FB685A1EFA60002BF1D10423FB6092
S3150801089808E07B689B68B868102209499847BB68CD
S315080108A81033BB60FB685A1EFA60002BF1D100BFF2
S315080108B800BF1037BD4680BD00000E08784A0208F9
S315080108C8FC4A020880B586B000AF404BBB60BB68DE
S315080108D81B68002B26D100237B610EE03C4A7B6905
S315080108E852F823003B4A7B6932F81330012219462C
S315080108F803F07AFF7B6901337B617B69032BEDDDA5
S31508010908BB685B68324A52F82300BB685B68314AA0
S3150801091832F813300022194603F066FFBB68012234
S315080109281A604FE02C4B7B602C4B1B69DB431B0A77
S31508010938DAB2BB685B6802F03F02D1B2BA681344FF
S315080109480A461A72BB685B685A1CBB685A60BB6858
S315080109585B685A4203F0030302F0030258BF534285
S31508010968BA685360BB6800221A6010211C4803F054
S3150801097823FF0346012B04D17B68022283F815213C
S3150801098820E00023FB6000233B610CE0BA683B6961
S31508010998134408331B78002B02D0FB680133FB602C
S315080109A83B6901333B613B69032BEFDDFB68002B90
S315080109B804D17B68012283F8152103E07B680022AC
S315080109C883F8152100BF1837BD4680BD841B001062
S315080109D81C4A0208344A0208901B001000100240FB
S315080109E80000024080B483B000AF7860054A7B688E
S315080109F8134408331B7818460C37BD465DF8047B43
S31508010A08704700BF841B001080B584B000AF7860BA
S31508010A1802F044FCF860FB68DB6B7A68D2B21046D0
S31508010A2898470346002B06D1FB689B6B7A68D2B2B6
S31508010A380A211046984700BF1037BD4680BD80B5C4
S31508010A4882B000AF02F02AFC786008233B607B6815
S31508010A58DB6B3A68D2B2104698470346002B06D193
S31508010A687B689B6B3A68D2B20A211046984700BF41
S31508010A780837BD4680BD80B584B000AF786002F0FE
S31508010A880DFCF860FB68DB6B7A68D2B20432D2B225
S31508010A98104698470346002B08D1FB689B6B7A6872
S31508010AA8D2B20432D2B20A211046984700BF10378B
S31508010AB8BD4680BD80B582B000AF02F0EFFB786015
S31508010AC809233B607B68DB6B3A68D2B210469847C4
S31508010AD80346002B06D17B689B6B3A68D2B20A217A
S31508010AE81046984700BF0837BD4680BD80B588B00F
S31508010AF800AF02F0D3FB3861424BFB600523BB60AC
S31508010B0808237B600023BB6100237B610023FB610B
S31508010B1814E03B691B6CFA69D2B21046984703463A
S31508010B281A46BB68934206DC0122FB6902FA03F3FB
S31508010B38BA691343BB61FB690133FB61FB69032B83
S31508010B48E7DD0023FB6116E03B691B6CFA69D2B243
S31508010B580432D2B21046984703461A46BB689342EE
S31508010B6806DC0122FB6902FA03F37A6913437B61FE
S31508010B78FB690133FB61FB69032BE5DDFB681B7820
S31508010B88002B20D03B691B6C7A68D2B2104698476D
S31508010B9803461A46BB68934203DCBB6943F0400324
S31508010BA8BB613B691B6C7A68D2B20132D2B2104674
S31508010BB8984703461A46BB6893420CDC7B6943F09F
S31508010BC840037B6107E0BB6943F04003BB617B696E
S31508010BD843F040037B61BB69DB431B0403F47F02D3
S31508010BE8BB691A43FB68DA607B69DB431B0403F4B8
S31508010BF87F027B691A43FB681A6100BF2037BD4625
S31508010C0880BD00BF901B001080B485B000AF786026
S31508010C180023FB6002E0FB680133FB607B685A1C12
S31508010C287A601B78F72BF6D1FB680133FB60FB6802
S31508010C3818461437BD465DF8047B704780B588B0F9
S31508010C4800AFF860B9607A60FB70FB684FF44472CC
S31508010C5802FB03F39A4A1344BB619A4AFB6852F8A2
S31508010C6823307B6100BF7B691B6803F08003002B77
S31508010C78F9D0954B93F81531012B40F03A81FB7859
S31508010C88002B40F0E880BB681B785BB2002B5FDA63
S31508010C98BB681B7803F0F003F02B13D0BB6901225C
S31508010CA883F80E23BB681A78BB6983F80D23BB68DA
S31508010CB81B781846FFF71AFD0346DAB2BB6983F8AB
S31508010CC80C2384E0BB681B78F02B09D1BB69012288
S31508010CD883F80E23BB681A78BB6983F80D2376E077
S31508010CE8BB681B78F72B04D1BB69002283F80E234E
S31508010CF86DE0BB681B781846FFF7F8FC0346002B1E
S31508010D0809D1BB681B78FE2B61D1BB6993F80E33F1
S31508010D18002B5CD0FBE0BB681B781846FFF7E6FC9E
S31508010D280346B3F1FF3F52D0BB69012283F80E236C
S31508010D38BB681A78BB6983F80D23BB681B78184604
S31508010D48FFF7D4FC0346DAB2BB6983F80C233EE005
S31508010D58BB6993F80C33013BDAB2BB6983F80C23F8
S31508010D68BB6993F80E3383F00103DBB2002B15D068
S31508010D78BB695B68591CBA695160BA6992F80D135F
S31508010D88BA6913440A461A72BB695B68C3F308024F
S31508010D98BB695A60BB69012283F80E23BB6993F8BC
S31508010DA80D33F02B13D0BB6993F80C33002B0ED1F6
S31508010DB8BB69002283F80E23BB6993F80D331846DD
S31508010DC8FFF794FC0346DAB2BB6983F80C23BB69BF
S31508010DD85B68591CBA695160BA681178BA691344CB
S31508010DE80A461A72BB695B68C3F30802BB695A608B
S31508010DF8BB6993F80E3383F00103DBB2002B7DD070
S31508010E08BB69D3F80832002B78D00023FB6117E0B9
S31508010E18BB695B68591CBA695160B969FA690A44B8
S31508010E2802F503721178BA6913440A461A72BB693C
S31508010E385B68C3F30802BB695A60FB690133FB6146
S31508010E48BB69D3F80832FA699A42E1DBBB69002221
S31508010E58C3F8082252E0BB6993F80E33002B29D050
S31508010E680FE0BA68531CBB60BB69D3F80832581C33
S31508010E78B969C1F808021178BA6913440A4683F8A8
S31508010E880C227B685A1E7A60002BEAD136E0BA68CA
S31508010E98531CBB60BB695B68581CB9694860117803
S31508010EA8BA6913440A461A72BB695B68C3F308022E
S31508010EB8BB695A607B685A1E7A60002BE7D11DE028
S31508010EC834070010404A0208901B0010BA68531CE0
S31508010ED8BB60BB695B68581CB96948601178BA690F
S31508010EE813440A461A72BB695B68C3F30802BB69ED
S31508010EF85A607B685A1E7A60002BE7D17B69DB68E2
S31508010F0843F080027B69DA60F868FFF7B4FD203799
S31508010F18BD4680BD80B58EB000AFF860B9607A600D
S31508010F28774BFB61FB691B78002B00F0E580FB69B1
S31508010F3814337B6302F0B2F9B861BB681B78F02BEE
S31508010F4840F09580B868FFF75FFE78617B696D4A5E
S31508010F5882FB0312DB17D31A3B637A69694B83FB56
S31508010F680231D317C91A0B465B000B44D31AFB6225
S31508010F783B6B9B003B62FB6A002B05D13B6B013B34
S31508010F883B630323FB6202E03B6A04333B620023AB
S31508010F98BB621FE0FB685BB21B015BB243F004034B
S31508010FA859B27B6B5A1C7A63CAB21A7000237B62E0
S31508010FB80AE0BA68531CBB607B6B591C79631278C3
S31508010FC81A707B6A01337B627B6A022BF1DDBB6A85
S31508010FD80133BB62BA6A3B6B9A42DBDBFB685BB2DD
S31508010FE81B015AB2FB6ADBB20433DBB25BB21343A9
S31508010FF859B27B6B5A1C7A63CAB21A700023BB6250
S315080110080AE0BA68531CBB607B6B591C7963127872
S315080110181A70BB6A0133BB62BA6AFB6A9A42F0DB89
S31508011028BB695B69012098470FE0BB699B699847CB
S315080110380346002B09D0FB6900221A7001224FF4D6
S315080110480051314803F0D0FB05E030480BF084FF26
S315080110580346002BE9D1FB6914333A6A92B2194659
S315080110682A480BF087FFFB6905225A6042E0FB68AC
S315080110785BB21B015AB2BB681B781B09DBB25BB2B0
S31508011088134359B27B6B5A1C7A63CAB21A7007E0C2
S31508011098BA68531CBB607B6B591C796312781A7042
S315080110A87B685A1E7A60002BF2D1BB695B690120FD
S315080110B898470FE0BB699B6998470346002B09D0F7
S315080110C8FB6900221A7001224FF400510E4803F0F9
S315080110D88BFB05E00D480BF03FFF0346002BE9D1D2
S315080110E8FB6914330422194608480BF043FFFB69C8
S315080110F805225A60FFF7DEFC00BF3837BD4680BDBA
S31508011108901B001056555555000C02408C090020B5
S3150801111880B485B000AF78607B681B68FB607B6824
S3150801112804331B6823F07F4323F47023BB60FB68F1
S315080111380A4A934203D0FB68094A934206D1BB6817
S3150801114841F21202934201D1012300E00023184615
S315080111581437BD465DF8047B704700BFF04110455A
S31508011168F041104280B483B000AF786039607B687B
S315080111781B7803F0F003F02B0FD13B681B881A463E
S315080111887B681B7803F00F0342FA03F303F00103A4
S31508011198002B40F04A81012348E17B681B7803F05C
S315080111A8F003E02B00F02581E02B00F33E81D02BDC
S315080111B800F01081D02B00F33881C02B00F0FB809A
S315080111C8C02B00F33281B02B3CD0B02B00F32D8114
S315080111D8A02B27D0A02B00F32881802B02D0902B97
S315080111E810D022E13B689B881A467B681B7803F076
S315080111F80F0342FA03F303F00103002B40F00881B9
S31508011208012313E13B68DB881A467B681B7803F0E0
S315080112180F0342FA03F303F00103002B40F0FA80A7
S31508011228012303E13B681B891A467B681B7803F08F
S315080112380F0342FA03F303F00103002B40F0EC8095
S315080112480123F3E07B6801331B78772B0FD83B68BA
S315080112585B891A467B681B7803F00F0342FA03F386
S3150801126803F00103002B40F0D9800123DEE07B68F7
S3150801127801331B78783B072B00F28C8001A252F8C0
S3150801128823F000BFAD120108CB120108E9120108C3
S3150801129807130108251301084313010861130108F7
S315080112A87F1301083B685B8A1A467B681B7803F03B
S315080112B80F0342FA03F303F00103002B6CD1012350
S315080112C8B4E03B689B8A1A467B681B7803F00F03D0
S315080112D842FA03F303F00103002B5FD10123A5E0CA
S315080112E83B68DB8A1A467B681B7803F00F0342FAC8
S315080112F803F303F00103002B52D1012396E03B685F
S315080113081B8B1A467B681B7803F00F0342FA03F313
S3150801131803F00103002B45D1012387E03B685B8B6A
S315080113281A467B681B7803F00F0342FA03F303F0A6
S315080113380103002B38D1012378E03B689B8B1A46B9
S315080113487B681B7803F00F0342FA03F303F00103E2
S31508011358002B2BD1012369E03B68DB8B1A467B6896
S315080113681B7803F00F0342FA03F303F00103002B7A
S315080113781ED101235AE03B681B8C1A467B681B78E9
S3150801138803F00F0342FA03F303F00103002B11D10B
S3150801139801234BE000BF0EE000BF0CE000BF0AE0E6
S315080113A800BF08E000BF06E000BF04E000BF02E096
S315080113B800BF00E000BF3B689B891A467B681B781B
S315080113C803F00F0342FA03F303F00103002B27D1B5
S315080113D801232BE03B68DB891A467B681B7803F0F7
S315080113E80F0342FA03F303F00103002B1AD1012371
S315080113F81CE03B681B8A1A467B681B7803F00F03B7
S3150801140842FA03F303F00103002B0DD101230DE082
S3150801141800BF0AE000BF08E000BF06E000BF04E01D
S3150801142800BF02E000BF00E000BF002318460C37E2
S31508011438BD465DF8047B704780B598B000AFF86083
S31508011448B9607A60A04BFB63F868FFF7CBFA0346E5
S3150801145887F85F3000237B659C4BBB63FB6B93F86E
S3150801146814311A464FF48A6302FB03F303F1006247
S3150801147802F56022F9680B469B010B445B0013448D
S315080114887B630023BB650DE0BB685A1CBA601978F3
S31508011498BA6BBB6D134403F5BE630A461A70BB6D76
S315080114A80133BB65BA6D7B689A42EDDBBB6B93F872
S315080114B8F03503F00F033B63FB6B93F81531022BE9
S315080114C84FD1BB6B93F8F03503F0F003B02B1DD160
S315080114D8BB6B93F8F135002B09D1BB6B93F8F23541
S315080114E87F2B04D1FB6B012283F81621BFE2BB6B64
S315080114F893F8F135202B09D1BB6B93F8F2357F2B7D
S3150801150804D1FB6B012283F81721B0E2FB6B93F830
S315080115181631002B25D0FB6B93F81731002B20D0F9
S31508011528BB6B93F8F03503F0F003C02B19D1BB6BED
S3150801153893F8F13587F82F30FFF72EF9024697F811
S315080115482F309A4204DDFB6B97F82F2083F8142174
S31508011558FB6B002283F81621FB6B002283F81721FF
S3150801156885E2BB6B03F5BE637A681946F868FFF727
S31508011578D1FCFB6B93F81531012B00F06D82FB6BDF
S3150801158893F81531022B40F0C580BB6B03F5BE6392
S31508011598796B1846FFF7E6FD0346002B40F05E8295
S315080115A8BB6B03F5BE631846FFF7B2FD0346002B6E
S315080115B806D07B6B5B8803F00103002B00F0508291
S315080115C8BB6B93F8F03503F0F003802B06D0BB6BA1
S315080115D893F8F03503F0F003902B44D1BB6B93F8DD
S315080115E8F13587F82E307A6B3B6B10339B00134421
S315080115F89B7887F82D307A6B3B6B10339B00134425
S31508011608DB7887F82C3097F82E2097F82D309A42F0
S31508011618C0F0288297F82E2097F82C309A4200F2C3
S3150801162823827A6B3B6B10339B0013449B887B851B
S3150801163897F82E309AB27B8D194649000B449B00C0
S315080116489BB213449BB23B85B7F92830002BC0F2ED
S315080116580D82B7F928307F2B00F308823B8DDAB261
S31508011668BB6B83F8F125BB6B93F8F03503F0F003F0
S31508011678F02B4FD000233B6549E07A6B3B6B10335F
S315080116885B0013445B881A463B6D42FA03F303F081
S315080116980103002B38D0BB6B93F8F0355BB223F006
S315080116A80F035AB23B6D5BB213435BB2D8B2B96B3F
S315080116B87A6D13465B0013440B4403F5DE63024651
S315080116C81A700123FB6418E0901B00101000001023
S315080116D8BA6BFB6C134403F5BE631878B96B7A6D5C
S315080116E813465B001344CA18FB6C134403F5DE63FF
S315080116F802461A70FB6C0133FB64FA6C7B689A42E2
S31508011708E6DB7B6D01337B653B6D01333B653B6DE1
S315080117180F2BB2DDFB6B93F81531002B1CD1002377
S31508011728BB6515E097F85F3003F00103002B07D076
S31508011738BB6B03F5BE6100237A68B86DFFF77EFABD
S3150801174897F85F305B0887F85F30BB6D0133BB6577
S31508011758BB6D032BE6DD8AE1FB6B93F814311A4658
S315080117684FF48A6302FB03F303F1006303F560236D
S31508011778FA684132120113447B620023BB6566E1AC
S31508011788FB6B93F814311A464FF48A6302FB03F389
S3150801179803F1006202F56022B96D0B469B010B4401
S315080117A85B0003F5027313443B62BB6B93F8F03590
S315080117B803F0F003F02B00F011810023BB6407E165
S315080117C8B96BBA6C13465B0013440B4403F5DE6325
S315080117D81B7803F00F03FB6100237B64F1E0012307
S315080117E887F84330002387F842303A6A7B6C10330E
S315080117F89B0013449B887B837B6ABA6D33F8223036
S315080118081A46FB6942FA03F303F00103002B00F0B9
S31508011818D5803A6AFB6910335B0013445B881A461C
S315080118287B6C42FA03F303F00103002B00F0C68030
S31508011838B96BBA6C13465B0013440B4403F5DE63B4
S315080118481B7803F0F003802B0CD0B96BBA6C1346DE
S315080118585B0013440B4403F5DE631B7803F0F003BE
S31508011868902B40D1B96BBA6C13465B0013440B44F1
S3150801187803F2F1631B787B763A6A7B6C10339B001B
S3150801188813449B783B763A6A7B6C10339B00134466
S31508011898DB78FB75012387F842307A7E3B7E9A42CC
S315080118A803D2002387F843301DE07A7EFB7D9A42EE
S315080118B803D9002387F8433015E07B7E9AB27B8BE0
S315080118C8194649000B449B009BB213449BB2BB8241
S315080118D8B7F91430002B03DBB7F914307F2B02DD77
S315080118E8002387F84330BA6C13465B00134403F5A3
S315080118F8DE63BA6B1344396A1846FFF733FC0346A5
S31508011908002B02D0002387F8433097F84330002B81
S3150801191854D0B96BBA6C13465B0013440B4403F5F0
S31508011928DE631B7823F00F03DAB2BB6B83F8202733
S31508011938BB6B93F820375AB27B6C5BB213435BB225
S31508011948DAB2BB6B83F8202797F84230002B15D0FB
S31508011958B96BBA6C13465B0013440B4403F2F16383
S315080119681A787B8BDBB2194649000B449B00DBB21C
S315080119781344DAB2BB6B83F821270BE0B96BBA6C4F
S3150801198813465B0013440B4403F2F1631A78BB6BE5
S3150801199883F82127B96BBA6C13465B0013440B44C9
S315080119A803F2F2631A78BB6B83F82227BB6B03F53C
S315080119B8E46100237A68B86DFFF740F97B6C013357
S315080119C87B647B6C0F2B7FF70AAFBB6C0133BB6457
S315080119D8BA6C7B6D9A42FFF6F3AE35E0BB6B03F53D
S315080119E8BE631846FFF794FB0346002B11D07A6AA3
S315080119F8BB6D9B0013445B8803F00203002B23D0BD
S31508011A08BB6B03F5BE6100237A68B86DFFF716F953
S31508011A181AE07A6ABB6D9B0013445B8803F00103DD
S31508011A28002B11D0BB6B03F5BE63396A1846FFF75D
S31508011A3899FB0346002B07D1BB6B03F5BE6100234F
S31508011A487A68B86DFFF7FAF8BB6D0133BB65BB6DEC
S31508011A58032B7FF795AE0AE000BF08E000BF06E052
S31508011A6800BF04E000BF02E000BF00E000BF603726
S31508011A78BD4680BD80B582B000AF0C4B7B607B68E4
S31508011A881B78002B0ED07B685B68002B05D10222D8
S31508011A9807490020FFF73EFA04E07B685B685A1E8F
S31508011AA87B685A6000BF0837BD4680BD901B001089
S31508011AB8744A020880B582B000AF094B7B600948B1
S31508011AC80BF04AFA0346002B03D17B6801221A70E8
S31508011AD802E07B6800221A7000BF0837BD4680BD40
S31508011AE8901B00108C09002080B483B000AF786081
S31508011AF87B68202283F8412000BF0C37BD465DF874
S31508011B08047B704780B487B000AF78602A4A7B683F
S31508011B1852F823307B617B691B6803F02003002B8D
S31508011B2816D07B695B68FB747A681346DB01134434
S31508011B389B00224A1344FB60FB681B785A1CD1B2E6
S31508011B48FA6811701A46FB681344FA7C83F804216B
S31508011B587B691B6803F08003002B26D07B684FF44A
S31508011B68447202FB03F3164A1344BB60BB681A683E
S31508011B78BB685B689A4211D0BB681B68591CBA686E
S31508011B881160BA6813441B7A1A467B695A60BB689E
S31508011B981B68C3F30802BB681A6006E07B69DA6842
S31508011BA84FF67F7313407A69D36000BF1C37BD4669
S31508011BB85DF8047B704700BF404A02087413001099
S31508011BC83407001080B483B000AF254B7B60254BE2
S31508011BD81B6903F00403002B12D07B681B78002BC2
S31508011BE804D0214B4FF47F029A6102E01E4B1F4A2B
S31508011BF89A611C4B1B691B4A83F00403136129E08C
S31508011C08184B1B6903F00203002B23D07B689B68DA
S31508011C18002B07D1164B174A9A617B68DA68124B6B
S31508011C289A6106E0124B144A9A617B681A690E4B47
S31508011C389A617B689B685A1C7B689A607B689B6873
S31508011C4803F00F027B689A60064B1B69054A83F005
S31508011C580203136100BF0C37BD465DF8047B704764
S31508011C68901B001000040040001002404000BF000D
S31508011C78000C0240010002000200010080B584B090
S31508011C8800AF674BBB600023FB60BFE0FA681346E9
S31508011C98DB0113449B00634A13447B60ACE07B6811
S31508011CA85B781A467B68134493F80431FB70BB6862
S31508011CB893F81531012B05D1F91C00230122F8687F
S31508011CC8FEF7BCFFFB785BB2002B5FDAFB7803F003
S31508011CD8F003F02B0ED0FA787B681A71FB78184650
S31508011CE8FEF704FD0346DAB27B689A707B6801221F
S31508011CF8DA707BE0FB78F02B06D1FA787B681A71E3
S31508011D087B680122DA7071E0FB78F72B16D17B68BC
S31508011D18DB785A1CD1B27A68D1701946FA787B6889
S31508011D280B441A717B68191D7B68DB781A46F868B3
S31508011D38FFF782FBF868FEF767FE57E0FB78184657
S31508011D48FEF7D4FC0346002B09D1FB1C01221946D0
S31508011D58F868FFF771FBF868FEF756FE46E0FB7868
S31508011D681846FEF7C3FC0346B3F1FF3F3ED0FA789F
S31508011D787B681A71FB781846FEF7B8FC0346DAB28F
S31508011D887B689A707B680122DA702FE07B689B78FA
S31508011D98013BDAB27B689A707B68DB785A1CD1B248
S31508011DA87A68D1701946FA787B680B441A717B6888
S31508011DB81B79F02B1AD07B689B78002B16D17B6888
S31508011DC8191D7B68DB781A46F868FFF735FBF8684A
S31508011DD8FEF71AFE7B681B791846FEF787FC034649
S31508011DE8DAB27B689A707B680122DA707B685B785D
S31508011DF80133DAB27B685A707B681A787B685B7834
S31508011E089A427FF44CAFFB680133FB60FB68032BEE
S31508011E187FF73CAF00BF00BF1037BD4680BD00BF86
S31508011E28901B00107413001090B587B000AF786046
S31508011E380B46FB70484B7B617B6905225A60FEF7A6
S31508011E48FEFD7FE07B681B7803F00F033B617B6827
S31508011E581B781B09DBB2FB603B690F2B5AD801A219
S31508011E6852F823F03F1F01083F1F0108AD1E01085C
S31508011E78BD1E0108CD1E0108DD1E0108ED1E01085B
S31508011E88FD1E01081D1F01081D1F01081D1F010848
S31508011E981D1F01081D1F01081D1F01081D1F010817
S31508011EA80D1F01087B68591C01230222F868FEF7F1
S31508011EB8C5FE41E07B68591C01230322F868FEF731
S31508011EC8BDFE39E07B68591C01230322F868FEF731
S31508011ED8B5FE31E07B68591C01230122F868FEF733
S31508011EE8ADFE29E07B68591C01230222F868FEF732
S31508011EF8A5FE21E07B68591C01230322F868FEF731
S31508011F089DFE19E07B68591C01230122F868FEF732
S31508011F1895FE11E07B685C1C3B69DBB21B01DBB2F1
S31508011F281846FEF7E3FB03465A1C01232146F868BF
S31508011F38FEF784FE00E000BFFB78043BFB707B6874
S31508011F4804337B60FB78002B7FF47CAF00BF00BFAE
S31508011F581C37BD4690BD00BF901B001090B587B0D1
S31508011F6802AF01F09BF9B8600023FB600DE0124A45
S31508011F78FB6852F823307B607B68DB6843F02002F4
S31508011F887B68DA60FB680133FB60FB68032BEEDDCF
S31508011F980A4BDB68094A43F00603D360BB68DC6968
S31508011FA8074B00930123022201210020A04700BF05
S31508011FB81437BD4690BD00BF404A020800040040D8
S31508011FC87D1A010880B400AF024B1846BD465DF874
S31508011FD8047B70470C4B020880B588B000AF78605F
S31508011FE80023FB610023BB607B683B6101237B619E
S31508011FF80223BB6101F0C2FF07F11C0207F10803BE
S315080120081146184602F01CF901F0DAFF00BF20371D
S31508012018BD4680BDB0B582B000AF78600B46FB708F
S3150801202801F0ACFFFB7800221C46154622462B46D2
S315080120387968002001F050FF01F0C2FF00BF083798
S31508012048BD46B0BDB0B584B000AFF860B9607A6076
S3150801205801F094FF0FE0F9684B1CFB60BB685A1C3A
S31508012068BA601B78DBB200221C46154622462B4667
S31508012078002001F031FF7B685A1E7A60002BEAD1ED
S3150801208801F09EFF00BF1037BD46B0BDB0B582B09E
S3150801209800AF7860396001F071FF0FE079684B1C71
S315080120A87B603B685A1C3A601B78DBB200221C46E7
S315080120B8154622462B46002001F00EFF3B681B7881
S315080120C8002BEBD14FF000024FF00003796800208E
S315080120D801F002FF01F074FF00BF0837BD46B0BD25
S315080120E880B400AF024B1846BD465DF8047B7047BD
S315080120F82C4B020880B483B000AF0B4B7B600B4BAB
S315080121085B680A4A0A49A1FB0313DB0853607B6823
S3150801211801221A717B6800221A6000BF0C37BD4676
S315080121285DF8047B704700BFE001002010E000E07D
S31508012138CDCCCCCC80B400AF00BFBD465DF8047BDE
S315080121487047000080B483B000AF1C4B7B607B6886
S315080121581B7983F00103DBB2002B08D0184B1B78D7
S315080121681A46184B1B681344164A13601FE07B6806
S315080121781B685A1C7B681A607B681968124B83FBB3
S3150801218801239A10CB17D21A13469B0013445B00F6
S31508012198CA1A7B681A607B681B68002B07D1084B2B
S315080121A81B781A46074B1B681344064A136000BF77
S315080121B80C37BD465DF8047B704700BFE001002077
S315080121C808000020080900206766666680B582B09F
S315080121D800AF174B7B60174B1B78022B11D17B6815
S315080121E81B7883F00103DBB2002B1CD07B68012224
S315080121F81A707B685B68002B15D07B685B68984703
S3150801220811E00C4B1B78032B0DD17B681B78002B2F
S3150801221809D07B6800221A707B689B68002B02D05C
S315080122287B689B68984700BF0837BD4680BD00BFD5
S31508012238E80100203817002080B400AF00BFBD466A
S315080122485DF8047B7047000080B400AF034B1B7828
S315080122581846BD465DF8047B704700BFE8010020B3
S3150801226880B483B000AF7860044A7B68536000BFC6
S315080122780C37BD465DF8047B704700BFE8010020AE
S3150801228880B483B000AF7860044A7B68936000BF66
S315080122980C37BD465DF8047B704700BFE80100208E
S315080122A880B400AF024B1846BD465DF8047B7047FB
S315080122B83C4B020880B400AFBFF34F8F00BF064BF3
S315080122C8DB6803F4E0620449044B1343CB60BFF3AC
S315080122D84F8F00BF00BFFDE700ED00E00400FA05D7
S315080122E890B585B000AF354BBB6001224FF48041EC
S315080122F8334802F079FA0121324802F05DFA0346B9
S31508012308012B01D1FFF7D6FF2F4B1B685B6898474E
S315080123182D4B1B685B69BA6802F58A6211462B4818
S31508012328984778607B68002B44D0294B1B689B69C2
S3150801233898470023FB6033E0234B1B681C69FA683E
S3150801234813465B0013449B00134403F58A63BA6872
S31508012358134403211846A04738603B68002B1CDD47
S315080123683B68202B19DC184B1B689C69FA681346CD
S315080123785B0013449B00134403F58A63BA68134444
S31508012388B9684FF48A621846A047114B1B68DB697E
S315080123983A68013AB96810469847FB680133FB6001
S315080123A8FA687B689A42C7DB01224FF40041044860
S315080123B802F01AFA00BF1437BD4690BD1000001086
S315080123C8000C0240000002406803002094490208F4
S315080123D86003002080B500AF00224FF4804105480C
S315080123E802F002FA00224FF40041024802F0FCF911
S315080123F800BF80BD000C024080B500AF01F046FB66
S3150801240800F09AF800F03CFA00F092F900F0BAF9EF
S3150801241800F0E2F911F010FA00F008FA00F0F6F8FF
S315080124280AF08EFB11F042FE374BFF221A7000F0B4
S3150801243835FF0346354A1360344B1B681B689847B2
S315080124480021334806F0B0FA0121314806F0ACFA02
S31508012458FFF7B8FD03462F4A13602E4B1B681B6806
S315080124689847FFF73DFE03462B4A13602B4B1B780B
S31508012478FF2B03D1274B1B685B699847FFF710FFAA
S315080124880346274A1360264B1B68DB682548984785
S31508012498234B1B681B6924489847002201212348B6
S315080124A802F0A2F900F0F0FE0346214A1360204B18
S315080124B81B681B689847154B1B685B689847034652
S315080124C8002B12D0114B1B68DB68984703461A463E
S315080124D84FF48051174802F087F90E4B1B685B6861
S315080124E898470F4B1B689B6898470A4B1B689B685C
S315080124F89847084B1B68DB689847064B1B681B6996
S31508012508984711F0F9FDD6E7000000105C03002092
S31508012518F4010020600300206C03002000000E0867
S3150801252864030020E9220108DD23010800080240A6
S3150801253868030020000C024080B594B000AF07F18B
S31508012548200330220021184612F078F907F10C0306
S3150801255800221A605A609A60DA601A610023BB6021
S31508012568284B1B6C274A43F080531364254B1B6C75
S3150801257803F08053BB60BB6800237B60224B1B6852
S31508012588214A43F4804313601F4B1B6803F48043B5
S315080125987B607B6801233B624FF4A0237B6202239D
S315080125A8BB634FF48003FB6308233B644FF4A873AA
S315080125B87B640223BB640723FB6407F120031846DF
S315080125C805F0B2FC0346002B01D000F059FA0F2397
S315080125D8FB6002233B6100237B614FF4A053BB6177
S315080125E84FF48053FB6107F10C030521184605F0E2
S315080125F813FF0346002B01D000F042FA00BF5037FB
S31508012608BD4680BD003802400070004080B58EB0D6
S3150801261800AF07F1280300221A605A609A60DA6047
S3150801262807F1200300221A605A603B1D00221A602E
S315080126385A609A60DA601A615A619A613A4B3B4A5A
S315080126481A60394B53225A60374B00229A60364B27
S3150801265840F2F312DA60344B00221A61324B8022B7
S315080126689A61314806F0F8F80346002B01D000F0C4
S3150801267807FA4FF48053BB6207F1280319462A481B
S3150801268806F0F4FB0346002B01D000F0F9F92648B9
S3150801269806F031F90346002B01D000F0F1F90023C1
S315080126A83B6200237B6207F1200319461E4806F0A0
S315080126B8EDFF0346002B01D000F0E2F900237B6009
S315080126C80A23BB600023FB6000237B613B1D0022B4
S315080126D81946154806F06EFB0346002B01D000F093
S315080126E8CFF9114B1B689A690F4B1B6842F0080210
S315080126F89A614FF4C873BB603B1D042219460A4800
S3150801270806F058FB0346002B01D000F0B9F9064B31
S315080127181B689A69044B1B6842F400629A6100BFF8
S315080127283837BD4680BD00BFF401002000040040CB
S3150801273880B500AF114B124A1A60104B47F61222A0
S315080127485A600E4B00229A600C4B4FF40052DA601D
S315080127580A4B00221A61094B0C225A61074B0022BF
S315080127689A61064B0022DA61044807F01FF8034606
S31508012778002B01D000F084F900BF80BD3C0200207F
S315080127880010014080B500AF114B124A1A60104B70
S3150801279847F612225A600E4B00229A600C4B4FF4E8
S315080127A80052DA600A4B00221A61094B0C225A6157
S315080127B8074B00229A61064B0022DA61044806F0A3
S315080127C8F5FF0346002B01D000F05AF900BF80BD7A
S315080127D8840200200044004080B500AF114B124A1C
S315080127E81A60104B47F612225A600E4B00229A605D
S315080127F80C4B4FF40052DA600A4B00221A61094B56
S315080128080C225A61074B00229A61064B0022DA61AB
S31508012818044806F0CBFF0346002B01D000F030F937
S3150801282800BF80BDCC0200200048004080B500AF3B
S31508012838114B124A1A60104B47F612225A600E4B70
S3150801284800229A600C4B4FF40052DA600A4B0022B8
S315080128581A61094B0C225A61074B00229A61064BE9
S315080128680022DA61044806F0A1FF0346002B01D0CD
S3150801287800F006F900BF80BD1403002000140140CA
S3150801288880B58CB000AF07F11C0300221A605A60A4
S315080128989A60DA601A610023BB61734B1B6B724A33
S315080128A843F010031363704B1B6B03F01003BB61F2
S315080128B8BB6900237B616C4B1B6B6B4A43F00403B2
S315080128C81363694B1B6B03F004037B617B69002364
S315080128D83B61654B1B6B644A43F080031363624B88
S315080128E81B6B03F080033B613B690023FB605E4B6E
S315080128F81B6B5D4A43F0010313635B4B1B6B03F0C8
S315080129080103FB60FB680023BB60574B1B6B564AE8
S3150801291843F002031363544B1B6B03F00203BB60BA
S31508012928BB6800237B60504B1B6B4F4A43F0080377
S3150801293813634D4B1B6B03F008037B607B6801220D
S31508012948FF214A4801F050FF012240F20131484867
S3150801295801F04AFF012243F20301464801F044FF08
S3150801296800224FF20301444801F03EFFFF23FB61B1
S3150801297801233B6200237B620023BB6207F11C0328
S3150801298819463A4801F07CFD40F20133FB610123FF
S315080129983B6200237B620023BB6207F11C031946CD
S315080129A8334801F06DFD0123FB614FF490133B6237
S315080129B800237B6207F11C031946304801F060FDC4
S315080129C81023FB6100233B6202237B6207F11C0388
S315080129D819462A4801F054FD43F20303FB61012312
S315080129E83B6200237B620023BB6207F11C0319467D
S315080129F8204801F045FD0423FB6100233B620023BF
S31508012A087B6207F11C0319461A4801F039FD4FF490
S31508012A187C53FB6100233B6200237B6207F11C039D
S31508012A281946124801F02CFD4FF20303FB610123F5
S31508012A383B6200237B620023BB6207F11C0319462C
S31508012A480D4801F01DFD2023FB6100233B6200238D
S31508012A587B6207F11C031946074801F011FD00BFFF
S31508012A683037BD4680BD00BF00380240001002401D
S31508012A780008024000040240000C0240000002401F
S31508012A8880B400AF72B600BF00BFFDE780B582B05B
S31508012A9800AF00237B60104B5B6C0F4A43F48043FD
S31508012AA853640D4B5B6C03F480437B607B6800239E
S31508012AB83B60094B1B6C084A43F080531364064B69
S31508012AC81B6C03F080533B603B68072001F030F923
S31508012AD800BF0837BD4680BD0038024080B584B0BE
S31508012AE800AF78607B681B680E4A934215D10023AC
S31508012AF8FB600D4B1B6C0C4A43F0020313640A4B2B
S31508012B081B6C03F00203FB60FB68002200211D20F1
S31508012B1801F019F91D2001F032F900BF1037BD4639
S31508012B2880BD00BF000400400038024080B590B05F
S31508012B3800AF786007F12C0300221A605A609A6080
S31508012B48DA601A617B681B68954A934244D1002367
S31508012B58BB62944B5B6C934A43F010035364914BE5
S31508012B685B6C03F01003BB62BB6A00237B628D4B67
S31508012B781B6B8C4A43F0020313638A4B1B6B03F0E6
S31508012B8802037B627B6A4023FB6202233B630023C1
S31508012B987B630323BB630723FB6307F12C031946EE
S31508012BA8814801F06DFC8023FB6202233B63012304
S31508012BB87B630323BB630723FB6307F12C031946CE
S31508012BC8794801F05DFC00220021252001F0BBF8B7
S31508012BD8252001F0D4F8DEE07B681B68734A934226
S31508012BE844D100233B626F4B1B6C6E4A43F4003396
S31508012BF813646C4B1B6C03F400333B623B6A00237A
S31508012C08FB61684B1B6B674A43F001031363654B0A
S31508012C181B6B03F00103FB61FB690423FB620223B7
S31508012C283B6300237B630323BB630723FB6307F12A
S31508012C382C0319465E4801F023FC0823FB6202238C
S31508012C483B6301237B630323BB630723FB6307F109
S31508012C582C031946564801F013FC002200212620A8
S31508012C6801F071F8262001F08AF894E07B681B6860
S31508012C78504A934246D10023BB614A4B1B6C494AC9
S31508012C8843F480231364474B1B6C03F48023BB610D
S31508012C98BB6900237B61434B1B6B424A43F0020322
S31508012CA81363404B1B6B03F002037B617B694FF48B
S31508012CB88063FB6202233B6300237B630323BB63B5
S31508012CC80723FB6307F12C031946374801F0D8FB9C
S31508012CD84FF40063FB6202233B6301237B630323EF
S31508012CE8BB630723FB6307F12C0319462E4801F03A
S31508012CF8C7FB00220021272001F025F8272001F02B
S31508012D083EF848E07B681B682B4A934243D1002367
S31508012D183B61244B5B6C234A43F020035364214BE4
S31508012D285B6C03F020033B613B690023FB601D4B89
S31508012D381B6B1C4A43F0040313631A4B1B6B03F002
S31508012D480403FB60FB684023FB6202233B63002301
S31508012D587B630323BB630823FB6307F12C0319462B
S31508012D68164801F08DFB8023FB6202233B6301238E
S31508012D787B630323BB630823FB6307F12C0319460B
S31508012D880E4801F07DFB00220021472000F0DBFFF9
S31508012D98472000F0F4FF00BF4037BD4680BD00BF9D
S31508012DA80010014000380240000402400044004077
S31508012DB80000024000480040001401400008024093
S31508012DC880B400AF00BFFDE780B400AF00BFFDE7E0
S31508012DD880B400AF00BFFDE780B400AF00BFFDE7D0
S31508012DE880B400AF00BFFDE780B400AF00BFBD46A1
S31508012DF85DF8047B704780B400AF00BFBD465DF837
S31508012E08047B704780B400AF00BFBD465DF8047BFC
S31508012E18704780B500AF00F05FFAFFF793F900BF76
S31508012E2880BD000080B500AFFEF7CCFE024805F06C
S31508012E38D1FE00BF80BD00BFF401002080B500AFF8
S31508012E48044B5B681846FEF75DFE034806F0FEFC70
S31508012E5800BF80BD584A02083C02002080B500AF71
S31508012E68044B9B681846FEF74DFE034806F0EEFC30
S31508012E7800BF80BD584A02088402002080B500AF09
S31508012E88044BDB681846FEF73DFE034806F0DEFCF0
S31508012E9800BF80BD584A0208CC02002080B500AFA1
S31508012EA8024801F09BFF00BF80BD00BF3C17002008
S31508012EB880B500AF044B9B691846FEF723FE034805
S31508012EC806F0C4FC00BF80BD584A02081403002056
S31508012ED880B500AF024803F018FF00BF80BD00BFE8
S31508012EE8680E002080B586B000AF7860144A154B85
S31508012EF8D31A7B617B693B61134B1B68002B02D193
S31508012F08114B124A1A60104B1A687B6813443A69BE
S31508012F189A4207D211F0AAFC03460C221A604FF00E
S31508012F28FF3309E0084B1B68FB60074B1A687B6887
S31508012F381344054A1360FB6818461837BD4680BD11
S31508012F48000002200004000070030020681C00200D
S31508012F5880B400AF074BD3F88830064A43F47003A8
S31508012F68C2F88830034B044A9A6000BFBD465DF82B
S31508012F78047B704700ED00E00002010880B483B0C5
S31508012F8800AF786039600BE07B685A1C7A601A785A
S31508012F983B68591C39601B789A4201D000230AE01C
S31508012FA87B681B78002BEFD13B681B78002B01D176
S31508012FB8012300E0002318460C37BD465DF8047B5B
S31508012FC8704780B483B000AF7860396008E07B68E1
S31508012FD81A783B681B789A4207D07B6801337B606D
S31508012FE87B681B78002BF2D100E000BF7B681B7851
S31508012FF8002B0FD1002312E07B681A783B681B78EF
S315080130089A4201D000230AE07B6801337B603B685A
S3150801301801333B607B681B78002BEDD101231846E9
S315080130280C37BD465DF8047B704780B485B000AFA0
S31508013038786039600023FB600123BB6002E07B6886
S3150801304801337B607B681B782E2BF8D112E07B68ED
S31508013058013B7B607B681B7803F00F03BA6802FBA8
S3150801306803F3FA681344FB60BA6813469B001344D2
S315080130785B00BB603B685A1E3A60002BE7D1FB68C8
S3150801308818461437BD465DF8047B704780B483B08B
S3150801309800AF7860396002E07B6801337B607B6842
S315080130A81B782E2BF8D107E07A68531C7B603B689E
S315080130B8591C396012781A707B681B78002BF3D172
S315080130C83B6800221A7000BF0C37BD465DF8047BC1
S315080130D87047000080B586B000AF78603960002374
S315080130E87B61244BFB60FB6803F58C62FB6803F282
S315080130F8A4431946104610F0ABFAFB6803F58C622F
S31508013108FB6803F28C431946104610F0FCFAFB6873
S3150801311803F2954319467868FFF753FF0346002BD0
S315080131281DD000233B6114E0FA683B69134403F296
S315080131389543187839687A6913465B0013449B00E6
S315080131481344CA183B69134402461A703B6901338A
S315080131583B613B690C2BE7DD7B6901337B61FB68C6
S3150801316893F89534002BC8D17B6918461837BD469C
S3150801317880BD00BF7403002080B586B000AFF86033
S31508013188B9607A600B4B7B617B6903F50D73012284
S31508013198F96818460FF092FF7B6903F50D707A688E
S315080131A807F11003B96810F014F900BF1837BD46BE
S315080131B880BD00BF7403002080B582B000AF094BFB
S315080131C87B6078687B6803F2A443002219460FF0EE
S315080131D831FF0346002B01D0FFF752FC00BF083721
S315080131E8BD4680BD7403002080B584B000AF786001
S315080131F8154BFB60FB6803F58C62FB6803F2A44375
S315080132081946104610F024FAFB6803F58C62FB6828
S3150801321803F28C431946104610F075FAFB6803F257
S31508013228954319467868FFF7A9FE0346002B01D08E
S31508013238012305E0FB6893F89534002BE4D10023B4
S3150801324818461037BD4680BD7403002080B483B084
S3150801325800AF0C4B7B607B68302283F8A4247B681B
S315080132683A2283F8A5247B682F2283F8A6247B684B
S31508013278002283F8A72400BF0C37BD465DF8047BF6
S31508013288704700BF7403002080B400AF024B18468C
S31508013298BD465DF8047B7047684B020880B400AFE9
S315080132A8024B1846BD465DF8047B7047844B0208F5
S315080132B880B582B000AF074B7B607B6808225A72DB
S315080132C87B6803229A72FEF715FF00BF0837BD46C9
S315080132D880BD00BF4008002080B584B000AF324BDE
S315080132E87B600A23FB737B682433BB60FEF722FFE6
S315080132F87B68DB88002B05D07B68DB88013B9AB2A3
S315080133087B68DA807B689B88002B12D07B689B8850
S31508013318013B9AB27B689A800BE0BB681B68002B55
S3150801332804D0BB681B685A1EBB681A60BB68103391
S31508013338BB60FB7B5A1EFA73002BEED17B681B78A0
S315080133480133DAB27B681A707B681B78174AA2FBC5
S3150801335803125209642101FB02F29B1ADAB27B684D
S315080133681A707B681A78124BA3FB0213D9080B4605
S315080133789B000B445B00D31ADBB2002B06D17B6892
S31508013388D3F8C4305A1C7B68C3F8C4207B681B78F9
S31508013398002B05D17B685B8801339AB27B685A8012
S315080133A800BF1037BD4680BD400800201F85EB5178
S315080133B8CDCCCCCC80B586B000AF494BBB60BB68D9
S315080133C85B88FB710A23FB75BB6824333B6123E0E1
S315080133D83B695B7B002B1CD03B691B68002B18D10A
S315080133E83B699B68002B0CD03B691B7B83F0010367
S315080133F8DBB2002B02D03B6900225A733B699B68F2
S3150801340898473B691B7B002B03D03B695A683B6984
S315080134181A603B6910333B61FB7D5A1EFA75002B0E
S31508013428D6D1FB79002B56D0BB6800225A800E23C9
S31508013438FB750023FB7312E0FB7BBA681344DB7A3E
S31508013448002B09D0FB7BBA681A44D27A013AD1B261
S31508013458BA6813440A46DA72FB7B0133FB73FB7DB0
S315080134685A1EFA75002BE7D1BB685B7A013BDAB2BB
S31508013478BB685A72BB685B7A002B0FD1BB681B7A8B
S315080134880133DAB2BB681A72BB681B7A03F00F03F9
S31508013498DAB2BB681A72BB6808225A720523FB7529
S315080134A80023FB7312E0FB7BBA6813449B7F002B4E
S315080134B809D0FB7BBA681A44927F013AD1B2BA6835
S315080134C813440A469A77FB7B0133FB73FB7D5A1E25
S315080134D8FA75002BE7D1FB7918461837BD4680BD22
S315080134E84008002080B485B000AF0346FB800B4B2B
S315080134F8FB60FB881A46920013445B009AB2FB6884
S31508013508DA8000BFFB68DB88002BFBD100BF00BF50
S315080135181437BD465DF8047B704700BF4008002094
S3150801352880B483B000AF0346FB80FB881A46920035
S3150801353813445B009AB2044B9A8000BF0C37BD4608
S315080135485DF8047B704700BF4008002080B400AFCF
S31508013558054B9B88002B01D1012300E0002318465F
S31508013568BD465DF8047B70474008002080B483B0E7
S3150801357800AF0923FB710A23BB710F4B3B60FB792B
S315080135883A681B01134431331B7883F00103DBB214
S31508013598002B01D0FB7909E0FB79013BFB71BB796B
S315080135A8013BBB71BB79002BE9D17F2318460C3740
S315080135B8BD465DF8047B70474008002080B485B095
S315080135C800AF396011461A460346FB710B46BB71B3
S315080135D813467B71FB7902331B01234A13440433CF
S315080135E8FB603B68002B01D03B6800E001233B6088
S315080135F8BB79032B06D0032B18DC012B0FD0022B22
S3150801360806D013E03B68194A02FB03F33B6011E055
S315080136183B6842F2107202FB03F33B600AE03A6820
S3150801362813469B0013445B003B6003E03B68013388
S315080136383B6000BF3B6801333B60FB687A791A73C4
S31508013648FB683A685A60FB683A681A60FB68BA699F
S315080136589A60FB6801225A73012318461437BD4636
S315080136685DF8047B704700BF40080020C0270900A1
S3150801367880B588B002AFF8607B600B46FB721346CB
S31508013688BB72FFF773FF0346FB75FB7D7F2B01D1E1
S31508013698FF2311E0B97AFA7AF87D7B6800930B461D
S315080136A8F968FFF78BFF034683F00103DBB2002BAA
S315080136B801D0FF2300E0FB7D18461837BD4680BDBB
S315080136C880B586B002AF03463960FB711346BB71F4
S315080136D8FB7902331B01094A13440433FB60FB686F
S315080136E8197BFB689B68BA79F87900930B463968A0
S315080136F8FFF764FF00BF1037BD4680BD40080020AC
S3150801370880B485B000AF0346FB71FB79104A0233D2
S315080137181B01134404331B68FB60FB7902331B0145
S315080137280B4A13440433BB60FB68002B09D1BB68F9
S315080137381B7B83F00103DBB2002B02D0BB68002296
S315080137485A73FB6818461437BD465DF8047B7047FB
S315080137584008002080B485B000AF0346FB71FB79A9
S3150801376802331B01094A13440433FB60FB68002230
S315080137781A73FB6800229A60FB6800225A7300BF15
S315080137881437BD465DF8047B704700BF4008002022
S3150801379880B485B000AF0346FB71FB79114A023341
S315080137A81B01134404331B68FB60FB7902331B01B5
S315080137B80C4A13440433BB60FB68002B09D1BB6868
S315080137C81B7B83F00103DBB2002B02D0BB68002206
S315080137D85A73BB685B7B18461437BD465DF8047B8C
S315080137E8704700BF4008002080B485B000AF034683
S315080137F8FB71FB79154A02331B01134404331B6811
S31508013808FB60FB7902331B01104A13440433BB607E
S31508013818FB68002B09D1BB681B7B83F00103DBB26C
S31508013828002B02D0BB6800225A73BB685B7B83F006
S315080138380103DBB2002B01D0012300E0002318465F
S315080138481437BD465DF8047B704700BF4008002061
S3150801385880B483B000AF0346FB71044AFB799372BF
S3150801386800BF0C37BD465DF8047B70474008002049
S3150801387880B483B000AF094B7B607B689B7A184696
S315080138887B681B7A1946064A030113440B441B78BD
S3150801389818460C37BD465DF8047B7047400800207A
S315080138A8D84B020880B483B000AF03460A46FB71B9
S315080138B81346BB71FB79084A1344DB7A002B04D1FA
S315080138C8FB79054A1344BA79DA7200BF0C37BD4643
S315080138D85DF8047B704700BF4008002080B483B0B8
S315080138E800AF0346FB71FB79064A1344DB7A002BC2
S315080138F801D1002300E0012318460C37BD465DF8BF
S31508013908047B70474008002080B483B000AF0346A3
S31508013918FB71FB79044A1344DB7A18460C37BD4612
S315080139285DF8047B704700BF4008002080B483B067
S3150801393800AF03460A46FB711346BB71FB79054A74
S315080139481344BA795A7600BF0C37BD465DF8047B2D
S31508013958704700BF4008002080B483B000AF034613
S315080139680A46FB711346BB71FB79054A1344BA79B2
S315080139789A7700BF0C37BD465DF8047B704700BFD0
S315080139884008002080B485B000AF0346FB71134B8D
S31508013998FB60FB79FA6813445B7E002B01D100238F
S315080139A815E0FB79FA6813445B7E012B09D1FB798B
S315080139B8FA6813449B7F002B01D1012307E00023F2
S315080139C805E0FB681B7A1A46054B13441B7C184607
S315080139D81437BD465DF8047B704700BF40080020D0
S315080139E8D84B020880B400AF034BD3F8C430184645
S315080139F8BD465DF8047B704740080020DFF85CD0B7
S31508013A08FFF7A6FA16481749174A002302E0D458B9
S31508013A18C4500433C4188C42F9D314481449154AB6
S31508013A28002302E0D458C4500433C4188C42F9D38D
S31508013A38114A124C002301E013600432A242FBD357
S31508013A480F4A104C002301E013600432A242FBD34B
S31508013A5810F012FFFEF7D0FC7047000000000220A4
S31508013A6800000020C4010020BC4C02080000001018
S31508013A7810000010804E0208C4010020641C0020B2
S31508013A8810000010A81C0010FEE7000080B500AF62
S31508013A980E4B1B680D4A43F4007313600B4B1B68E6
S31508013AA80A4A43F480631360084B1B68074A43F4C0
S31508013AB880731360032000F03BF9002000F008F832
S31508013AC8FEF7E4FF0023184680BD00BF003C02400C
S31508013AD880B582B000AF7860124B1A68124B1B7812
S31508013AE819464FF47A73B3FBF1F3B2FBF3F31846AD
S31508013AF800F053F90346002B01D001230EE07B6839
S31508013B080F2B0AD8002279684FF0FF3000F01BF90D
S31508013B18064A7B681360002300E001231846083724
S31508013B28BD4680BD000000200800002004000020D2
S31508013B3880B400AF034B1B681846BD465DF8047B85
S31508013B48704700BF0809002080B584B000AF7860C7
S31508013B58FFF7EEFFB8607B68FB60FB68B3F1FF3FD0
S31508013B6805D00A4B1B781A46FB681344FB6000BF4D
S31508013B78FFF7DEFF0246BB68D31AFA689A42F7D8F6
S31508013B8800BF00BF1037BD4680BD00BF0800002032
S31508013B9880B485B000AF78607B6803F00703FB60E3
S31508013BA80C4BDB68BB60BA684FF6FF031340BB6072
S31508013BB8FB681A02BB68134343F0BF6343F4003337
S31508013BC8BB60044ABB68D36000BF1437BD465DF8BD
S31508013BD8047B704700ED00E080B400AF044BDB6856
S31508013BE81B0A03F007031846BD465DF8047B7047B0
S31508013BF800ED00E080B483B000AF0346FB7197F986
S31508013C080730002B0BDBFB7903F01F02074997F9ED
S31508013C1807305B09012000FA02F241F8232000BFA8
S31508013C280C37BD465DF8047B704700BF00E100E02C
S31508013C3880B483B000AF03463960FB7197F9073042
S31508013C48002B0ADB3B68DAB20C4997F907301201EF
S31508013C58D2B20B4483F800230AE03B68DAB2084972
S31508013C68FB7903F00F03043B1201D2B20B441A760F
S31508013C7800BF0C37BD465DF8047B704700E100E0DC
S31508013C8800ED00E080B489B000AFF860B9607A60E9
S31508013C98FB6803F00703FB61FB69C3F10703042B00
S31508013CA828BF0423BB61FB690433062B02D9FB69C8
S31508013CB8033B00E000237B614FF0FF32BB6902FA40
S31508013CC803F3DA43BB681A407B699A404FF0FF3120
S31508013CD87B6901FA03F3D9437B680B4013431846FA
S31508013CE82437BD465DF8047B7047000080B582B06D
S31508013CF800AF78607B68013BB3F1807F01D301236C
S31508013D080FE00A4A7B68013B53600F214FF0FF30E9
S31508013D18FFF78EFF054B00229A60044B07221A60AB
S31508013D28002318460837BD4680BD00BF10E000E0ED
S31508013D3880B582B000AF78607868FFF729FF00BFC1
S31508013D480837BD4680BD80B586B000AF0346B96061
S31508013D587A60FB7300237B61FFF73EFF78617A6817
S31508013D68B9687869FFF78EFF024697F90F30114649
S31508013D781846FFF75DFF00BF1837BD4680BD80B5F9
S31508013D8882B000AF0346FB7197F907301846FFF76B
S31508013D9831FF00BF0837BD4680BD80B582B000AF88
S31508013DA878607868FFF7A2FF034618460837BD46C4
S31508013DB880BD80B584B000AF78607B689B6DFB6079
S31508013DC8FFF7B6FEB8607B6893F83530DBB2022B8D
S31508013DD808D07B6880225A657B68002283F83420DC
S31508013DE8012352E07B681B681A687B681B6822F006
S31508013DF816021A607B681B685A697B681B6822F079
S31508013E0880025A617B681B6C002B03D17B689B6C0B
S31508013E18002B07D07B681B681A687B681B6822F029
S31508013E2808021A607B681B681A687B681B6822F097
S31508013E3801021A6013E0FFF77BFE0246BB68D31A34
S31508013E48052B0CD97B6820225A657B68032283F8DF
S31508013E5835207B68002283F83420032315E07B6824
S31508013E681B681B6803F00103002BE4D17B68DB6D33
S31508013E783F229A40FB689A607B68012283F83520BD
S31508013E887B68002283F83420002318461037BD467C
S31508013E9880BD80B483B000AF78607B6893F835300D
S31508013EA8DBB2022B04D07B6880225A6501230CE019
S31508013EB87B68052283F835207B681B681A687B6846
S31508013EC81B6822F001021A60002318460C37BD4602
S31508013ED85DF8047B7047000080B586B000AFF860CE
S31508013EE8B960C7E90023234B1B7E012B01D10223A5
S31508013EF83BE0204B01221A764CF2503000F070F85C
S31508013F080346FB75FB7D002B2BD1FB68002B05D1DE
S31508013F183B781946B86800F01BF916E0FB68012BCF
S31508013F2805D13B881946B86800F0EEF80DE0FB683C
S31508013F38022B05D13B681946B86800F0C3F804E0B6
S31508013F48D7E90023B86800F08BF84CF2503000F036
S31508013F5847F80346FB75084B1B69074A23F0010313
S31508013F681361044B00221A76FB7D18461837BD469D
S31508013F7880BD00BF0C090020003C024080B483B014
S31508013F8800AF0023FB710B4B1B69002B0BDA094B9E
S31508013F98094A5A60074B094A5A60064B1B69002B9E
S31508013FA801DA0123FB71FB7918460C37BD465DF822
S31508013FB8047B7047003C024023016745AB89EFCD76
S31508013FC880B400AF054B1B69044A43F000431361EB
S31508013FD800231846BD465DF8047B7047003C02403D
S31508013FE880B584B000AF78600023FB601A4B0022C5
S31508013FF8DA61FFF79DFDF86010E07B68B3F1FF3FD2
S315080140080CD07B68002B07D0FFF792FD0246FB68A8
S31508014018D31A7A689A4201D2032319E00F4BDB684F
S3150801402803F48033002BE8D10C4BDB6803F001035A
S31508014038002B02D0094B0122DA60084BDB6803F032
S31508014048F203002B03D000F0A5F8012300E00023B2
S3150801405818461037BD4680BD0C090020003C0240B1
S3150801406880B485B000AFF860C7E90023144B1B6913
S31508014078134A23F440731361114B1B69104A43F41D
S31508014088407313610E4B1B690D4A43F00103136113
S31508014098FB683A681A60BFF36F8F00BFD7E900015A
S315080140A84FF000024FF000030A000023F9680431B3
S315080140B813460B6000BF1437BD465DF8047B70478D
S315080140C8003C024080B483B000AF786039600D4B7C
S315080140D81B690C4A23F4407313610A4B1B69094A85
S315080140E843F400731361074B1B69064A43F001033E
S315080140F813617B683A681A6000BF0C37BD465DF8DC
S31508014108047B7047003C024080B483B000AF7860F6
S315080141180B467B800D4B1B690C4A23F440731361CC
S315080141280A4B1B69094A43F480731361074B1B69D8
S31508014138064A43F0010313617B687A881A8000BF2F
S315080141480C37BD465DF8047B704700BF003C02404A
S3150801415880B483B000AF78600B46FB700C4B1B69C3
S315080141680B4A23F440731361094B094A1B69136106
S31508014178074B1B69064A43F0010313617B68FA7802
S315080141881A7000BF0C37BD465DF8047B704700BF3F
S31508014198003C024080B400AF274BDB6803F01003EC
S315080141A8002B08D0254BDB6943F01003234AD3615A
S315080141B8214B1022DA60204BDB6803F02003002B21
S315080141C808D01E4BDB6943F008031C4AD3611A4B16
S315080141D82022DA60184BDB6803F04003002B08D06D
S315080141E8164BDB6943F00403144AD361124B402288
S315080141F8DA60114BDB6803F08003002B08D00F4BFC
S31508014208DB6943F002030D4AD3610B4B8022DA605E
S31508014218094BDB6803F00203002B08D0074BDB695F
S3150801422843F02003054AD361034B0222DA6000BF33
S31508014238BD465DF8047B7047003C02400C09002026
S3150801424880B584B000AF786039600023BB60314B14
S315080142581B7E012B01D1022358E02E4B01221A7627
S315080142684CF25030FFF7BCFE0346FB73FB7B002B71
S3150801427848D13B684FF0FF321A607B681B68012BEF
S3150801428815D17B681B69DAB27B685B6819461046E3
S3150801429800F044F84CF25030FFF7A2FE0346FB73D0
S315080142A81D4B1B691C4A23F00403136128E07B682C
S315080142B89B68BB601CE07B681B69DBB21946B8685A
S315080142C800F050F84CF25030FFF78AFE0346FB73AC
S315080142D8114B1B69104A23F07A031361FB7B002BE8
S315080142E803D03B68BA681A600AE0BB680133BB6049
S315080142F87B68DA687B689B681344BA689A42DAD39A
S3150801430800F078F8034B00221A76FB7B184610371B
S31508014318BD4680BD0C090020003C024080B483B02C
S3150801432800AF03463960FB710D4B1B690C4A23F430
S31508014338407313610A4B1B69094A43F00403136165
S31508014348074B1A69FB791B021343054A43F4803361
S31508014358136100BF0C37BD465DF8047B704700BF83
S31508014368003C024080B485B000AF78600B46FB700C
S315080143780023FB60FB78002B02D10023FB6010E0C9
S31508014388FB78012B03D14FF48073FB6009E0FB78B6
S31508014398022B03D14FF40073FB6002E04FF440731C
S315080143A8FB60134B1B69124A23F440731361104BC4
S315080143B81A690F49FB6813430B610D4B1B690C4AB4
S315080143C823F0780313610A4B1A697B68DB001343E8
S315080143D8074A43F002031361054B1B69044A43F470
S315080143E88033136100BF1437BD465DF8047B7047F7
S315080143F8003C024080B400AF204B1B6803F40073ED
S31508014408002B17D01D4B1B681C4A23F40073136035
S315080144181A4B1B68194A43F400631360174B1B6848
S31508014428164A23F400631360144B1B68134A43F4B2
S3150801443800731360114B1B6803F48063002B17D0B4
S315080144480E4B1B680D4A23F4806313600B4B1B68DC
S315080144580A4A43F480531360084B1B68074A23F436
S3150801446880531360054B1B68044A43F48063136041
S3150801447800BFBD465DF8047B704700BF003C02409B
S3150801448880B489B000AF7860396000237B61002366
S315080144983B610023BB610023FB616BE10122FB69D8
S315080144A802FA03F37B613B681B687A6913403B612F
S315080144B83A697B699A4240F05A813B685B6803F01E
S315080144C80303012B05D03B685B6803F00303022B42
S315080144D830D17B689B68BB61FB695B00032202FAE2
S315080144E803F3DB43BA691340BB613B68DA68FB69C6
S315080144F85B0002FA03F3BA691343BB617B68BA69BD
S315080145089A607B685B68BB610122FB6902FA03F35F
S31508014518DB43BA691340BB613B685B681B0903F057
S315080145280102FB6902FA03F3BA691343BB617B68A3
S31508014538BA695A603B685B6803F00303032B17D013
S315080145487B68DB68BB61FB695B00032202FA03F33C
S31508014558DB43BA691340BB613B689A68FB695B0030
S3150801456802FA03F3BA691343BB617B68BA69DA606D
S315080145783B685B6803F00303022B23D1FB69DA085E
S315080145887B68083253F82230BB61FB6903F00703DD
S315080145989B000F2202FA03F3DB43BA691340BB6196
S315080145A83B681A69FB6903F007039B0002FA03F3E0
S315080145B8BA691343BB61FB69DA087B680832B969CA
S315080145C843F822107B681B68BB61FB695B00032201
S315080145D802FA03F3DB43BA691340BB613B685B68BC
S315080145E803F00302FB695B0002FA03F3BA69134392
S315080145F8BB617B68BA691A603B685B6803F4403338
S31508014608002B00F0B4800023FB60604B5B6C5F4AAB
S3150801461843F4804353645D4B5B6C03F48043FB604E
S31508014628FB685B4AFB699B08023352F82330BB6176
S31508014638FB6903F003039B000F2202FA03F3DB432A
S31508014648BA691340BB617B68524A93422BD07B688F
S31508014658514A934225D07B68504A93421FD07B68BA
S315080146684F4A934219D07B684E4A934213D07B68C6
S315080146784D4A93420DD07B684C4A934207D07B68D2
S315080146884B4A934201D107230EE008230CE006237F
S315080146980AE0052308E0042306E0032304E00223CD
S315080146A802E0012300E00023FA6902F003029200FE
S315080146B89340BA691343BB613549FB699B080233C1
S315080146C8BA6941F823203B4B9B68BB613B69DB43CD
S315080146D8BA691340BB613B685B6803F48013002B16
S315080146E803D0BA693B691343BB61324ABB69936014
S315080146F8304BDB68BB613B69DB43BA691340BB6175
S315080147083B685B6803F40013002B03D0BA693B695D
S315080147181343BB61274ABB69D360264B5B68BB61F8
S315080147283B69DB43BA691340BB613B685B6803F4C1
S315080147380033002B03D0BA693B691343BB611D4A91
S31508014748BB6953601B4B1B68BB613B69DB43BA6991
S315080147581340BB613B685B6803F48033002B03D0C5
S31508014768BA693B691343BB61124ABB691360FB69A2
S315080147780133FB61FB690F2B7FF690AE00BF00BFC3
S315080147882437BD465DF8047B704700BF00380240F0
S3150801479800380140000002400004024000080240B7
S315080147A8000C0240001002400014024000180240A2
S315080147B8001C0240003C014080B485B000AF786017
S315080147C80B467B807B681A697B881340002B02D0CD
S315080147D80123FB7301E00023FB73FB7B184614379F
S315080147E8BD465DF8047B704780B483B000AF786036
S315080147F80B467B8013467B707B78002B03D07A881F
S315080148087B689A6103E07B881A047B689A6100BF12
S315080148180C37BD465DF8047B704780B586B002AF94
S3150801482878607B68002B01D1012359E07B681B68F6
S31508014838FB607B6893F8D533DBB2002B06D17B681E
S31508014848002283F8D42378680FF08EFC7B6803224C
S3150801485883F8D523FB68B3F1A04F02D17B68002200
S315080148689A717B681B68184605F0DFFF7B6818682C
S315080148787B681A7C8DF8002004330ECB05F0BEFE42
S315080148880346002B05D07B68022283F8D52301232A
S3150801489826E07B681B680121184605F0D7FF034601
S315080148A8002B05D07B68022283F8D523012317E05C
S315080148B87B6818687B681A7C8DF8002004330ECB50
S315080148C807F00CFA0346002B05D07B68022283F809
S315080148D8D523012304E07B68012283F8D523002325
S315080148E818461037BD4680BD90B58BB004AF7860C1
S315080148F8084611461A460346FB700B46BB70134613
S315080149087B703B8E7B617B6893F8D433012B01D18D
S3150801491802239DE07B68012283F8D423FA78796813
S3150801492813461B019B1A9B000B44193300221A7064
S31508014938FA78796813461B019B1A9B000B441433B2
S315080149487A781A70FA78796813461B019B1A9B00BC
S315080149580B441533FA781A70FA78796813461B01E5
S315080149689B1A9B000B44263397F82C201A70FA7861
S31508014978BB7803F07F03D8B2796813461B019B1AE3
S315080149889B000B44163302461A70FB781946786859
S3150801499800F0C8FB97F90230002B0ADAFA78796829
S315080149A813461B019B1A9B000B44173301221A70E5
S315080149B809E0FA78796813461B019B1A9B000B4490
S315080149C8173300221A707B681B68184607F0EAFA3B
S315080149D8386197F82C30012B0BD197F82830012B21
S315080149E807D13B69002B04D17B69BC2B01D9BC23B0
S315080149F87B61FA78796813461B019B1A9B000B445D
S31508014A08183397F828201A70FA787B6998B2796862
S31508014A1813461B019B1A9B000B44283302461A802E
S31508014A287B6818687B699BB27C78BA78F9780293AF
S31508014A3897F82C30019397F828300093234607F006
S31508014A48D9FA0346FB737B68002283F8D423FB7BD8
S31508014A5818461C37BD4690BD80B584B000AF78604E
S31508014A680B46FB700023FB737B6893F8D433012B41
S31508014A7801D102230FE07B68012283F8D4237B68DE
S31508014A881B68FA781146184607F06BFE7B68002200
S31508014A9883F8D423FB7B18461037BD4680BD000032
S31508014AA880B582B000AF7860084611461A460346B3
S31508014AB8FB700B46BB7013467B70FA787968134608
S31508014AC81B019B1A9B000B441733BA781A70FA789C
S31508014AD8796813461B019B1A9B000B4426337A787F
S31508014AE81A703B7C002B14D1FA78796813461B0196
S31508014AF89B1A9B000B442A3303221A70FA787968A1
S31508014B0813461B019B1A9B000B4419333A7F1A70EB
S31508014B1809E0FA78796813461B019B1A9B000B442E
S31508014B282A3302221A707B78032B00F2028101A22A
S31508014B3852F823F04D4B0108254D0108114C01087F
S31508014B489B4C01083B7C012B40F0F580BB78002B78
S31508014B582DD13B8B002B09D1FA78796813461B01AD
S31508014B689B1A9B000B443D3301221A70FA7879681F
S31508014B7813461B019B1A9B000B443D331B78002BDC
S31508014B880AD1FA78796813461B019B1A9B000B44CC
S31508014B982A3300221A70CEE0FA78796813461B017F
S31508014BA89B1A9B000B442A3302221A70C3E0FA782F
S31508014BB8796813461B019B1A9B000B441A331B7809
S31508014BC8012B40F0B880FA78796813461B019B1ABD
S31508014BD89B000B443C331B78002B0AD1FA78796879
S31508014BE813461B019B1A9B000B442A3300221A7091
S31508014BF8A1E0FA78796813461B019B1A9B000B44B6
S31508014C082A3302221A7096E0BB78002B20D1FA784B
S31508014C18796813461B019B1A9B000B443D331B7885
S31508014C28002B0AD1FA78796813461B019B1A9B004F
S31508014C380B442A3300221A707EE0FA7879681346FB
S31508014C481B019B1A9B000B442A3302221A7073E034
S31508014C58FA78796813461B019B1A9B000B443C3367
S31508014C681B78002B0AD1FA78796813461B019B1A17
S31508014C789B000B442A3300221A705DE0FA7879689A
S31508014C8813461B019B1A9B000B442A3302221A70EE
S31508014C9852E0BB78002B20D1FA78796813461B01B4
S31508014CA89B1A9B000B443D331B78002B0AD1FA78D3
S31508014CB8796813461B019B1A9B000B442A33002269
S31508014CC81A7039E0FA78796813461B019B1A9B0012
S31508014CD80B442A3302221A702EE0FA7879681346A9
S31508014CE81B019B1A9B000B443C331B78002B0AD1EA
S31508014CF8FA78796813461B019B1A9B000B442A33D9
S31508014D0800221A7018E0FA78796813461B019B1A6B
S31508014D189B000B442A3302221A700DE0FA78796847
S31508014D2813461B019B1A9B000B442A3300221A704F
S31508014D3802E000BF00E000BFFA78796813461B0154
S31508014D489B1A9B000B442C337A691A60FA78398BBB
S31508014D58786813461B019B1A9B0003443433196070
S31508014D68FA78796813461B019B1A9B000B444C3346
S31508014D7800221A70FA78796813461B019B1A9B0058
S31508014D880B44383300221A60FA78796813461B01EE
S31508014D989B1A9B000B441533FA781A70FA787968C6
S31508014DA813461B019B1A9B000B444D3300221A70AC
S31508014DB87B681868FA7813461B019B1A9B001033FF
S31508014DC87A681344191D7B689B791A4607F03EFAD7
S31508014DD8034618460837BD4680BD00BF80B586B06C
S31508014DE800AF78607B681B683B613B69FB607B6841
S31508014DF81B68184606F0AAFE0346012B40F0FB80FD
S31508014E087B681B68184606F0EDFD0346002B00F083
S31508014E18F1807B681B68184606F0E4FD034603F42F
S31508014E280013B3F5001F04D17B681B684FF4001201
S31508014E385A617B681B68184606F0D4FD034603F4D5
S31508014E488013B3F5801F04D17B681B684FF4801261
S31508014E585A617B681B68184606F0C4FD034603F0C9
S31508014E688063B3F1806F04D17B681B684FF0806259
S31508014E785A617B681B68184606F0B4FD034603F0B9
S31508014E880203022B03D17B681B6802225A617B68DD
S31508014E981B68184606F0A6FD034603F00053B3F14E
S31508014EA8005F20D17B681B684FF000525A61FB6886
S31508014EB803F588631B6803F00103002B13D110213E
S31508014EC8386905F073FE386905F0A2FE7B685B7AD6
S31508014ED8022B05D17B681B680121184606F0C2FF1B
S31508014EE878680FF0B1F97B681B68184606F07AFDF1
S31508014EF8034603F08073B3F1807F02D1786801F025
S31508014F084DFD7B681B68184606F06CFD034603F0E1
S31508014F180803082B06D178680FF07AF97B681B68AD
S31508014F2808225A617B681B68184606F05BFD03462A
S31508014F3803F00073B3F1007F39D17B681B68184603
S31508014F4807F0FEFBB86000237B6125E07B6903F067
S31508014F580F03BA6822FA03F303F00103002B18D0EA
S31508014F687B695A01FB68134403F5A0631B6803F4BC
S31508014F780043B3F5004F06D17B69DBB21946786859
S31508014F8800F005F905E07B69DBB21946786800F097
S31508014F9867FF7B6901337B617B685B791A467B69A5
S31508014FA89342D3D37B681B684FF000725A617B68BA
S31508014FB81B68184606F016FD034603F01003102B66
S31508014FC801D1012300E00023002B14D07B681B685C
S31508014FD89A697B681B6822F010029A61786801F061
S31508014FE8FEFB7B681B689A697B681B6842F010029E
S31508014FF89A6100E000BF1837BD4680BD80B582B00A
S3150801500800AF78607B6893F8D433012B01D102236A
S3150801501813E07B68012283F8D4237B681B68012186
S31508015028184606F086FF7B681B68184605F0ECFBF0
S315080150387B68002283F8D423002318460837BD461F
S3150801504880BD80B582B000AF78607B6893F8D433A9
S31508015058012B01D102230DE07B68012283F8D423B1
S315080150687B681B68184607F0D9FC7B68002283F819
S31508015078D423002318460837BD4680BD80B582B0BB
S3150801508800AF78607B681B68184606F028FF034658
S3150801509818460837BD4680BD80B483B000AF78602E
S315080150A80B46FB70FA78796813461B019B1A9B0015
S315080150B80B444C331B7818460C37BD465DF8047B00
S315080150C8704780B483B000AF78600B46FB70FA78F6
S315080150D8796813461B019B1A9B000B4438331B68D6
S315080150E818460C37BD465DF8047B704780B582B013
S315080150F800AF78607B681B68184606F06AFF0346A6
S3150801510818460837BD4680BD80B582B000AF7860BD
S315080151187B681B68184606F045FF03461846083794
S31508015128BD4680BD80B483B000AF78600B46FB707E
S31508015138FA78796813461B019B1A9B000B441A33A4
S3150801514800221A70FA78796813461B019B1A9B0084
S315080151580B441B3300221A70FA78796813461B0127
S315080151689B1A9B000B44253300221A70FA78796832
S3150801517813461B019B1A9B000B44243300221A7001
S31508015188002318460C37BD465DF8047B704780B581
S3150801519886B000AF78600B46FB707B681B687B613D
S315080151A87B693B617B681B68FA781146184606F0E5
S315080151B82CFC034603F00403042B1AD1FB785A0185
S315080151C83B69134403F5A0631A4604239360FA78E6
S315080151D8796813461B019B1A9B000B444D3307221A
S315080151E81A707B681B68FA781146184607F0B9FAE7
S315080151F89EE07B681B68FA781146184606F005FC96
S31508015208034603F48073B3F5807F1BD1FB785A01F3
S315080152183B69134403F5A0631A464FF480739360F8
S31508015228FA78796813461B019B1A9B000B444D3380
S3150801523808221A707B681B68FA781146184607F01F
S3150801524890FA75E07B681B68FA781146184606F0E5
S31508015258DCFB034603F00803082B1AD1FB785A012D
S315080152683B69134403F5A0631A4608239360FA7841
S31508015278796813461B019B1A9B000B444D3306227A
S315080152881A707B681B68FA781146184607F069FA96
S315080152984EE07B681B68FA781146184606F0B5FB96
S315080152A8034603F48063B3F5806F1BD1FB785A0173
S315080152B83B69134403F5A0631A464FF48063936068
S315080152C8FA78796813461B019B1A9B000B444D33E0
S315080152D809221A707B681B68FA781146184607F07E
S315080152E840FA25E07B681B68FA781146184606F0E5
S315080152F88CFB034603F08003802B19D1FB785A01EE
S315080153083B69134403F5A0631A4680239360FA7828
S31508015318796813461B019B1A9B000B444D330722D8
S315080153281A707B681B68FA781146184607F019FA45
S315080153387B681B68FA781146184606F066FB034629
S3150801534803F40073B3F5007F12D17B681B68FA78FA
S315080153581146184607F005FAFB785A013B691344C2
S3150801536803F5A0631A464FF40073936000F075BD00
S315080153787B681B68FA781146184606F046FB034609
S3150801538803F00103012B40F02881FB785A013B6998
S31508015398134403F5A0631A4620239360FA787968BB
S315080153A813461B019B1A9B000B441B331B78012BC5
S315080153B819D1FA78796813461B019B1A9B000B4485
S315080153C81B3300221A70FB785A013B69134403F50B
S315080153D8A0635B68FA7851013A690A4402F5A06242
S315080153E823F4803353607B689B79002B1BD0FA78AA
S315080153F8796813461B019B1A9B000B4430331968BD
S31508015408FB785A013B69134403F5A0631B69C3F387
S315080154181203FA78C91A786813461B019B1A9B0066
S31508015428034438331960FA78796813461B019B1ABD
S315080154389B000B444D3301221A70FA787968134692
S315080154481B019B1A9B000B44443300221A60FB7804
S315080154585A013B69134403F5A0631A46012393606D
S31508015468FA78796813461B019B1A9B000B44263365
S315080154781B78002B0AD0FA78796813461B019B1A00
S315080154889B000B4426331B78022B10D17B681B68BB
S31508015498FA781146184607F064F9FB785A013B6908
S315080154A8134403F5A0631A46102393603DE0FA787E
S315080154B8796813461B019B1A9B000B4426331B78F4
S315080154C8032B0AD0FA78796813461B019B1A9B00A5
S315080154D80B4426331B78012B27D1FB785A013B69E4
S315080154E8134403F5A0631B68FA7851013A690A441B
S315080154F802F5A06243F000531360FA7879681346F7
S315080155081B019B1A9B000B444C3301221A70FA782B
S31508015518796813461B019B1A9B000B444C331A786E
S31508015528FB78194678680EF09DFE7B689B79012BF6
S315080155383BD1FA78796813461B019B1A9B000B44E1
S3150801554838331968FA78786813461B019B1A9B0041
S31508015558034428331B880B44591EFA78786813467E
S315080155681B019B1A9B00034428331B88B1FBF3F3E1
S3150801557803F00103002B00F07084FA787968134662
S315080155881B019B1A9B000B443C331B78FA7883F062
S315080155980103D8B2796813461B019B1A9B000B4471
S315080155A83C3302461A7000F058BCFA7879681346F3
S315080155B81B019B1A9B000B443C331B78FA7883F032
S315080155C80103D8B2796813461B019B1A9B000B4441
S315080155D83C3302461A7000F040BC7B681B68FA78AF
S315080155E81146184606F011FA034603F02003202B44
S315080155F831D1FB785A013B69134403F5A0631A466E
S3150801560820239360FA78796813461B019B1A9B0035
S315080156180B441A331B78012B40F01F84FA787968F2
S3150801562813461B019B1A9B000B441B3301221A7054
S31508015638FA78796813461B019B1A9B000B444D336C
S3150801564803221A707B681B68FA781146184607F010
S3150801565888F800F002BC7B681B68FA781146184678
S3150801566806F0D3F9034603F00203022B40F005833B
S31508015678FB785A013B69134403F5A0631A460223CA
S315080156889360FA78796813461B019B1A9B000B44A9
S315080156984D331B78012B14D1FA78796813461B0107
S315080156A89B1A9B000B444D3302221A70FA787968C3
S315080156B813461B019B1A9B000B444C3301221A7093
S315080156C8CCE2FA78796813461B019B1A9B000B44AE
S315080156D84D331B78062B14D1FA78796813461B01C2
S315080156E89B1A9B000B444D3302221A70FA78796883
S315080156F813461B019B1A9B000B444C3305221A704F
